{
  "_format": "hh-sol-artifact-1",
  "contractName": "IDBot",
  "sourceName": "contracts/IDBot.sol",
  "abi": [
    {
      "inputs": [],
      "stateMutability": "nonpayable",
      "type": "constructor"
    },
    {
      "anonymous": false,
      "inputs": [
        {
          "indexed": true,
          "internalType": "address",
          "name": "contract_address",
          "type": "address"
        },
        {
          "indexed": false,
          "internalType": "string",
          "name": "name",
          "type": "string"
        }
      ],
      "name": "AddProject",
      "type": "event"
    },
    {
      "anonymous": false,
      "inputs": [
        {
          "indexed": true,
          "internalType": "address",
          "name": "user",
          "type": "address"
        },
        {
          "indexed": false,
          "internalType": "uint256",
          "name": "profileId",
          "type": "uint256"
        }
      ],
      "name": "CreateProfile",
      "type": "event"
    },
    {
      "anonymous": false,
      "inputs": [
        {
          "indexed": true,
          "internalType": "address",
          "name": "user",
          "type": "address"
        },
        {
          "indexed": false,
          "internalType": "uint256",
          "name": "duration",
          "type": "uint256"
        }
      ],
      "name": "Subscribed",
      "type": "event"
    },
    {
      "anonymous": false,
      "inputs": [
        {
          "indexed": false,
          "internalType": "address",
          "name": "user",
          "type": "address"
        }
      ],
      "name": "Unverified",
      "type": "event"
    },
    {
      "anonymous": false,
      "inputs": [
        {
          "indexed": false,
          "internalType": "address",
          "name": "user",
          "type": "address"
        }
      ],
      "name": "Verified",
      "type": "event"
    },
    {
      "inputs": [
        {
          "internalType": "uint256",
          "name": "",
          "type": "uint256"
        }
      ],
      "name": "_subscribers",
      "outputs": [
        {
          "internalType": "address",
          "name": "user",
          "type": "address"
        },
        {
          "internalType": "uint256",
          "name": "duration",
          "type": "uint256"
        },
        {
          "internalType": "uint256",
          "name": "startedAt",
          "type": "uint256"
        },
        {
          "internalType": "bool",
          "name": "isActive",
          "type": "bool"
        }
      ],
      "stateMutability": "view",
      "type": "function"
    },
    {
      "inputs": [
        {
          "internalType": "address",
          "name": "",
          "type": "address"
        }
      ],
      "name": "access_list",
      "outputs": [
        {
          "internalType": "bool",
          "name": "",
          "type": "bool"
        }
      ],
      "stateMutability": "view",
      "type": "function"
    },
    {
      "inputs": [
        {
          "internalType": "string",
          "name": "_name",
          "type": "string"
        },
        {
          "internalType": "string",
          "name": "_description",
          "type": "string"
        },
        {
          "internalType": "address",
          "name": "_contract_address",
          "type": "address"
        },
        {
          "internalType": "string",
          "name": "_chain",
          "type": "string"
        },
        {
          "internalType": "string",
          "name": "_website_link",
          "type": "string"
        },
        {
          "internalType": "string",
          "name": "_telegram_link",
          "type": "string"
        },
        {
          "internalType": "string",
          "name": "_twitter_link",
          "type": "string"
        },
        {
          "internalType": "string",
          "name": "_discord_link",
          "type": "string"
        },
        {
          "internalType": "string",
          "name": "_linktree",
          "type": "string"
        }
      ],
      "name": "addProject",
      "outputs": [],
      "stateMutability": "nonpayable",
      "type": "function"
    },
    {
      "inputs": [
        {
          "internalType": "address",
          "name": "user",
          "type": "address"
        }
      ],
      "name": "addVerification",
      "outputs": [],
      "stateMutability": "nonpayable",
      "type": "function"
    },
    {
      "inputs": [
        {
          "internalType": "address",
          "name": "ca",
          "type": "address"
        },
        {
          "internalType": "address",
          "name": "user",
          "type": "address"
        }
      ],
      "name": "checkIfProjectIsHoneyPot",
      "outputs": [
        {
          "internalType": "bool",
          "name": "",
          "type": "bool"
        }
      ],
      "stateMutability": "view",
      "type": "function"
    },
    {
      "inputs": [
        {
          "internalType": "address",
          "name": "ca",
          "type": "address"
        },
        {
          "internalType": "address",
          "name": "user",
          "type": "address"
        }
      ],
      "name": "checkIfProjectIsRugged",
      "outputs": [
        {
          "internalType": "bool",
          "name": "",
          "type": "bool"
        }
      ],
      "stateMutability": "view",
      "type": "function"
    },
    {
      "inputs": [
        {
          "internalType": "string",
          "name": "_name",
          "type": "string"
        },
        {
          "internalType": "string",
          "name": "_description",
          "type": "string"
        },
        {
          "internalType": "bool",
          "name": "_dev",
          "type": "bool"
        },
        {
          "internalType": "string",
          "name": "_email",
          "type": "string"
        },
        {
          "internalType": "string",
          "name": "_age",
          "type": "string"
        },
        {
          "internalType": "string",
          "name": "phone",
          "type": "string"
        },
        {
          "internalType": "string",
          "name": "_country",
          "type": "string"
        },
        {
          "internalType": "string",
          "name": "_state",
          "type": "string"
        },
        {
          "internalType": "string",
          "name": "_address",
          "type": "string"
        },
        {
          "internalType": "string[]",
          "name": "urls",
          "type": "string[]"
        },
        {
          "internalType": "uint256",
          "name": "number",
          "type": "uint256"
        }
      ],
      "name": "createProfile",
      "outputs": [],
      "stateMutability": "nonpayable",
      "type": "function"
    },
    {
      "inputs": [
        {
          "internalType": "address",
          "name": "user",
          "type": "address"
        }
      ],
      "name": "getAge",
      "outputs": [
        {
          "internalType": "string",
          "name": "",
          "type": "string"
        }
      ],
      "stateMutability": "view",
      "type": "function"
    },
    {
      "inputs": [
        {
          "internalType": "address",
          "name": "user",
          "type": "address"
        }
      ],
      "name": "getCountry",
      "outputs": [
        {
          "internalType": "string",
          "name": "",
          "type": "string"
        }
      ],
      "stateMutability": "view",
      "type": "function"
    },
    {
      "inputs": [
        {
          "internalType": "address",
          "name": "user",
          "type": "address"
        }
      ],
      "name": "getDescription",
      "outputs": [
        {
          "internalType": "string",
          "name": "",
          "type": "string"
        }
      ],
      "stateMutability": "view",
      "type": "function"
    },
    {
      "inputs": [
        {
          "internalType": "address",
          "name": "user",
          "type": "address"
        }
      ],
      "name": "getEmail",
      "outputs": [
        {
          "internalType": "string",
          "name": "",
          "type": "string"
        }
      ],
      "stateMutability": "view",
      "type": "function"
    },
    {
      "inputs": [
        {
          "internalType": "address",
          "name": "user",
          "type": "address"
        }
      ],
      "name": "getIDBotNumber",
      "outputs": [
        {
          "internalType": "uint256",
          "name": "",
          "type": "uint256"
        }
      ],
      "stateMutability": "view",
      "type": "function"
    },
    {
      "inputs": [
        {
          "internalType": "address",
          "name": "user",
          "type": "address"
        }
      ],
      "name": "getIdentityUrl",
      "outputs": [
        {
          "internalType": "string",
          "name": "",
          "type": "string"
        }
      ],
      "stateMutability": "view",
      "type": "function"
    },
    {
      "inputs": [
        {
          "internalType": "address",
          "name": "user",
          "type": "address"
        }
      ],
      "name": "getName",
      "outputs": [
        {
          "internalType": "string",
          "name": "",
          "type": "string"
        }
      ],
      "stateMutability": "view",
      "type": "function"
    },
    {
      "inputs": [
        {
          "internalType": "address",
          "name": "user",
          "type": "address"
        }
      ],
      "name": "getPhoneNumber",
      "outputs": [
        {
          "internalType": "string",
          "name": "",
          "type": "string"
        }
      ],
      "stateMutability": "view",
      "type": "function"
    },
    {
      "inputs": [
        {
          "internalType": "address",
          "name": "user",
          "type": "address"
        }
      ],
      "name": "getProfilePicUrl",
      "outputs": [
        {
          "internalType": "string",
          "name": "",
          "type": "string"
        }
      ],
      "stateMutability": "view",
      "type": "function"
    },
    {
      "inputs": [],
      "name": "getProfiles",
      "outputs": [
        {
          "components": [
            {
              "internalType": "address",
              "name": "user",
              "type": "address"
            },
            {
              "internalType": "uint256",
              "name": "idbot_number",
              "type": "uint256"
            },
            {
              "internalType": "string",
              "name": "name",
              "type": "string"
            },
            {
              "internalType": "string",
              "name": "description",
              "type": "string"
            },
            {
              "internalType": "bool",
              "name": "dev",
              "type": "bool"
            },
            {
              "internalType": "string",
              "name": "email",
              "type": "string"
            },
            {
              "internalType": "string",
              "name": "age",
              "type": "string"
            },
            {
              "internalType": "string",
              "name": "phone_number",
              "type": "string"
            },
            {
              "internalType": "string",
              "name": "country",
              "type": "string"
            },
            {
              "internalType": "string",
              "name": "state",
              "type": "string"
            },
            {
              "internalType": "string",
              "name": "residential_address",
              "type": "string"
            },
            {
              "internalType": "string",
              "name": "profile_pic_url",
              "type": "string"
            },
            {
              "internalType": "string",
              "name": "identity_url",
              "type": "string"
            },
            {
              "internalType": "uint256",
              "name": "reputation_score",
              "type": "uint256"
            },
            {
              "internalType": "string",
              "name": "verification_status",
              "type": "string"
            },
            {
              "internalType": "bool",
              "name": "verified",
              "type": "bool"
            },
            {
              "components": [
                {
                  "internalType": "string",
                  "name": "name",
                  "type": "string"
                },
                {
                  "internalType": "string",
                  "name": "description",
                  "type": "string"
                },
                {
                  "internalType": "address",
                  "name": "contract_address",
                  "type": "address"
                },
                {
                  "internalType": "string",
                  "name": "chain",
                  "type": "string"
                },
                {
                  "internalType": "string",
                  "name": "website_link",
                  "type": "string"
                },
                {
                  "internalType": "string",
                  "name": "telegram_link",
                  "type": "string"
                },
                {
                  "internalType": "string",
                  "name": "twitter_link",
                  "type": "string"
                },
                {
                  "internalType": "string",
                  "name": "discord_link",
                  "type": "string"
                },
                {
                  "internalType": "string",
                  "name": "linktree",
                  "type": "string"
                },
                {
                  "internalType": "bool",
                  "name": "isHoneyPot",
                  "type": "bool"
                },
                {
                  "internalType": "bool",
                  "name": "isRugged",
                  "type": "bool"
                },
                {
                  "internalType": "uint256",
                  "name": "reputation_score",
                  "type": "uint256"
                }
              ],
              "internalType": "struct IDBot.Project[]",
              "name": "projects",
              "type": "tuple[]"
            }
          ],
          "internalType": "struct IDBot.Profile[]",
          "name": "",
          "type": "tuple[]"
        }
      ],
      "stateMutability": "view",
      "type": "function"
    },
    {
      "inputs": [
        {
          "internalType": "address",
          "name": "ca",
          "type": "address"
        },
        {
          "internalType": "address",
          "name": "user",
          "type": "address"
        }
      ],
      "name": "getProjectContractAddress",
      "outputs": [
        {
          "internalType": "address",
          "name": "",
          "type": "address"
        }
      ],
      "stateMutability": "view",
      "type": "function"
    },
    {
      "inputs": [
        {
          "internalType": "address",
          "name": "ca",
          "type": "address"
        },
        {
          "internalType": "address",
          "name": "user",
          "type": "address"
        }
      ],
      "name": "getProjectDescription",
      "outputs": [
        {
          "internalType": "string",
          "name": "",
          "type": "string"
        }
      ],
      "stateMutability": "view",
      "type": "function"
    },
    {
      "inputs": [
        {
          "internalType": "address",
          "name": "ca",
          "type": "address"
        },
        {
          "internalType": "address",
          "name": "user",
          "type": "address"
        }
      ],
      "name": "getProjectLinks",
      "outputs": [
        {
          "internalType": "string[5]",
          "name": "",
          "type": "string[5]"
        }
      ],
      "stateMutability": "view",
      "type": "function"
    },
    {
      "inputs": [
        {
          "internalType": "address",
          "name": "ca",
          "type": "address"
        },
        {
          "internalType": "address",
          "name": "user",
          "type": "address"
        }
      ],
      "name": "getProjectName",
      "outputs": [
        {
          "internalType": "string",
          "name": "",
          "type": "string"
        }
      ],
      "stateMutability": "view",
      "type": "function"
    },
    {
      "inputs": [
        {
          "internalType": "address",
          "name": "ca",
          "type": "address"
        },
        {
          "internalType": "address",
          "name": "user",
          "type": "address"
        }
      ],
      "name": "getProjectReputationScore",
      "outputs": [
        {
          "internalType": "uint256",
          "name": "",
          "type": "uint256"
        }
      ],
      "stateMutability": "view",
      "type": "function"
    },
    {
      "inputs": [
        {
          "internalType": "address",
          "name": "user",
          "type": "address"
        }
      ],
      "name": "getProjects",
      "outputs": [
        {
          "components": [
            {
              "internalType": "string",
              "name": "name",
              "type": "string"
            },
            {
              "internalType": "string",
              "name": "description",
              "type": "string"
            },
            {
              "internalType": "address",
              "name": "contract_address",
              "type": "address"
            },
            {
              "internalType": "string",
              "name": "chain",
              "type": "string"
            },
            {
              "internalType": "string",
              "name": "website_link",
              "type": "string"
            },
            {
              "internalType": "string",
              "name": "telegram_link",
              "type": "string"
            },
            {
              "internalType": "string",
              "name": "twitter_link",
              "type": "string"
            },
            {
              "internalType": "string",
              "name": "discord_link",
              "type": "string"
            },
            {
              "internalType": "string",
              "name": "linktree",
              "type": "string"
            },
            {
              "internalType": "bool",
              "name": "isHoneyPot",
              "type": "bool"
            },
            {
              "internalType": "bool",
              "name": "isRugged",
              "type": "bool"
            },
            {
              "internalType": "uint256",
              "name": "reputation_score",
              "type": "uint256"
            }
          ],
          "internalType": "struct IDBot.Project[]",
          "name": "",
          "type": "tuple[]"
        }
      ],
      "stateMutability": "view",
      "type": "function"
    },
    {
      "inputs": [
        {
          "internalType": "address",
          "name": "user",
          "type": "address"
        }
      ],
      "name": "getReputationScore",
      "outputs": [
        {
          "internalType": "uint256",
          "name": "",
          "type": "uint256"
        }
      ],
      "stateMutability": "view",
      "type": "function"
    },
    {
      "inputs": [
        {
          "internalType": "address",
          "name": "user",
          "type": "address"
        }
      ],
      "name": "getResidentialAddress",
      "outputs": [
        {
          "internalType": "string",
          "name": "",
          "type": "string"
        }
      ],
      "stateMutability": "view",
      "type": "function"
    },
    {
      "inputs": [
        {
          "internalType": "address",
          "name": "user",
          "type": "address"
        }
      ],
      "name": "getState",
      "outputs": [
        {
          "internalType": "string",
          "name": "",
          "type": "string"
        }
      ],
      "stateMutability": "view",
      "type": "function"
    },
    {
      "inputs": [
        {
          "internalType": "uint256",
          "name": "idbot_number",
          "type": "uint256"
        }
      ],
      "name": "getUser",
      "outputs": [
        {
          "internalType": "address",
          "name": "",
          "type": "address"
        }
      ],
      "stateMutability": "view",
      "type": "function"
    },
    {
      "inputs": [
        {
          "internalType": "address",
          "name": "user",
          "type": "address"
        }
      ],
      "name": "getVerificationStatus",
      "outputs": [
        {
          "internalType": "string",
          "name": "",
          "type": "string"
        }
      ],
      "stateMutability": "view",
      "type": "function"
    },
    {
      "inputs": [
        {
          "internalType": "address",
          "name": "user",
          "type": "address"
        }
      ],
      "name": "isDev",
      "outputs": [
        {
          "internalType": "bool",
          "name": "",
          "type": "bool"
        }
      ],
      "stateMutability": "view",
      "type": "function"
    },
    {
      "inputs": [
        {
          "internalType": "address",
          "name": "",
          "type": "address"
        }
      ],
      "name": "isProfiled",
      "outputs": [
        {
          "internalType": "bool",
          "name": "",
          "type": "bool"
        }
      ],
      "stateMutability": "view",
      "type": "function"
    },
    {
      "inputs": [
        {
          "internalType": "address",
          "name": "_user",
          "type": "address"
        }
      ],
      "name": "isSubscribed",
      "outputs": [
        {
          "internalType": "bool",
          "name": "subscribed",
          "type": "bool"
        }
      ],
      "stateMutability": "view",
      "type": "function"
    },
    {
      "inputs": [],
      "name": "owner",
      "outputs": [
        {
          "internalType": "address",
          "name": "",
          "type": "address"
        }
      ],
      "stateMutability": "view",
      "type": "function"
    },
    {
      "inputs": [
        {
          "internalType": "address",
          "name": "user",
          "type": "address"
        }
      ],
      "name": "removeVerification",
      "outputs": [],
      "stateMutability": "nonpayable",
      "type": "function"
    },
    {
      "inputs": [
        {
          "internalType": "address",
          "name": "ca",
          "type": "address"
        },
        {
          "internalType": "address",
          "name": "user",
          "type": "address"
        }
      ],
      "name": "reportProjectIsHoneyPot",
      "outputs": [],
      "stateMutability": "nonpayable",
      "type": "function"
    },
    {
      "inputs": [
        {
          "internalType": "address",
          "name": "ca",
          "type": "address"
        },
        {
          "internalType": "address",
          "name": "user",
          "type": "address"
        }
      ],
      "name": "reportProjectIsRugged",
      "outputs": [],
      "stateMutability": "nonpayable",
      "type": "function"
    },
    {
      "inputs": [
        {
          "internalType": "uint256",
          "name": "_duration",
          "type": "uint256"
        }
      ],
      "name": "subscribe",
      "outputs": [],
      "stateMutability": "payable",
      "type": "function"
    },
    {
      "inputs": [
        {
          "internalType": "address",
          "name": "",
          "type": "address"
        }
      ],
      "name": "subscribers",
      "outputs": [
        {
          "internalType": "address",
          "name": "user",
          "type": "address"
        },
        {
          "internalType": "uint256",
          "name": "duration",
          "type": "uint256"
        },
        {
          "internalType": "uint256",
          "name": "startedAt",
          "type": "uint256"
        },
        {
          "internalType": "bool",
          "name": "isActive",
          "type": "bool"
        }
      ],
      "stateMutability": "view",
      "type": "function"
    },
    {
      "inputs": [],
      "name": "unsubscribe",
      "outputs": [],
      "stateMutability": "nonpayable",
      "type": "function"
    },
    {
      "inputs": [
        {
          "internalType": "uint256",
          "name": "_duration",
          "type": "uint256"
        }
      ],
      "name": "updateSubscription",
      "outputs": [],
      "stateMutability": "payable",
      "type": "function"
    }
  ],
  "bytecode": "0x6080806040523461004057600080546001600160a01b0319163390811782558152600760205260409020805460ff1916600117905561348890816100468239f35b600080fdfe6080604052600436101561001257600080fd5b60003560e01c80630c3f64bf146119c65780630e6db736146119875780630f574ba7146118775780631bab58f514611820578063252c158f146117c95780632d1ce2ae1461176a57806338451598146117135780633a63b9e614611627578063482d8ac7146115c65780634fa7353c1461156f57806353dae176146114d25780635745ae28146114585780635fd4b08a146114015780636103681a146113c4578063615f927e146113a357806375a67d5c1461134c57806381a36eec1461133557806384329ec5146112de5780638da5cb5b146112b55780638e716d35146112765780639bbfa3851461120b578063a41e095d146111a0578063b0467deb1461116c578063b213703314610e14578063b255055914610bf1578063b4b1d9c714610b9a578063b92ae87c14610b6d578063b9e426e814610b16578063bbae994614610a07578063cddd9312146109dc578063d6b5d05e14610985578063d821f92d1461092e578063dee138e914610847578063e17fc1b51461045b578063ef45ccab14610406578063f7d139cb14610362578063fcae448414610291578063fe2e027d1461022a5763fecf696d146101c957600080fd5b346102255760403660031901126102255760206101406102196101ea611a22565b6101f2611a38565b9060018060a01b0382166000526007855261021460ff604060002054166132f3565b613370565b01511515604051908152f35b600080fd5b3461022557602036600319011261022557610243611a22565b6000546001600160a01b03919061025d9083163314611ceb565b16600052600360205261028d610279600c604060002001611d63565b604051918291602083526020830190611a4e565b0390f35b34610225576000366003190112610225576000546001600160a01b03906102bb9082163314611ceb565b60005b6002908154811015610360576102d381611a8e565b509182015442039142831161034a576001818101546103079462015180900410159081610337575b5061030c575b506131ce565b6102be565b83600382019160ff199283815416905554166000526007602052604060002090815416905583610301565b905060ff600383015416151514856102fb565b634e487b7160e01b600052601160045260246000fd5b005b34610225576020366003190112610225577fbf40ed975ac04192dc3c221b21155d52ba4322b78f63a7bd22c828bf2d3f6c8c602061039e611a22565b6000546001600160a01b0391906103b89083163314611ceb565b168060005260038252600f6040600020600e81016103df6103d98254611d29565b82611f52565b60186b139bdd0815995c9a599a595960a21b01905501805460ff19169055604051908152a1005b34610225576040366003190112610225576020610421611a22565b604061045061042e611a38565b60018060a01b03938482166000526007865261021460ff8560002054166132f3565b015116604051908152f35b3461022557610160366003190112610225576004356001600160401b0381116102255761048c903690600401611c8d565b6024356001600160401b038111610225576104ab903690600401611c8d565b90604435918215158303610225576064356001600160401b038111610225576104d8903690600401611c8d565b6084356001600160401b038111610225576104f7903690600401611c8d565b60a4356001600160401b03811161022557610516903690600401611c8d565b60c4356001600160401b03811161022557610535903690600401611c8d565b60e4356001600160401b03811161022557610554903690600401611c8d565b91610104356001600160401b03811161022557610575903690600401611c8d565b936001600160401b0361012435116102255736602361012435011215610225576105a56101243560040135611cd4565b956105b36040519788611c51565b6101243560040135875260208701998a366024610124356004013560051b610124350101116102255760246101243501905b6024610124356004013560051b610124350101821061081657505033600052600560205260ff604060002054166107d1576106234261014435611f2e565b9a8851156107a55751978051600110156107a55760400151986040519a6106498c611c19565b338c528c60208d015260408c015260608b0152151560808a015260a089015260c088015260e087015261010086015261012085015261014084015261016083015261018082015260006101a0820152604051604081018181106001600160401b038211176107bb57604052600781526650656e64696e6760c81b60208201526101c082015260006101e0820152606061020082015260015490600160401b8210156107bb5760018201806001558210156107a55761073481601161075e946001600052027fb10e2d527612073b26eecdfd717e6a320cf44b4afac2b0732d9fcbe2b7fa0cf601612691565b33600052600360205261074b816040600020612691565b8260005260046020526040600020612691565b3360005260056020526040600020600160ff198254161790556040519081527fe4389ab9c67cce68e65561d8fc2fabf4d88b4c66a0874e1b7980682de416818960203392a2005b634e487b7160e01b600052603260045260246000fd5b634e487b7160e01b600052604160045260246000fd5b60405162461bcd60e51b815260206004820152601c60248201527f596f7520616c7265616479206861766520616e206163636f756e742e000000006044820152606490fd5b6001600160401b03823511610225576020809161083c3660248635610124350101611c8d565b8152019101906105e5565b3461022557604036600319011261022557610860611a22565b6001600160a01b0380610871611a38565b1680600052600760205260ff9061088e82604060002054166132f3565b6000526003602052604060002092600083601086019216905b825481101561036057818560026108bd8661335b565b50015416146108d5575b6108d0906131ce565b6108a7565b600a6108e08461335b565b506009810180548781161561091e575b5050018054600019929183820191821161034a5755600d870191825490810190811161034a579091556108c7565b60ff1916600117905588806108f0565b34610225576020366003190112610225576001600160a01b0361094f611a22565b1680600052600760205261096a60ff604060002054166132f3565b600052600360205261028d6102796008604060002001611d63565b34610225576020366003190112610225576001600160a01b036109a6611a22565b168060005260076020526109c160ff604060002054166132f3565b600052600360205261028d610279600a604060002001611d63565b346102255760403660031901126102255760206101606109fd6101ea611a22565b0151604051908152f35b3461022557604036600319011261022557610a20611a22565b610a28611a38565b60405160a0916001600160401b0391838101838111828210176107bb5760405260005b848110610b08575050610a7c9060018060a01b0381166000526020946007865261021460ff604060002054166132f3565b60405192808401928311848410176107bb5761010092604052608082015184528101518484015260c0810151604084015260e08101516060840152015160808201526040519082820183835260c0830191906000945b60058610610ae05784840385f35b9091928180610afb600193601f198982030187528751611a4e565b9501930195019490610ad2565b606082820152602001610a4b565b34610225576020366003190112610225576001600160a01b03610b37611a22565b16806000526007602052610b5260ff604060002054166132f3565b600052600360205261028d610279600b604060002001611d63565b34610225576020366003190112610225576020610b90610b8b611a22565b6131dd565b6040519015158152f35b34610225576020366003190112610225576001600160a01b03610bbb611a22565b16806000526007602052610bd660ff604060002054166132f3565b600052600360205261028d6102796003604060002001611d63565b346102255761012080600319360112610225576001600160401b0360043581811161022557610c24903690600401611c8d565b60243582811161022557610c3c903690600401611c8d565b6044356001600160a01b03811694908590036102255760643584811161022557610c6a903690600401611c8d565b60843585811161022557610c82903690600401611c8d565b9160a43586811161022557610c9b903690600401611c8d565b9560c43581811161022557610cb4903690600401611c8d565b9060e43581811161022557610ccd903690600401611c8d565b906101043590811161022557610ce7903690600401611c8d565b913360005260209860038a5260406000209660ff600f8901541615610ddf57906000959493929160108901976040519a610d208c611c35565b8c8c528d8c01528d60408c015260608b015260808a015260a089015260c088015260e087015261010086015284015260006101408401526064610160840152805492600160401b8410156107bb57600184018083558410156107a557600d93610d9492600052600b87600020910201612008565b019182546064810180911161034a577f3f59d974cb323c784e37c2bf72b6b6f11983b4d23545adf73f81b553873a539c9355610dda604051928284938452830190611a4e565b0390a2005b60405162461bcd60e51b8152600481018c9052600d60248201526c2737ba103b32b934b334b2b21760991b6044820152606490fd5b34610225576000366003190112610225576000546001600160a01b0390610e3e9082163314611ceb565b600190815491610e4d83611cd4565b91610e5b6040519384611c51565b8383526020928381019485846000527fb10e2d527612073b26eecdfd717e6a320cf44b4afac2b0732d9fcbe2b7fa0cf66000915b8383106110365750505050604051938085019181865251809252604085019260408360051b87010196936000915b848310610eca5787890388f35b9091929394958480611024839b603f198c82030187528a518681511682528381015184830152611003610fe4610fd0610fbc610fa8610f94610f80610f6e610f5b610f3c610f2860408c01518d610220908160408201520190611a4e565b8b8d60608092015191818403910152611a4e565b6080808c01511515908d015260a08c818d015191818403910152611a4e565b60c0808b0151908c8303908d0152611a4e565b60e08901518a820360e08c0152611a4e565b61010080890151908a8303908b0152611a4e565b6101208088015190898303908a0152611a4e565b610140808701519088830390890152611a4e565b610160808601519087830390880152611a4e565b610180808501519086830390870152611a4e565b6101a080840151908501526101c0808401519085830390860152611a4e565b916101e0808301511515908201526102008092015191818403910152611ac8565b9a980196959491909101920190610ebd565b95601188829a9860409a97989a5161104d81611c19565b8b8654168152848601548382015261106760028701611d63565b604082015261107860038701611d63565b606082015260ff806004880154161515608083015261109960058801611d63565b60a08301526110aa60068801611d63565b60c08301526110bb60078801611d63565b60e08301526110cc60088801611d63565b6101008301526110de60098801611d63565b6101208301526110f0600a8801611d63565b610140830152611102600b8801611d63565b610160830152611114600c8801611d63565b610180830152600d8701546101a0830152611131600e8801611d63565b6101c0830152600f8701541615156101e082015261115160108701611ed8565b61020082015281520192019201919097959796949396610e8f565b34610225576020366003190112610225576004356000526004602052602060018060a01b0360406000205416604051908152f35b34610225576020366003190112610225576001600160a01b036111c1611a22565b168060005260076020526111dc60ff604060002054166132f3565b600052600360205261028d6111f76010604060002001611ed8565b604051918291602083526020830190611ac8565b34610225576020366003190112610225576004356002548110156102255761123290611a8e565b50805460018201546002830154600390930154604080516001600160a01b03909416845260208401929092529082019290925260ff90911615156060820152608090f35b34610225576020366003190112610225576001600160a01b03611297611a22565b166000526007602052602060ff604060002054166040519015158152f35b34610225576000366003190112610225576000546040516001600160a01b039091168152602090f35b34610225576020366003190112610225576001600160a01b036112ff611a22565b1680600052600760205261131a60ff604060002054166132f3565b60005260036020526020600160406000200154604051908152f35b60203660031901126102255761036060043561323b565b34610225576020366003190112610225576001600160a01b0361136d611a22565b1680600052600760205261138860ff604060002054166132f3565b60005260036020526020600d60406000200154604051908152f35b346102255760403660031901126102255760206101206102196101ea611a22565b34610225576020366003190112610225576001600160a01b036113e5611a22565b16600052600360205261028d610279600e604060002001611d63565b34610225576020366003190112610225576001600160a01b03611422611a22565b1680600052600760205261143d60ff604060002054166132f3565b600052600360205261028d6102796002604060002001611d63565b34610225576020366003190112610225576001600160a01b038061147a611a22565b16600052600660205260406000209081541661028d60018301549260ff600360028301549201541690604051948594859260609295949195608085019660018060a01b03168552602085015260408401521515910152565b34610225576020366003190112610225577f6a6455914f452787eb3985452aceedc1000fb545e394eb3b370e3d08958e0a5b602061150e611a22565b6000546001600160a01b0391906115289083163314611ceb565b168060005260038252600f6040600020600e81016115496103d98254611d29565b60106715995c9a599a595960c21b01905501805460ff19166001179055604051908152a1005b34610225576020366003190112610225576001600160a01b03611590611a22565b168060005260076020526115ab60ff604060002054166132f3565b600052600360205261028d6102796005604060002001611d63565b346102255760403660031901126102255761028d60206116116115e7611a22565b6115ef611a38565b9060018060a01b0382166000526007845261021460ff604060002054166132f3565b0151604051918291602083526020830190611a4e565b3461022557604036600319011261022557611640611a22565b6001600160a01b0380611651611a38565b1680600052600760205260ff9061166e82604060002054166132f3565b6000526003602052604060002092600083601086019216905b8254811015610360578185600261169d8661335b565b50015416146116b5575b6116b0906131ce565b611687565b600a6116c08461335b565b50600981018054878160081c1615611701575b5050018054600019929183820191821161034a5755600d870191825490810190811161034a579091556116a7565b61ff00191661010017905588806116d3565b34610225576020366003190112610225576001600160a01b03611734611a22565b1680600052600760205261174f60ff604060002054166132f3565b600052600360205261028d6102796006604060002001611d63565b346102255760403660031901126102255761028d6117b4611789611a22565b611791611a38565b9060018060a01b038216600052600760205261021460ff604060002054166132f3565b51604051918291602083526020830190611a4e565b34610225576020366003190112610225576001600160a01b036117ea611a22565b1680600052600760205261180560ff604060002054166132f3565b600052600360205261028d6102796007604060002001611d63565b34610225576020366003190112610225576001600160a01b03611841611a22565b1680600052600760205261185c60ff604060002054166132f3565b600052600360205261028d6102796009604060002001611d63565b60203660031901126102255760043561188f336131dd565b1561189d576103609061323b565b6040516118a981611bfe565b338152816020820152426040820152600160608201523360005260076020526040600020600160ff19825416179055600254600160401b8110156107bb578060016118f79201600255611a8e565b9190916119715761190b8161191e9361314b565b336000526006602052604060002061314b565b6040519081527f4b90d6788928d63c1821907a6a8b95f40d26562d8fe41b105f7489db9966dfcb60203392a26000805481908190819034906001600160a01b03165af161196961319e565b501561022557005b634e487b7160e01b600052600060045260246000fd5b34610225576020366003190112610225576001600160a01b036119a8611a22565b166000526005602052602060ff604060002054166040519015158152f35b34610225576020366003190112610225576001600160a01b036119e7611a22565b16806000526007602052611a0260ff604060002054166132f3565b6000526003602052602060ff600460406000200154166040519015158152f35b600435906001600160a01b038216820361022557565b602435906001600160a01b038216820361022557565b919082519283825260005b848110611a7a575050826000602080949584010152601f8019910116010190565b602081830181015184830182015201611a59565b6002548110156107a557600260005260021b7f405787fa12a823e0f2b7631cc41b3ba8828b3321ca811111fa75cd3aa3bb5ace0190600090565b908082519081815260208091019281808460051b8301019501936000915b848310611af65750505050505090565b9091929394958480600192601f19858203018652895190611bc9611bb5611ba2611b8f611b7c611b69611b45611b358951610180808b528a0190611a4e565b8a8a01518982038c8b0152611a4e565b60408c8060a01b03818b015116908901526060808a015190898303908a0152611a4e565b6080808901519088830390890152611a4e565b60a0808801519087830390880152611a4e565b60c0808701519086830390870152611a4e565b60e0808601519085830390860152611a4e565b610100808501519084830390850152611a4e565b916101208082015115159083015261014080820151151590830152610160809101519101529801930193019194939290611ae6565b608081019081106001600160401b038211176107bb57604052565b61022081019081106001600160401b038211176107bb57604052565b61018081019081106001600160401b038211176107bb57604052565b90601f801991011681019081106001600160401b038211176107bb57604052565b6001600160401b0381116107bb57601f01601f191660200190565b81601f8201121561022557803590611ca482611c72565b92611cb26040519485611c51565b8284526020838301011161022557816000926020809301838601378301015290565b6001600160401b0381116107bb5760051b60200190565b15611cf257565b60405162461bcd60e51b815260206004820152600f60248201526e2737ba1020baba3437b934bd32b21760891b6044820152606490fd5b90600182811c92168015611d59575b6020831014611d4357565b634e487b7160e01b600052602260045260246000fd5b91607f1691611d38565b9060405191826000825492611d7784611d29565b908184526001948581169081600014611de65750600114611da3575b5050611da192500383611c51565b565b9093915060005260209081600020936000915b818310611dce575050611da193508201013880611d93565b85548884018501529485019487945091830191611db6565b915050611da194506020925060ff191682840152151560051b8201013880611d93565b90604051611e1681611c35565b610160600a8294611e2681611d63565b8452611e3460018201611d63565b602085015260028101546001600160a01b03166040850152611e5860038201611d63565b6060850152611e6960048201611d63565b6080850152611e7a60058201611d63565b60a0850152611e8b60068201611d63565b60c0850152611e9c60078201611d63565b60e0850152611ead60088201611d63565b61010085015260ff6009820154818116151561012087015260081c1615156101408501520154910152565b908154611ee481611cd4565b92611ef26040519485611c51565b818452600090815260208082208186015b848410611f11575050505050565b600b83600192611f2085611e09565b815201920193019290611f03565b9190820180921161034a57565b818110611f46575050565b60008155600101611f3b565b90601f8111611f5f575050565b611da191600052601f6020600020910160051c810190611f3b565b9190601f8111611f8957505050565b611da1926000526020600020906020601f840160051c83019310611fb5575b601f0160051c0190611f3b565b9091508190611fa8565b611fc98154611d29565b9081611fd3575050565b81601f60009311600114611fe5575055565b908083918252612004601f60208420940160051c840160018501611f3b565b5555565b90805180516001600160401b03908181116107bb576120318161202b8754611d29565b87611f7a565b806020601f9485831160011461262c57600092612621575b50508160011b916000199060031b1c19161784555b600180850160208501518051908482116107bb578190612088826120828654611d29565b86611f7a565b6020908783116001146125be576000926125b3575b5050600019600383901b1c191690831b1790555b6002850160018060a01b036040860151166bffffffffffffffffffffffff60a01b82541617905560039081860160608601518051908582116107bb5781906120fd826120828654611d29565b60209088831160011461255157600092612546575b505060001982861b1c191690831b1790555b60049384870160808701518051908682116123ea578190612149826120828654611d29565b6020908583116001146124e4576000926124d9575b505060001982871b1c191690841b1790555b6005870160a08701518051908682116123ea578190612193826120828654611d29565b6020908583116001146124775760009261246c575b505060001982871b1c191690841b1790555b6006870160c08701518051908682116123ea5781906121dd826120828654611d29565b60209085831160011461240a576000926123ff575b505060001982871b1c191690841b1790555b6007870160e08701518051908682116123ea578190612227826120828654611d29565b6020908583116001146123885760009261237d575b505060001982871b1c191690841b1790555b60088701946101008701519081519586116123685750612278856122728854611d29565b88611f7a565b60209185116001146122f75792848093600a98969361016098966000956122ec575b50501b92600019911b1c19161790555b600984016122cb6101208301511515829060ff801983541691151516179055565b610140820151815461ff00191690151560081b61ff00161790550151910155565b01519350388061229a565b91939290601f1984169286600052816000209360005b8181106123525750918593916101609896600a9a98969410612338575b50505050811b0190556122aa565b01519060f884600019921b161c191690553880808061232a565b828401518655948701946020938401930161230d565b604190634e487b7160e01b6000525260246000fd5b01519050388061223c565b90869350601f1983169185600052816000209260005b8181106123d2575084116123ba575b505050811b01905561224e565b015160001983891b60f8161c191690553880806123ad565b8284015185558996909401936020938401930161239e565b604188634e487b7160e01b6000525260246000fd5b0151905038806121f2565b90869350601f1983169185600052816000209260005b8181106124545750841161243c575b505050811b019055612204565b015160001983891b60f8161c1916905538808061242f565b82840151855589969094019360209384019301612420565b0151905038806121a8565b90869350601f1983169185600052816000209260005b8181106124c1575084116124a9575b505050811b0190556121ba565b015160001983891b60f8161c1916905538808061249c565b8284015185558996909401936020938401930161248d565b01519050388061215e565b90869350601f1983169185600052816000209260005b81811061252e57508411612516575b505050811b019055612170565b015160001983891b60f8161c19169055388080612509565b828401518555899690940193602093840193016124fa565b015190503880612112565b90859350601f1983169185600052816000209260005b81811061259b57508411612583575b505050811b019055612124565b015160001983881b60f8161c19169055388080612576565b82840151855588969094019360209384019301612567565b01519050388061209d565b90859350601f1983169185600052816000209260005b818110612609575084116125f0575b505050811b0190556120b1565b015160001960f88460031b161c191690553880806125e3565b828401518555889690940193602093840193016125d4565b015190503880612049565b60008881528281209350601f198516905b8181106126795750908460019594939210612660575b505050811b01845561205e565b015160001960f88460031b161c19169055388080612653565b9293602060018192878601518155019501930161263d565b815181546001600160a01b0319166001600160a01b0391909116178155602082015160018201556040820151805192939260028301916001600160401b0382116107bb5781906126e5826120828654611d29565b602090601f83116001146130e5576000926130da575b50508160011b916000199060031b1c19161790555b6003810160608401518051906001600160401b0382116107bb57819061273a826120828654611d29565b602090601f831160011461307457600092613069575b50508160011b916000199060031b1c19161790555b61278460808401511515600483019060ff801983541691151516179055565b6005810160a08401518051906001600160401b0382116107bb5781906127ae826120828654611d29565b602090601f831160011461300357600092612ff8575b50508160011b916000199060031b1c19161790555b6006810160c08401518051906001600160401b0382116107bb578190612803826120828654611d29565b602090601f8311600114612f9257600092612f87575b50508160011b916000199060031b1c19161790555b60e08301519283516001600160401b0381116107bb5761285e816128556007860154611d29565b60078601611f7a565b6020601f8211600114612f18578192939495600092612f0d575b50508160011b916000199060031b1c19161760078301555b6101008101519283516001600160401b0381116107bb576128c1816128b86008870154611d29565b60088701611f7a565b6020601f8211600114612e9e578192939495600092612e93575b50508160011b916000199060031b1c19161760088401555b6101208201519283516001600160401b0381116107bb576129248161291b6009850154611d29565b60098501611f7a565b6020601f8211600114612e24578192939495600092612e19575b50508160011b916000199060031b1c19161760098201555b6101408301519283516001600160401b0381116107bb576129878161297e600a860154611d29565b600a8601611f7a565b6020601f8211600114612daa578192939495600092612d9f575b50508160011b916000199060031b1c191617600a8301555b6101608101519283516001600160401b0381116107bb576129ea816129e1600b870154611d29565b600b8701611f7a565b6020601f8211600114612d30578192939495600092612d25575b50508160011b916000199060031b1c191617600b8401555b6101808201519283516001600160401b0381116107bb57612a4d81612a44600c850154611d29565b600c8501611f7a565b6020601f8211600114612cb6578192939495600092612cab575b50508160011b916000199060031b1c191617600c8201555b6101a0830151600d8201556101c08301519283516001600160401b0381116107bb57612abb81612ab2600e860154611d29565b600e8601611f7a565b6020601f8211600114612c37578190610200949596600092612c2c575b50508160011b916000199060031b1c191617600e8401555b612b106101e08201511515600f85019060ff801983541691151516179055565b015190815191600160401b83116107bb576010820154836010840155808410612b74575b50602060109101910160005260206000206000915b838310612b565750505050565b600b602082612b686001945186612008565b01920192019190612b49565b600b81810204810361034a5783600b02600b8104850361034a576010840160005260206000209081015b82600b0282018110612bb1575050612b34565b80612bbd600b92611fbf565b612bc960018201611fbf565b60006002820155612bdc60038201611fbf565b612be860048201611fbf565b612bf460058201611fbf565b612c0060068201611fbf565b612c0c60078201611fbf565b612c1860088201611fbf565b600060098201556000600a82015501612b9e565b015190503880612ad8565b600e840160005260206000209560005b601f1984168110612c935750958291610200959697600194601f19811610612c7a575b505050811b01600e840155612af0565b015160001960f88460031b161c19169055388080612c6a565b82820151885560019097019660209283019201612c47565b015190503880612a67565b600c830160005260206000209060005b601f1984168110612d0d575060019394959683601f19811610612cf4575b505050811b01600c820155612a7f565b015160001960f88460031b161c19169055388080612ce4565b9091602060018192858b015181550193019101612cc6565b015190503880612a04565b600b850160005260206000209060005b601f1984168110612d87575060019394959683601f19811610612d6e575b505050811b01600b840155612a1c565b015160001960f88460031b161c19169055388080612d5e565b9091602060018192858b015181550193019101612d40565b0151905038806129a1565b600a840160005260206000209060005b601f1984168110612e01575060019394959683601f19811610612de8575b505050811b01600a8301556129b9565b015160001960f88460031b161c19169055388080612dd8565b9091602060018192858b015181550193019101612dba565b01519050388061293e565b6009830160005260206000209060005b601f1984168110612e7b575060019394959683601f19811610612e62575b505050811b016009820155612956565b015160001960f88460031b161c19169055388080612e52565b9091602060018192858b015181550193019101612e34565b0151905038806128db565b6008850160005260206000209060005b601f1984168110612ef5575060019394959683601f19811610612edc575b505050811b0160088401556128f3565b015160001960f88460031b161c19169055388080612ecc565b9091602060018192858b015181550193019101612eae565b015190503880612878565b6007840160005260206000209060005b601f1984168110612f6f575060019394959683601f19811610612f56575b505050811b016007830155612890565b015160001960f88460031b161c19169055388080612f46565b9091602060018192858b015181550193019101612f28565b015190503880612819565b6000858152602081209350601f198516905b818110612fe05750908460019594939210612fc7575b505050811b01905561282e565b015160001960f88460031b161c19169055388080612fba565b92936020600181928786015181550195019301612fa4565b0151905038806127c4565b6000858152602081209350601f198516905b8181106130515750908460019594939210613038575b505050811b0190556127d9565b015160001960f88460031b161c1916905538808061302b565b92936020600181928786015181550195019301613015565b015190503880612750565b6000858152602081209350601f198516905b8181106130c257509084600195949392106130a9575b505050811b019055612765565b015160001960f88460031b161c1916905538808061309c565b92936020600181928786015181550195019301613086565b0151905038806126fb565b6000858152602081209350601f198516905b818110613133575090846001959493921061311a575b505050811b019055612710565b015160001960f88460031b161c1916905538808061310d565b929360206001819287860151815501950193016130f7565b60036060611da19360018060a01b038151166bffffffffffffffffffffffff60a01b85541617845560208101516001850155604081015160028501550151151591019060ff801983541691151516179055565b3d156131c9573d906131af82611c72565b916131bd6040519384611c51565b82523d6000602084013e565b606090565b600019811461034a5760010190565b60018060a01b03809116806000526006602052604060002091606060ff60036040519361320985611bfe565b86541680855260018701546020860152600287015460408601529501541615159101520361323657600190565b600090565b6000903382526006602052604082206003810160ff815416156000146132dc57600160ff198254161790558160018201555b600242910155338252600760205260408220600160ff198254161790556040519081527f4b90d6788928d63c1821907a6a8b95f40d26562d8fe41b105f7489db9966dfcb60203392a28080808060018060a01b0381541634905af16132d061319e565b50156132d95750565b80fd5b50600181016132ec838254611f2e565b905561326d565b156132fa57565b60405162461bcd60e51b815260206004820152603360248201527f596f7520617265206e6f7420617574686f72697a656420746f20706572666f7260448201527236903a3434b9903a3930b739b0b1ba34b7b71760691b6064820152608490fd5b8054156107a557600052602060002090600090565b91906040519061337f82611c35565b60609182815282602082015260009283604083015280808301528060808301528060a08301528060c08301528060e08301526101008201528261012082015282610140820152826101608201529360018060a01b0380921680845260076020526133ef60ff6040862054166132f3565b8352600360205260106040842001918254935b848110613410575050505050565b81600261341c8661335b565b500154168284161461343657613431906131ce565b613402565b50505061344f929350613449915061335b565b50611e09565b9056fea26469706673582212200ee43e88396adec0f3b6057f9aa0cce6929029cd48ac691d47af72035499972064736f6c63430008130033",
  "linkReferences": {},
  "deployedLinkReferences": {}
}