{
  "_format": "hh-sol-artifact-1",
  "contractName": "IDBot",
  "sourceName": "contracts/IDBot.sol",
  "abi": [
    {
      "inputs": [],
      "stateMutability": "nonpayable",
      "type": "constructor"
    },
    {
      "anonymous": false,
      "inputs": [
        {
          "indexed": true,
          "internalType": "address",
          "name": "profile",
          "type": "address"
        },
        {
          "indexed": true,
          "internalType": "address",
          "name": "owner",
          "type": "address"
        },
        {
          "indexed": false,
          "internalType": "uint256",
          "name": "profileId",
          "type": "uint256"
        }
      ],
      "name": "CreateProfile",
      "type": "event"
    },
    {
      "anonymous": false,
      "inputs": [
        {
          "indexed": true,
          "internalType": "address",
          "name": "account",
          "type": "address"
        },
        {
          "indexed": false,
          "internalType": "uint256",
          "name": "duration",
          "type": "uint256"
        }
      ],
      "name": "Subscribed",
      "type": "event"
    },
    {
      "inputs": [
        {
          "internalType": "uint256",
          "name": "",
          "type": "uint256"
        }
      ],
      "name": "_profiles",
      "outputs": [
        {
          "internalType": "address",
          "name": "",
          "type": "address"
        }
      ],
      "stateMutability": "view",
      "type": "function"
    },
    {
      "inputs": [
        {
          "internalType": "uint256",
          "name": "",
          "type": "uint256"
        }
      ],
      "name": "_subscribers",
      "outputs": [
        {
          "internalType": "address",
          "name": "account",
          "type": "address"
        },
        {
          "internalType": "uint256",
          "name": "duration",
          "type": "uint256"
        },
        {
          "internalType": "uint256",
          "name": "startedAt",
          "type": "uint256"
        },
        {
          "internalType": "bool",
          "name": "isActive",
          "type": "bool"
        }
      ],
      "stateMutability": "view",
      "type": "function"
    },
    {
      "inputs": [
        {
          "internalType": "string",
          "name": "_name",
          "type": "string"
        },
        {
          "internalType": "string",
          "name": "_description",
          "type": "string"
        },
        {
          "internalType": "bool",
          "name": "_dev",
          "type": "bool"
        },
        {
          "internalType": "string",
          "name": "_email",
          "type": "string"
        },
        {
          "internalType": "string",
          "name": "_age",
          "type": "string"
        },
        {
          "internalType": "string",
          "name": "phone",
          "type": "string"
        },
        {
          "internalType": "string",
          "name": "_country",
          "type": "string"
        },
        {
          "internalType": "string",
          "name": "_state",
          "type": "string"
        },
        {
          "internalType": "string",
          "name": "_address",
          "type": "string"
        },
        {
          "internalType": "string[]",
          "name": "urls",
          "type": "string[]"
        },
        {
          "internalType": "address",
          "name": "_owner",
          "type": "address"
        },
        {
          "internalType": "uint256",
          "name": "number",
          "type": "uint256"
        }
      ],
      "name": "createProfile",
      "outputs": [],
      "stateMutability": "nonpayable",
      "type": "function"
    },
    {
      "inputs": [],
      "name": "getProfiles",
      "outputs": [
        {
          "internalType": "address[]",
          "name": "",
          "type": "address[]"
        }
      ],
      "stateMutability": "view",
      "type": "function"
    },
    {
      "inputs": [
        {
          "internalType": "address",
          "name": "",
          "type": "address"
        }
      ],
      "name": "isProfiled",
      "outputs": [
        {
          "internalType": "bool",
          "name": "",
          "type": "bool"
        }
      ],
      "stateMutability": "view",
      "type": "function"
    },
    {
      "inputs": [
        {
          "internalType": "address",
          "name": "_account",
          "type": "address"
        }
      ],
      "name": "isSubscribed",
      "outputs": [
        {
          "internalType": "bool",
          "name": "subscribed",
          "type": "bool"
        }
      ],
      "stateMutability": "view",
      "type": "function"
    },
    {
      "inputs": [],
      "name": "owner",
      "outputs": [
        {
          "internalType": "address",
          "name": "",
          "type": "address"
        }
      ],
      "stateMutability": "view",
      "type": "function"
    },
    {
      "inputs": [
        {
          "internalType": "address",
          "name": "",
          "type": "address"
        }
      ],
      "name": "profiles",
      "outputs": [
        {
          "internalType": "address",
          "name": "",
          "type": "address"
        }
      ],
      "stateMutability": "view",
      "type": "function"
    },
    {
      "inputs": [
        {
          "internalType": "uint256",
          "name": "",
          "type": "uint256"
        }
      ],
      "name": "profiles_",
      "outputs": [
        {
          "internalType": "address",
          "name": "",
          "type": "address"
        }
      ],
      "stateMutability": "view",
      "type": "function"
    },
    {
      "inputs": [
        {
          "internalType": "uint256",
          "name": "_duration",
          "type": "uint256"
        }
      ],
      "name": "subscribe",
      "outputs": [],
      "stateMutability": "payable",
      "type": "function"
    },
    {
      "inputs": [
        {
          "internalType": "address",
          "name": "",
          "type": "address"
        }
      ],
      "name": "subscribers",
      "outputs": [
        {
          "internalType": "address",
          "name": "account",
          "type": "address"
        },
        {
          "internalType": "uint256",
          "name": "duration",
          "type": "uint256"
        },
        {
          "internalType": "uint256",
          "name": "startedAt",
          "type": "uint256"
        },
        {
          "internalType": "bool",
          "name": "isActive",
          "type": "bool"
        }
      ],
      "stateMutability": "view",
      "type": "function"
    },
    {
      "inputs": [],
      "name": "unsubscribe",
      "outputs": [],
      "stateMutability": "nonpayable",
      "type": "function"
    },
    {
      "inputs": [
        {
          "internalType": "uint256",
          "name": "_duration",
          "type": "uint256"
        }
      ],
      "name": "updateSubscription",
      "outputs": [],
      "stateMutability": "payable",
      "type": "function"
    }
  ],
  "bytecode": "0x6080806040523461002857600080546001600160a01b03191633179055614100908161002e8239f35b600080fdfe60808060405260043610156200001457600080fd5b60003560e01c9081630e6db7361462000bff575080630f574ba71462000a615780635745ae2814620009e25780635be6fcbd14620004ad57806381a36eec146200049357806389062cda146200045d5780638da5cb5b14620004325780639bbfa38514620003be578063b213703314620002e4578063b92ae87c14620002b1578063bbe156271462000272578063d5b52d3e146200022b5763fcae448414620000bc57600080fd5b34620001f2576000366003190112620001f2576000546001600160a01b0390620000ea908216331462000d99565b60005b6005548110156200022957620001038162000d10565b506002810154420342811162000213576001906201518082840154910410158062000200575b62000142575b50506200013c9062000e1a565b620000ed565b6003828101805460ff191690556000825b62000161575b50506200012f565b8293959254811015620001f757826200017a8262000d61565b905490841b1c169083875416823b15620001f257600092602484926040519586938492636bd4ffd360e01b845260048401525af1908115620001e6578592620001ca92620001d4575b5062000e1a565b9092959362000153565b620001df9062000c71565b38620001c3565b6040513d6000823e3d90fd5b600080fd5b82955062000159565b508060ff60038401541615151462000129565b634e487b7160e01b600052601160045260246000fd5b005b34620001f2576020366003190112620001f257600435600154811015620001f2576200025960209162000d61565b905460405160039290921b1c6001600160a01b03168152f35b34620001f2576020366003190112620001f25760206001600160a01b03806200029a62000c3e565b166000526002825260406000205416604051908152f35b34620001f2576020366003190112620001f2576020620002da620002d462000c3e565b62000eac565b6040519015158152f35b34620001f2576000366003190112620001f2576000546001600160a01b039062000312908216331462000d99565b604051809160019081549384845260208094018095846000527fb10e2d527612073b26eecdfd717e6a320cf44b4afac2b0732d9fcbe2b7fa0cf69060005b818110620003a857505050816200036991038262000c85565b6040519380850191818652518092526040850195926000905b838210620003905786880387f35b84518116885296820196938201939085019062000382565b8254861684529287019291860191860162000350565b34620001f2576020366003190112620001f257600435600554811015620001f257620003ea9062000d10565b50805460018201546002830154600390930154604080516001600160a01b03909416845260208401929092529082019290925260ff90911615156060820152608090f35b0390f35b34620001f2576000366003190112620001f2576000546040516001600160a01b039091168152602090f35b34620001f2576020366003190112620001f2576004356000526003602052602060018060a01b0360406000205416604051908152f35b6020366003190112620001f2576200022960043562000f0d565b34620001f257610180366003190112620001f2576004356001600160401b038111620001f257620004e390369060040162000cc3565b6024356001600160401b038111620001f2576200050590369060040162000cc3565b604435908115158203620001f2576064356001600160401b038111620001f2576200053590369060040162000cc3565b916084356001600160401b038111620001f2576200055890369060040162000cc3565b9060a4356001600160401b038111620001f2576200057b90369060040162000cc3565b9260c4356001600160401b038111620001f2576200059e90369060040162000cc3565b9160e4356001600160401b038111620001f257620005c190369060040162000cc3565b90610104356001600160401b038111620001f257620005e590369060040162000cc3565b936001600160401b036101243511620001f25736602361012435011215620001f2576101243560040135976001600160401b0389116200091b57604051978960051b996200063760208c018b62000c85565b895260208901809a3660248261012435010111620001f25760246101243501915b6024826101243501018310620009aa57505050610144356001600160a01b0381169003620001f2576200069760018060a01b0360005416331462000d99565b610144356001600160a01b031660009081526004602052604090205460ff166200096557426101643501610164351162000213576040519a8b6131298101106001600160401b038d6131290111176200091b5790620007848c9b9a996200076c620007c99897620007b297968f6200074a620007e19e9d620007336200079b9a61312962000fa286396101806131298601818152019062000dd8565b906131298401820360206131298601015262000dd8565b9215156040613129830101526060613129820184039161312901015262000dd8565b908d6080613129820184039161312901015262000dd8565b906131298c01820360a08d61312901015262000dd8565b906131298a01820360c06131298c01015262000dd8565b906131298801820360e06131298a01015262000dd8565b90613129860182036101006131298801015262000dd8565b90613129840182036101206131298601015251808252602082019160208260051b82010193926000915b8383106200093157610144356001600160a01b0316613129880161014081019190915261016435420161016090910152868603876000f08015620001e65760018060a01b0316600154600160401b8110156200091b5780600162000873920160015562000d61565b81546001600160a01b03600392831b81811b199092169185901b9190911790925561014435909116600081815260026020908152604080832080546001600160a01b031990811688179091556101643542018085529583528184208054909116871790558383526004825291829020805460ff1916600117905590519283529092917f05db8c89f9a4d721e714415c427f82149ef6d0dd9334f7ab0f3043fe81050e199190a3005b634e487b7160e01b600052604160045260246000fd5b91939550919360208062000952600193601f19868203018752895162000dd8565b970193019301909286959492936200080b565b60405162461bcd60e51b815260206004820152601c60248201527f596f7520616c7265616479206861766520616e206163636f756e742e000000006044820152606490fd5b6001600160401b03833511620001f257602080602492620009d43685883561012435010162000cc3565b815201930192905062000658565b34620001f2576020366003190112620001f2576001600160a01b038062000a0862000c3e565b1660005260066020526040600020908154166200042e60018301549260ff600360028301549201541690604051948594859260609295949195608085019660018060a01b03168552602085015260408401521515910152565b6020366003190112620001f25760043562000a7c3362000eac565b1562000a8d57620002299062000f0d565b60405162000a9b8162000c55565b3381528160208201524260408201526001806060830152806000905b62000b76575b50600554600160401b8110156200091b5762000ade91810160055562000d10565b91909162000b605762000af68162000b0a9362000e2a565b336000526006602052604060002062000e2a565b6040519081527f4b90d6788928d63c1821907a6a8b95f40d26562d8fe41b105f7489db9966dfcb60203392a26000805481908190819034906001600160a01b03165af162000b5762000e77565b5015620001f257005b634e487b7160e01b600052600060045260246000fd5b815481101562000bf95762000b8b8162000d61565b905460039190911b1c6001600160a01b031690813b15620001f25760008092602460405180958193637b0f27d360e11b83523360048401525af1908115620001e657839262000be09262000be7575062000e1a565b9062000ab7565b62000bf29062000c71565b86620001c3565b62000abd565b34620001f2576020366003190112620001f2576020906001600160a01b0362000c2762000c3e565b166000526004825260ff6040600020541615158152f35b600435906001600160a01b0382168203620001f257565b608081019081106001600160401b038211176200091b57604052565b6001600160401b0381116200091b57604052565b90601f801991011681019081106001600160401b038211176200091b57604052565b6001600160401b0381116200091b57601f01601f191660200190565b81601f82011215620001f25780359062000cdd8262000ca7565b9262000ced604051948562000c85565b82845260208383010111620001f257816000926020809301838601378301015290565b60055481101562000d4b57600560005260021b7f036b6384b5eca791c62761152d0c79bb0604c104a5fb6f4eb0703f3154bb3db00190600090565b634e487b7160e01b600052603260045260246000fd5b60015481101562000d4b5760016000527fb10e2d527612073b26eecdfd717e6a320cf44b4afac2b0732d9fcbe2b7fa0cf60190600090565b1562000da157565b60405162461bcd60e51b815260206004820152600f60248201526e2737ba1020baba3437b934bd32b21760891b6044820152606490fd5b919082519283825260005b84811062000e05575050826000602080949584010152601f8019910116010190565b60208183018101518483018201520162000de3565b6000198114620002135760010190565b600360609160018060a01b038451166bffffffffffffffffffffffff60a01b825416178155602084015160018201556040840151600282015501910151151560ff80198354169116179055565b3d1562000ea7573d9062000e8b8262000ca7565b9162000e9b604051938462000c85565b82523d6000602084013e565b606090565b60018060a01b03809116806000526006602052604060002091606060ff60036040519362000eda8562000c55565b86541680855260018701546020860152600287015460408601529501541615159101520362000f0857600190565b600090565b60009033825260066020526040822060038101805460ff81161562000f90575b50508160018201556002429101556040519081527f4b90d6788928d63c1821907a6a8b95f40d26562d8fe41b105f7489db9966dfcb60203392a28080808060018060a01b0381541634905af162000f8362000e77565b501562000f8d5750565b80fd5b60ff19166001179055388062000f2d56fe60806040523462000f375762003129803803806200001d8162000f77565b92833961018082828101031262000f375781516001600160401b03811162000f3757620000509082840190840162000f9d565b60208301519091906001600160401b03811162000f3757620000789082850190850162000f9d565b906040840151801515810362000f375760608501516001600160401b03811162000f3757620000ad9083870190870162000f9d565b60808601516001600160401b03811162000f3757620000d29084880190880162000f9d565b60a08701516001600160401b03811162000f3757620000f79085890190890162000f9d565b60c08801516001600160401b03811162000f37576200011c90868a01908a0162000f9d565b60e08901519092906001600160401b03811162000f37576200014490878b01908b0162000f9d565b6101008a01519094906001600160401b03811162000f37576200016d90888c01908c0162000f9d565b6101208b0151989096906001600160401b038a1162000f3757888c018a8d01601f01121562000f37578b8a0151986001600160401b038a116200073d5789620001bd60208f9c60051b0162000f77565b9b60208d8381520190819c602085820191838660051b910101011162000f37578f91602082840101925b60208560051b8483010101841062000f3c579350505050610140915001519b60018060a01b038d168d0362000f375761016001519a620002296002546200100f565b601f811162000ef5575b50600e6650656e64696e6760c81b016002558051906001600160401b0382116200073d578190620002666004546200100f565b601f811162000ea2575b50602090601f831160011462000e135760009262000e07575b50508160011b916000199060031b1c1916176004555b8051906001600160401b0382116200073d578190620002c06005546200100f565b601f811162000dd0575b50602090601f831160011462000d415760009262000d35575b50508160011b916000199060031b1c1916176005555b60ff801960065416911515161760065580519060018060401b0382116200073d578190620003296007546200100f565b601f811162000cf3575b50602090601f831160011462000c755760009262000c69575b50508160011b916000199060031b1c1916176007555b8051906001600160401b0382116200073d578190620003836008546200100f565b601f811162000c27575b50602090601f831160011462000ba95760009262000b9d575b50508160011b916000199060031b1c1916176008555b8051906001600160401b0382116200073d578190620003dd6009546200100f565b601f811162000b5b575b50602090601f831160011462000add5760009262000ad1575b50508160011b916000199060031b1c1916176009555b8051906001600160401b0382116200073d57819062000437600a546200100f565b601f811162000a8f575b50602090601f831160011462000a155760009262000a09575b50508160011b916000199060031b1c191617600a555b8051906001600160401b0382116200073d57819062000491600b546200100f565b601f8111620009b6575b50602090601f83116001146200092b576000926200091f575b50508160011b916000199060031b1c191617600b555b8051906001600160401b0382116200073d578190620004eb600c546200100f565b601f8111620008cc575b50602090601f8311600114620008415760009262000835575b50508160011b916000199060031b1c191617600c555b81511562000753575180519093906001600160401b0381116200073d576200054e600d546200100f565b601f8111620007e2575b50602094601f8211600114620007755794819293949560009262000769575b50508160011b916000199060031b1c191617600d555b81519160019283101562000753576040015180519093906001600160401b0381116200073d57620005c0600e546200100f565b601f8111620006de575b50602094601f8211600114620006735794819293949560009262000667575b5050600019600383901b1c191690841b17600e555b6010556000600f81905580546001600160a01b03929092166001600160a01b031992831681178255835433931683178455815260136020526040808220805460ff1990811686179091559282529081902080549092169092179055516120439081620010668239f35b015190503880620005e9565b601f19821695600e60005260206000209160005b888110620006c757508387989795969710620006ad575b505050811b01600e55620005fe565b015160001960f88460031b161c191690553880806200069e565b818301518455928701926020928301920162000687565b600e6000526200072b907fbb7b4a454dc3493923482f07822329ed19e8244eff582cc204f8554c3620c3fd601f840160051c8101916020851062000732575b601f0160051c01906200104c565b38620005ca565b90915081906200071d565b634e487b7160e01b600052604160045260246000fd5b634e487b7160e01b600052603260045260246000fd5b01519050388062000577565b601f19821695600d60005260206000209160005b888110620007c957508360019596979810620007af575b505050811b01600d556200058d565b015160001960f88460031b161c19169055388080620007a0565b9192602060018192868501518155019401920162000789565b600d6000526200082e907fd7b6990105719101dabeb77144f2a3385c8033acd3af97e9423a695e81ad1eb5601f840160051c810191602085106200073257601f0160051c01906200104c565b3862000558565b0151905038806200050e565b600c60009081527fdf6966c971051c3d54ec59162606531493a51404a002842f56009d7e5cf4a8c79350601f198516905b818110620008b3575090846001959493921062000899575b505050811b01600c5562000524565b015160001960f88460031b161c191690553880806200088a565b9293602060018192878601518155019501930162000872565b600c60005262000918907fdf6966c971051c3d54ec59162606531493a51404a002842f56009d7e5cf4a8c7601f850160051c810191602086106200073257601f0160051c01906200104c565b38620004f5565b015190503880620004b4565b600b60009081527f0175b7a638427703f0dbe7bb9bbf987a2551717b34e79f33b5b1008d1fa01db99350601f198516905b8181106200099d575090846001959493921062000983575b505050811b01600b55620004ca565b015160001960f88460031b161c1916905538808062000974565b929360206001819287860151815501950193016200095c565b600b60005262000a02907f0175b7a638427703f0dbe7bb9bbf987a2551717b34e79f33b5b1008d1fa01db9601f850160051c810191602086106200073257601f0160051c01906200104c565b386200049b565b0151905038806200045a565b600a6000908152600080516020620030a98339815191529350601f198516905b81811062000a76575090846001959493921062000a5c575b505050811b01600a5562000470565b015160001960f88460031b161c1916905538808062000a4d565b9293602060018192878601518155019501930162000a35565b600a60005262000aca90600080516020620030a9833981519152601f850160051c810191602086106200073257601f0160051c01906200104c565b3862000441565b01519050388062000400565b6009600090815293506000805160206200310983398151915291905b601f198416851062000b3f576001945083601f1981161062000b25575b505050811b0160095562000416565b015160001960f88460031b161c1916905538808062000b16565b8181015183556020948501946001909301929091019062000af9565b600960005262000b969060008051602062003109833981519152601f850160051c810191602086106200073257601f0160051c01906200104c565b38620003e7565b015190503880620003a6565b600860009081529350600080516020620030e983398151915291905b601f198416851062000c0b576001945083601f1981161062000bf1575b505050811b01600855620003bc565b015160001960f88460031b161c1916905538808062000be2565b8181015183556020948501946001909301929091019062000bc5565b600860005262000c6290600080516020620030e9833981519152601f850160051c810191602086106200073257601f0160051c01906200104c565b386200038d565b0151905038806200034c565b600760009081529350600080516020620030c983398151915291905b601f198416851062000cd7576001945083601f1981161062000cbd575b505050811b0160075562000362565b015160001960f88460031b161c1916905538808062000cae565b8181015183556020948501946001909301929091019062000c91565b600760005262000d2e90600080516020620030c9833981519152601f850160051c810191602086106200073257601f0160051c01906200104c565b3862000333565b015190503880620002e3565b6005600090815293507f036b6384b5eca791c62761152d0c79bb0604c104a5fb6f4eb0703f3154bb3db091905b601f198416851062000db4576001945083601f1981161062000d9a575b505050811b01600555620002f9565b015160001960f88460031b161c1916905538808062000d8b565b8181015183556020948501946001909301929091019062000d6e565b62000e009060056000526020600020601f850160051c810191602086106200073257601f0160051c01906200104c565b38620002ca565b01519050388062000289565b6004600090815293507f8a35acfbc15ff81a39ae7d344fd709f28e8600b4aa8c65c6b64bfe7fe36bd19b91905b601f198416851062000e86576001945083601f1981161062000e6c575b505050811b016004556200029f565b015160001960f88460031b161c1916905538808062000e5d565b8181015183556020948501946001909301929091019062000e40565b600460005262000eee907f8a35acfbc15ff81a39ae7d344fd709f28e8600b4aa8c65c6b64bfe7fe36bd19b601f850160051c810191602086106200073257601f0160051c01906200104c565b3862000270565b600260005262000f3090601f0160051c7f405787fa12a823e0f2b7631cc41b3ba8828b3321ca811111fa75cd3aa3bb5ace908101906200104c565b3862000233565b600080fd5b83516001600160401b03811162000f3757602080809462000f688794838c880191878901010162000f9d565b815201950194925050620001e7565b6040519190601f01601f191682016001600160401b038111838210176200073d57604052565b919080601f8401121562000f375782516001600160401b0381116200073d5760209062000fd3601f8201601f1916830162000f77565b9281845282828701011162000f375760005b81811062000ffb57508260009394955001015290565b858101830151848201840152820162000fe5565b90600182811c9216801562001041575b60208310146200102b57565b634e487b7160e01b600052602260045260246000fd5b91607f16916200101f565b81811062001058575050565b600081556001016200104c56fe608060408181526004918236101561001657600080fd5b60009260e08435811c9283631109fe1a146115185750826317d7de7c146114255782631865c57d1461135b5782631a0925411461129157826324db757f146111c757826328ec3777146110cc5782632b8cd7e1146110a65782633200e26d14610fdc578263370bc5be14610f86578263423646ac14610f51578263469266c814610ef5578263472b327514610e2b5782636a4d879114610dc65782636af1ef4414610d635782636bd4ffd314610d185782637cabb9d814610ce35782637e79e8ba14610c1957826382d7313414610be8578263872a720a1461098c578263893d20e81461094e57826389a86487146108f2578263967e6e651461082857826396c3d10b1461075e57826397c99e92146106ce5782639e0c3ead146105c9578263a254fcbc14610577578263a6f9dae114610508578263dcc601281461032957508163f079914f146102f0578163f38f23ca1461022e57508063f61e4fa6146101e25763f6f6ff121461018757600080fd5b346101de5760203660031901126101de576101406101d5826020946101aa61164b565b338252601387526101c060ff8484205416611752565b6001600160a01b0316815260128652206118d8565b01519051908152f35b5080fd5b50346101de5760203660031901126101de576101fc61164b565b6001546001600160a01b039190610216908316331461189a565b16825260136020528120805460ff1916600117905580f35b919050346102ec5760203660031901126102ec5760099061024d61164b565b338552601360205261026460ff8387205416611752565b6001600160a01b031684526012602052832060088082018054909181901c60ff16156102da575b505001805460001992918382019182116102c75755600f549182019182116102b45750600f5580f35b634e487b7160e01b835260119052602482fd5b634e487b7160e01b855260118352602485fd5b61ff001916610100179055388061028b565b8280fd5b5050346101de57816003193601126101de5761031a60ff8260209433815260138652205416611752565b60ff6006541690519015158152f35b8382863461050557806003193601126105055733815260206013815261035460ff8584205416611752565b6011549267ffffffffffffffff84116104f2575083519061037a818560051b01836116d9565b8382526011835280820193837f31ecc21a745e3968a04e9570e4425bc18fa8019c68028196b546d1669c200c68865b8383106104cd5750505050845194818601928287525180935280860190808460051b8801019594975b8489106103df5787870388f35b9091929394958480600192603f198b820301875289519061049661048661047361046061044d61042b61041b8851610160808a52890190611666565b898901518882038b8a0152611666565b8a8060a01b038d890151168d8801526060808901519088830390890152611666565b6080808801519087830390880152611666565b60a0808701519086830390870152611666565b60c0808601519085830390860152611666565b8784015183820389850152611666565b91610100808201511515908301526101208082015115159083015261014080910151910152980194019801979190949392946103d2565b600a856001926104e0859a98999a6118d8565b815201920192019190959493956103a9565b634e487b7160e01b835260419052602482fd5b80fd5b84346105055760203660031901126105055761052261164b565b8154906001600160a01b03903382841614801561056a575b6105439061189a565b61055160ff60035416611995565b16906bffffffffffffffffffffffff60a01b1617815580f35b506001548216331461053a565b505050346101de5760203660031901126101de5760ff8160209361059961164b565b338252601386526105ae848484205416611752565b6001600160a01b031681526013855220549151911615158152f35b505050346101de57816003193601126101de57338252602090601382526105f560ff8285205416611752565b805183819490600a54610607816117ba565b918285526001918783821691826000146106a757505060011461064b575b50505061064792916106389103856116d9565b51928284938452830190611666565b0390f35b9190869350600a83527fc65a7bb8d6351c1cf70c95a316cc6a92839c986682d98bc35f958f4883f9d2a85b82841061068f5750505082010181610638610647610625565b8054848a018601528895508794909301928101610676565b60ff19168782015293151560051b8601909301935084925061063891506106479050610625565b848285346102ec5760203660031901126102ec576009906106ed61164b565b338552601360205261070460ff8387205416611752565b6001600160a01b031684526012602052832060088101805460ff81161561074e57505001805460001992918382019182116102c75755600f549182019182116102b45750600f5580f35b60ff19166001179055848061028b565b505050346101de57816003193601126101de573382526020906013825261078a60ff8285205416611752565b805183819490600d5461079c816117ba565b918285526001918783821691826000146106a75750506001146107cc5750505061064792916106389103856116d9565b9190869350600d83527fd7b6990105719101dabeb77144f2a3385c8033acd3af97e9423a695e81ad1eb55b8284106108105750505082010181610638610647610625565b8054848a0186015288955087949093019281016107f7565b505050346101de57816003193601126101de573382526020906013825261085460ff8285205416611752565b805183819490600854610866816117ba565b918285526001918783821691826000146106a75750506001146108965750505061064792916106389103856116d9565b9190869350600883527ff3f7a9fe364faab93b216da50a3214154f22a0a2b415b23a84c8169e8b636ee35b8284106108da5750505082010181610638610647610625565b8054848a0186015288955087949093019281016108c1565b505050346101de5760203660031901126101de57602091816109448161091661164b565b933381526013875261092d60ff8383205416611752565b6001600160a01b03948516815260128752206118d8565b0151169051908152f35b505050346101de57816003193601126101de576020913381526013835261097a60ff8383205416611752565b5490516001600160a01b039091168152f35b84918434610be4576101009182600319360112610be05767ffffffffffffffff8582358281116101de576109c390369085016116fb565b946024358381116102ec576109db90369086016116fb565b926044359760018060a01b0391828a16809a03610be057606435818111610bdc57610a0990369089016116fb565b608435828111610bd857610a209036908a016116fb565b60a435838111610bd457610a379036908b016116fb565b9160c435848111610bd057610a4f9036908c016116fb565b9360e435908111610bd057610a6a610a7f9136908d016116fb565b96808a54163314908115610bc2575b5061189a565b610a8d60ff60035416611995565b8a5198610a998a6116a6565b8c8a5260208a01528c8b8a01526060890152608088015260a087015260c086015284015282015285610120820152606461014082015260115468010000000000000000811015610baf576001810180601155811015610b9c5790610b2981600a610b399460118b52027f31ecc21a745e3968a04e9570e4425bc18fa8019c68028196b546d1669c200c6801611a79565b8587526012602052838720611a79565b600f549060648201809211610b895750600f555160208082527f3f59d974cb323c784e37c2bf72b6b6f11983b4d23545adf73f81b553873a539c928291610b839190830190611666565b0390a280f35b634e487b7160e01b865260119052602485fd5b634e487b7160e01b875260328352602487fd5b634e487b7160e01b875260418352602487fd5b905060015416331438610a79565b8880fd5b8780fd5b8680fd5b8580fd5b8480fd5b8380fd5b505050346101de5760203660031901126101de57610120610c0e826020946101aa61164b565b015115159051908152f35b505050346101de57816003193601126101de5733825260209060138252610c4560ff8285205416611752565b805183819490600754610c57816117ba565b918285526001918783821691826000146106a7575050600114610c875750505061064792916106389103856116d9565b9190869350600783527fa66cc928b5edb82af9bd49922954155ab7b0942694bea4ce44661d9a8736c6885b828410610ccb5750505082010181610638610647610625565b8054848a018601528895508794909301928101610cb2565b505050346101de57816003193601126101de57610d0e60ff8260209433815260138652205416611752565b6010549051908152f35b505050346101de5760203660031901126101de57610d3461164b565b6001546001600160a01b039190610d4e908316331461189a565b16825260136020528120805460ff1916905580f35b83853461050557602090816003193601126105055781610db48461064793610d8961164b565b33825260138552610d9f60ff8484205416611752565b6001600160a01b0316815260128452206118d8565b01519251928284938452830190611666565b505050346101de5760203660031901126101de57610e178161064793610dea61164b565b3382526013602052610e0160ff8484205416611752565b6001600160a01b031681526012602052206118d8565b519051918291602083526020830190611666565b505050346101de57816003193601126101de5733825260209060138252610e5760ff8285205416611752565b805183819490600c54610e69816117ba565b918285526001918783821691826000146106a7575050600114610e995750505061064792916106389103856116d9565b9190869350600c83527fdf6966c971051c3d54ec59162606531493a51404a002842f56009d7e5cf4a8c75b828410610edd5750505082010181610638610647610625565b8054848a018601528895508794909301928101610ec4565b8434610505578060031936011261050557610f1b60018060a01b0360015416331461189a565b610f2e610f296002546117ba565b6119d1565b60186b139bdd0815995c9a599a595960a21b016002556003805460ff1916905580f35b505050346101de57816003193601126101de57610f7c60ff8260209433815260138652205416611752565b600f549051908152f35b8434610505578060031936011261050557610fac60018060a01b0360015416331461189a565b610fba610f296002546117ba565b60106715995c9a599a595960c21b016002556003805460ff1916600117905580f35b505050346101de57816003193601126101de573382526020906013825261100860ff8285205416611752565b80518381949060025461101a816117ba565b918285526001918783821691826000146106a757505060011461104a5750505061064792916106389103856116d9565b9190869350600283527f405787fa12a823e0f2b7631cc41b3ba8828b3321ca811111fa75cd3aa3bb5ace5b82841061108e5750505082010181610638610647610625565b8054848a018601528895508794909301928101611075565b505050346101de5760203660031901126101de57610100610c0e826020946101aa61164b565b8385346105055780600319360112610505576001916110f560018060a01b03845416331461189a565b8051918093600e5491611107836117ba565b8086529282811690811561119f5750600114611142575b505050611130826106479403836116d9565b51918291602083526020830190611666565b9450600e85527fbb7b4a454dc3493923482f07822329ed19e8244eff582cc204f8554c3620c3fd5b82861061118757505050611130826020610647958201019461111e565b8054602087870181019190915290950194810161116a565b61064797508693506020925061113094915060ff191682840152151560051b8201019461111e565b505050346101de57816003193601126101de57338252602090601382526111f360ff8285205416611752565b805183819490600954611205816117ba565b918285526001918783821691826000146106a75750506001146112355750505061064792916106389103856116d9565b9190869350600983527f6e1540171b6c0c960b71a7020d9f60077f6af931a8bbf590da0223dacf75c7af5b8284106112795750505082010181610638610647610625565b8054848a018601528895508794909301928101611260565b505050346101de57816003193601126101de57338252602090601382526112bd60ff8285205416611752565b8051838194906005546112cf816117ba565b918285526001918783821691826000146106a75750506001146112ff5750505061064792916106389103856116d9565b9190869350600583527f036b6384b5eca791c62761152d0c79bb0604c104a5fb6f4eb0703f3154bb3db05b8284106113435750505082010181610638610647610625565b8054848a01860152889550879490930192810161132a565b505050346101de57816003193601126101de573382526020906013825261138760ff8285205416611752565b805183819490600b54611399816117ba565b918285526001918783821691826000146106a75750506001146113c95750505061064792916106389103856116d9565b9190869350600b83527f0175b7a638427703f0dbe7bb9bbf987a2551717b34e79f33b5b1008d1fa01db95b82841061140d5750505082010181610638610647610625565b8054848a0186015288955087949093019281016113f4565b848285346102ec57826003193601126102ec573383526020916013835261145160ff8386205416611752565b815193849181815490611463826117ba565b928386526001928884821691826000146114ee575050600114611493575b858861064789610638848a03856116d9565b815286935091907f8a35acfbc15ff81a39ae7d344fd709f28e8600b4aa8c65c6b64bfe7fe36bd19b5b8284106114d6575050508201018161063861064788611481565b8054848a0186015288955087949093019281016114bc565b60ff19168882015294151560051b8701909401945085935061063892506106479150899050611481565b9184869234610be45760209485600319360112610be05761153761164b565b60a0908183019267ffffffffffffffff938181108582111761163857865288885b84811061162a575050503387526013885261157860ff8689205416611752565b6001600160a01b0316865260128752838620611593906118d8565b91845195828701918783109083111761161757508452606082015185526080820151878601528101518385015260c0810151606085015201516080830152519183830184845260c084019291945b600586106115ef5784840385f35b909192818061160a600193601f198982030187528751611666565b95019301950194906115e1565b634e487b7160e01b885260419052602487fd5b606081840152018990611558565b634e487b7160e01b895260418852602489fd5b600435906001600160a01b038216820361166157565b600080fd5b919082519283825260005b848110611692575050826000602080949584010152601f8019910116010190565b602081830181015184830182015201611671565b610160810190811067ffffffffffffffff8211176116c357604052565b634e487b7160e01b600052604160045260246000fd5b90601f8019910116810190811067ffffffffffffffff8211176116c357604052565b81601f820112156116615780359067ffffffffffffffff82116116c35760405192611730601f8401601f1916602001856116d9565b8284526020838301011161166157816000926020809301838601378301015290565b1561175957565b60405162461bcd60e51b815260206004820152603360248201527f596f7520617265206e6f7420617574686f72697a656420746f20706572666f7260448201527236903a3434b9903a3930b739b0b1ba34b7b71760691b6064820152608490fd5b90600182811c921680156117ea575b60208310146117d457565b634e487b7160e01b600052602260045260246000fd5b91607f16916117c9565b9060405191826000825492611808846117ba565b9081845260019485811690816000146118775750600114611834575b5050611832925003836116d9565b565b9093915060005260209081600020936000915b81831061185f57505061183293508201013880611824565b85548884018501529485019487945091830191611847565b91505061183294506020925060ff191682840152151560051b8201013880611824565b156118a157565b60405162461bcd60e51b815260206004820152600f60248201526e2737ba1020baba3437b934bd32b21760891b6044820152606490fd5b906040516118e5816116a6565b610140600982946118f5816117f4565b8452611903600182016117f4565b602085015260028101546001600160a01b03166040850152611927600382016117f4565b6060850152611938600482016117f4565b6080850152611949600582016117f4565b60a085015261195a600682016117f4565b60c085015261196b600782016117f4565b60e085015260ff6008820154818116151561010087015260081c1615156101208501520154910152565b1561199c57565b60405162461bcd60e51b815260206004820152600d60248201526c2737ba103b32b934b334b2b21760991b6044820152606490fd5b601f81116119dc5750565b600060028152601f7f405787fa12a823e0f2b7631cc41b3ba8828b3321ca811111fa75cd3aa3bb5ace920160051c8201915b828110611a1a57505050565b818155600101611a0e565b90601f8111611a3357505050565b600091825260208220906020601f850160051c83019410611a6f575b601f0160051c01915b828110611a6457505050565b818155600101611a58565b9092508290611a4f565b908051805167ffffffffffffffff908181116116c357611aa381611a9d87546117ba565b87611a25565b806020601f94858311600114611fa857600092611f9d575b50508160011b916000199060031b1c19161784555b600180850160208501518051908482116116c3578190611afa82611af486546117ba565b86611a25565b602090878311600114611f3a57600092611f2f575b5050600019600383901b1c191690831b1790555b6002850160018060a01b036040860151166bffffffffffffffffffffffff60a01b82541617905560039081860160608601518051908582116116c3578190611b6f82611af486546117ba565b602090888311600114611ecd57600092611ec2575b505060001982861b1c191690831b1790555b6004860160808601518051908582116116c3578190611bb982611af486546117ba565b602090888311600114611e6057600092611e55575b505060001982861b1c191690831b1790555b6005860160a08601518051908582116116c3578190611c0382611af486546117ba565b602090888311600114611df357600092611de8575b505060001982861b1c191690831b1790555b6006860160c08601518051908582116116c3578190611c4d82611af486546117ba565b602090888311600114611d8657600092611d7b575b505060001982861b1c191690831b1790555b600786019360e086015180519485116116c357611c9b85611c9588546117ba565b88611a25565b6020918511600114611d0a579284809360099896936101409896600095611cff575b50501b92600019911b1c19161790555b600884016101008201511515815460ff61ff00610120860151151560081b1692169061ffff1916171790550151910155565b015193503880611cbd565b91939290601f1984169286600052816000209360005b818110611d65575091859391610140989660099a98969410611d4b575b50505050811b019055611ccd565b01519060f884600019921b161c1916905538808080611d3d565b8284015186559487019460209384019301611d20565b015190503880611c62565b90859350601f1983169185600052816000209260005b818110611dd057508411611db8575b505050811b019055611c74565b015160001983881b60f8161c19169055388080611dab565b82840151855588969094019360209384019301611d9c565b015190503880611c18565b90859350601f1983169185600052816000209260005b818110611e3d57508411611e25575b505050811b019055611c2a565b015160001983881b60f8161c19169055388080611e18565b82840151855588969094019360209384019301611e09565b015190503880611bce565b90859350601f1983169185600052816000209260005b818110611eaa57508411611e92575b505050811b019055611be0565b015160001983881b60f8161c19169055388080611e85565b82840151855588969094019360209384019301611e76565b015190503880611b84565b90859350601f1983169185600052816000209260005b818110611f1757508411611eff575b505050811b019055611b96565b015160001983881b60f8161c19169055388080611ef2565b82840151855588969094019360209384019301611ee3565b015190503880611b0f565b90859350601f1983169185600052816000209260005b818110611f8557508411611f6c575b505050811b019055611b23565b015160001960f88460031b161c19169055388080611f5f565b82840151855588969094019360209384019301611f50565b015190503880611abb565b60008881528281209350601f198516905b818110611ff55750908460019594939210611fdc575b505050811b018455611ad0565b015160001960f88460031b161c19169055388080611fcf565b92936020600181928786015181550195019301611fb956fea264697066735822122053a316a99e24d0b7b73d839a3e1d52c4510c33a8b616d5d8ed6590163aabf51064736f6c63430008130033c65a7bb8d6351c1cf70c95a316cc6a92839c986682d98bc35f958f4883f9d2a8a66cc928b5edb82af9bd49922954155ab7b0942694bea4ce44661d9a8736c688f3f7a9fe364faab93b216da50a3214154f22a0a2b415b23a84c8169e8b636ee36e1540171b6c0c960b71a7020d9f60077f6af931a8bbf590da0223dacf75c7afa26469706673582212200492e3ad1d0a4e4161cbca86dcda8271ec7d8c4e20bf34a51b246f351ea7db8f64736f6c63430008130033",
  "linkReferences": {},
  "deployedLinkReferences": {}
}