{
  "_format": "hh-sol-artifact-1",
  "contractName": "IDBot",
  "sourceName": "contracts/IDBot.sol",
  "abi": [
    {
      "inputs": [],
      "stateMutability": "nonpayable",
      "type": "constructor"
    },
    {
      "anonymous": false,
      "inputs": [
        {
          "indexed": true,
          "internalType": "address",
          "name": "profile",
          "type": "address"
        },
        {
          "indexed": true,
          "internalType": "address",
          "name": "owner",
          "type": "address"
        },
        {
          "indexed": false,
          "internalType": "uint256",
          "name": "profileId",
          "type": "uint256"
        }
      ],
      "name": "CreateProfile",
      "type": "event"
    },
    {
      "anonymous": false,
      "inputs": [
        {
          "indexed": true,
          "internalType": "address",
          "name": "account",
          "type": "address"
        },
        {
          "indexed": false,
          "internalType": "uint256",
          "name": "duration",
          "type": "uint256"
        }
      ],
      "name": "Subscribed",
      "type": "event"
    },
    {
      "inputs": [
        {
          "internalType": "uint256",
          "name": "",
          "type": "uint256"
        }
      ],
      "name": "_profiles",
      "outputs": [
        {
          "internalType": "address",
          "name": "",
          "type": "address"
        }
      ],
      "stateMutability": "view",
      "type": "function"
    },
    {
      "inputs": [
        {
          "internalType": "uint256",
          "name": "",
          "type": "uint256"
        }
      ],
      "name": "_subscribers",
      "outputs": [
        {
          "internalType": "address",
          "name": "account",
          "type": "address"
        },
        {
          "internalType": "uint256",
          "name": "duration",
          "type": "uint256"
        },
        {
          "internalType": "uint256",
          "name": "startedAt",
          "type": "uint256"
        },
        {
          "internalType": "bool",
          "name": "isActive",
          "type": "bool"
        }
      ],
      "stateMutability": "view",
      "type": "function"
    },
    {
      "inputs": [
        {
          "internalType": "string",
          "name": "_name",
          "type": "string"
        },
        {
          "internalType": "string",
          "name": "_description",
          "type": "string"
        },
        {
          "internalType": "bool",
          "name": "_dev",
          "type": "bool"
        },
        {
          "internalType": "string",
          "name": "_email",
          "type": "string"
        },
        {
          "internalType": "string",
          "name": "_age",
          "type": "string"
        },
        {
          "internalType": "string",
          "name": "phone",
          "type": "string"
        },
        {
          "internalType": "string",
          "name": "_country",
          "type": "string"
        },
        {
          "internalType": "string",
          "name": "_state",
          "type": "string"
        },
        {
          "internalType": "string",
          "name": "_address",
          "type": "string"
        },
        {
          "internalType": "string[]",
          "name": "urls",
          "type": "string[]"
        },
        {
          "internalType": "address",
          "name": "_owner",
          "type": "address"
        },
        {
          "internalType": "uint256",
          "name": "number",
          "type": "uint256"
        }
      ],
      "name": "createProfile",
      "outputs": [],
      "stateMutability": "nonpayable",
      "type": "function"
    },
    {
      "inputs": [],
      "name": "getProfiles",
      "outputs": [
        {
          "internalType": "address[]",
          "name": "",
          "type": "address[]"
        }
      ],
      "stateMutability": "view",
      "type": "function"
    },
    {
      "inputs": [
        {
          "internalType": "address",
          "name": "",
          "type": "address"
        }
      ],
      "name": "isProfiled",
      "outputs": [
        {
          "internalType": "bool",
          "name": "",
          "type": "bool"
        }
      ],
      "stateMutability": "view",
      "type": "function"
    },
    {
      "inputs": [
        {
          "internalType": "address",
          "name": "_account",
          "type": "address"
        }
      ],
      "name": "isSubscribed",
      "outputs": [
        {
          "internalType": "bool",
          "name": "subscribed",
          "type": "bool"
        }
      ],
      "stateMutability": "view",
      "type": "function"
    },
    {
      "inputs": [],
      "name": "owner",
      "outputs": [
        {
          "internalType": "address",
          "name": "",
          "type": "address"
        }
      ],
      "stateMutability": "view",
      "type": "function"
    },
    {
      "inputs": [
        {
          "internalType": "address",
          "name": "",
          "type": "address"
        }
      ],
      "name": "profiles",
      "outputs": [
        {
          "internalType": "address",
          "name": "",
          "type": "address"
        }
      ],
      "stateMutability": "view",
      "type": "function"
    },
    {
      "inputs": [
        {
          "internalType": "uint256",
          "name": "",
          "type": "uint256"
        }
      ],
      "name": "profiles_",
      "outputs": [
        {
          "internalType": "address",
          "name": "",
          "type": "address"
        }
      ],
      "stateMutability": "view",
      "type": "function"
    },
    {
      "inputs": [
        {
          "internalType": "uint256",
          "name": "_duration",
          "type": "uint256"
        }
      ],
      "name": "subscribe",
      "outputs": [],
      "stateMutability": "payable",
      "type": "function"
    },
    {
      "inputs": [
        {
          "internalType": "address",
          "name": "",
          "type": "address"
        }
      ],
      "name": "subscribers",
      "outputs": [
        {
          "internalType": "address",
          "name": "account",
          "type": "address"
        },
        {
          "internalType": "uint256",
          "name": "duration",
          "type": "uint256"
        },
        {
          "internalType": "uint256",
          "name": "startedAt",
          "type": "uint256"
        },
        {
          "internalType": "bool",
          "name": "isActive",
          "type": "bool"
        }
      ],
      "stateMutability": "view",
      "type": "function"
    },
    {
      "inputs": [],
      "name": "unsubscribe",
      "outputs": [],
      "stateMutability": "nonpayable",
      "type": "function"
    },
    {
      "inputs": [
        {
          "internalType": "uint256",
          "name": "_duration",
          "type": "uint256"
        }
      ],
      "name": "updateSubscription",
      "outputs": [],
      "stateMutability": "payable",
      "type": "function"
    }
  ],
  "bytecode": "0x6080806040523461002857600080546001600160a01b031916331790556141c0908161002e8239f35b600080fdfe60808060405260043610156200001457600080fd5b60003560e01c9081630e6db7361462000c06575080630f574ba71462000a685780635745ae2814620009e95780635be6fcbd14620004ad57806381a36eec146200049357806389062cda146200045d5780638da5cb5b14620004325780639bbfa38514620003be578063b213703314620002e4578063b92ae87c14620002b1578063bbe156271462000272578063d5b52d3e146200022b5763fcae448414620000bc57600080fd5b34620001f2576000366003190112620001f2576000546001600160a01b0390620000ea908216331462000da0565b60005b6005548110156200022957620001038162000d17565b506002810154420342811162000213576001906201518082840154910410158062000200575b62000142575b50506200013c9062000e21565b620000ed565b6003828101805460ff191690556000825b62000161575b50506200012f565b8293959254811015620001f757826200017a8262000d68565b905490841b1c169083875416823b15620001f257600092602484926040519586938492636bd4ffd360e01b845260048401525af1908115620001e6578592620001ca92620001d4575b5062000e21565b9092959362000153565b620001df9062000c78565b38620001c3565b6040513d6000823e3d90fd5b600080fd5b82955062000159565b508060ff60038401541615151462000129565b634e487b7160e01b600052601160045260246000fd5b005b34620001f2576020366003190112620001f257600435600154811015620001f2576200025960209162000d68565b905460405160039290921b1c6001600160a01b03168152f35b34620001f2576020366003190112620001f25760206001600160a01b03806200029a62000c45565b166000526002825260406000205416604051908152f35b34620001f2576020366003190112620001f2576020620002da620002d462000c45565b62000eb3565b6040519015158152f35b34620001f2576000366003190112620001f2576000546001600160a01b039062000312908216331462000da0565b604051809160019081549384845260208094018095846000527fb10e2d527612073b26eecdfd717e6a320cf44b4afac2b0732d9fcbe2b7fa0cf69060005b818110620003a857505050816200036991038262000c8c565b6040519380850191818652518092526040850195926000905b838210620003905786880387f35b84518116885296820196938201939085019062000382565b8254861684529287019291860191860162000350565b34620001f2576020366003190112620001f257600435600554811015620001f257620003ea9062000d17565b50805460018201546002830154600390930154604080516001600160a01b03909416845260208401929092529082019290925260ff90911615156060820152608090f35b0390f35b34620001f2576000366003190112620001f2576000546040516001600160a01b039091168152602090f35b34620001f2576020366003190112620001f2576004356000526003602052602060018060a01b0360406000205416604051908152f35b6020366003190112620001f2576200022960043562000f14565b34620001f257610180366003190112620001f2576004356001600160401b038111620001f257620004e390369060040162000cca565b6024356001600160401b038111620001f2576200050590369060040162000cca565b604435908115158203620001f2576064356001600160401b038111620001f2576200053590369060040162000cca565b916084356001600160401b038111620001f2576200055890369060040162000cca565b9060a4356001600160401b038111620001f2576200057b90369060040162000cca565b9260c4356001600160401b038111620001f2576200059e90369060040162000cca565b9160e4356001600160401b038111620001f257620005c190369060040162000cca565b90610104356001600160401b038111620001f257620005e590369060040162000cca565b936001600160401b036101243511620001f25736602361012435011215620001f2576101243560040135976001600160401b0389116200092257604051978960051b996200063760208c018b62000c8c565b895260208901809a3660248261012435010111620001f25760246101243501915b6024826101243501018310620009b157505050610144356001600160a01b0381169003620001f2576200069760018060a01b0360005416331462000da0565b610144356001600160a01b031660009081526004602052604090205460ff166200096c57426101643501610164351162000213576040519a8b6131e28101106001600160401b038d6131e2011117620009225790620007848c9b9a996200076c620007c99897620007b297968f6200074a620007e19e9d620007336200079b9a6131e262000fa986396101a06131e28601818152019062000ddf565b906131e28401820360206131e28601015262000ddf565b92151560406131e28301015260606131e282018403916131e201015262000ddf565b908d60806131e282018403916131e201015262000ddf565b906131e28c01820360a08d6131e201015262000ddf565b906131e28a01820360c06131e28c01015262000ddf565b906131e28801820360e06131e28a01015262000ddf565b906131e2860182036101006131e28801015262000ddf565b906131e2840182036101206131e28601015251808252602082019160208260051b82010193926000915b8383106200093857610144356001600160a01b03166131e288016101408101919091523361016082015261016435420161018090910152868603876000f08015620001e65760018060a01b0316600154600160401b81101562000922578060016200087a920160015562000d68565b81546001600160a01b03600392831b81811b199092169185901b9190911790925561014435909116600081815260026020908152604080832080546001600160a01b031990811688179091556101643542018085529583528184208054909116871790558383526004825291829020805460ff1916600117905590519283529092917f05db8c89f9a4d721e714415c427f82149ef6d0dd9334f7ab0f3043fe81050e199190a3005b634e487b7160e01b600052604160045260246000fd5b91939550919360208062000959600193601f19868203018752895162000ddf565b970193019301909286959492936200080b565b60405162461bcd60e51b815260206004820152601c60248201527f596f7520616c7265616479206861766520616e206163636f756e742e000000006044820152606490fd5b6001600160401b03833511620001f257602080602492620009db3685883561012435010162000cca565b815201930192905062000658565b34620001f2576020366003190112620001f2576001600160a01b038062000a0f62000c45565b1660005260066020526040600020908154166200042e60018301549260ff600360028301549201541690604051948594859260609295949195608085019660018060a01b03168552602085015260408401521515910152565b6020366003190112620001f25760043562000a833362000eb3565b1562000a9457620002299062000f14565b60405162000aa28162000c5c565b3381528160208201524260408201526001806060830152806000905b62000b7d575b50600554600160401b811015620009225762000ae591810160055562000d17565b91909162000b675762000afd8162000b119362000e31565b336000526006602052604060002062000e31565b6040519081527f4b90d6788928d63c1821907a6a8b95f40d26562d8fe41b105f7489db9966dfcb60203392a26000805481908190819034906001600160a01b03165af162000b5e62000e7e565b5015620001f257005b634e487b7160e01b600052600060045260246000fd5b815481101562000c005762000b928162000d68565b905460039190911b1c6001600160a01b031690813b15620001f25760008092602460405180958193637b0f27d360e11b83523360048401525af1908115620001e657839262000be79262000bee575062000e21565b9062000abe565b62000bf99062000c78565b86620001c3565b62000ac4565b34620001f2576020366003190112620001f2576020906001600160a01b0362000c2e62000c45565b166000526004825260ff6040600020541615158152f35b600435906001600160a01b0382168203620001f257565b608081019081106001600160401b038211176200092257604052565b6001600160401b0381116200092257604052565b90601f801991011681019081106001600160401b038211176200092257604052565b6001600160401b0381116200092257601f01601f191660200190565b81601f82011215620001f25780359062000ce48262000cae565b9262000cf4604051948562000c8c565b82845260208383010111620001f257816000926020809301838601378301015290565b60055481101562000d5257600560005260021b7f036b6384b5eca791c62761152d0c79bb0604c104a5fb6f4eb0703f3154bb3db00190600090565b634e487b7160e01b600052603260045260246000fd5b60015481101562000d525760016000527fb10e2d527612073b26eecdfd717e6a320cf44b4afac2b0732d9fcbe2b7fa0cf60190600090565b1562000da857565b60405162461bcd60e51b815260206004820152600f60248201526e2737ba1020baba3437b934bd32b21760891b6044820152606490fd5b919082519283825260005b84811062000e0c575050826000602080949584010152601f8019910116010190565b60208183018101518483018201520162000dea565b6000198114620002135760010190565b600360609160018060a01b038451166bffffffffffffffffffffffff60a01b825416178155602084015160018201556040840151600282015501910151151560ff80198354169116179055565b3d1562000eae573d9062000e928262000cae565b9162000ea2604051938462000c8c565b82523d6000602084013e565b606090565b60018060a01b03809116806000526006602052604060002091606060ff60036040519362000ee18562000c5c565b86541680855260018701546020860152600287015460408601529501541615159101520362000f0f57600190565b600090565b60009033825260066020526040822060038101805460ff81161562000f97575b50508160018201556002429101556040519081527f4b90d6788928d63c1821907a6a8b95f40d26562d8fe41b105f7489db9966dfcb60203392a28080808060018060a01b0381541634905af162000f8a62000e7e565b501562000f945750565b80fd5b60ff19166001179055388062000f3456fe610100604052346200027d57620031e2620000208138038060805262000fb7565b908160a052608051913960a05160805181016101a0828203126200027d5781516001600160401b0381116200027d576200005b920162000fdd565b60a0516020810151906001600160401b0382116200027d5762000085916080518201910162000fdd565b60a0519060408201519182151583036200027d576060810151906001600160401b0382116200027d57620000c0916080518201910162000fdd565b60a0516080810151906001600160401b0382116200027d57620000ea916080518201910162000fdd565b60a0805190810151919591906001600160401b0382116200027d5762000117916080518201910162000fdd565b60a05160c0810151919391906001600160401b0382116200027d5762000144916080518201910162000fdd565b60a05160e0810151906001600160401b0382116200027d576200016e916080518201910162000fdd565b60a051610100810151906001600160401b0382116200027d5762000199916080518201910162000fdd565b60a05161012081015160c08190529193916001600160401b03106200027d5760805160c05182019101601f820112156200027d575160e08190526001600160401b0310620007c157620001f4602060e05160051b0162000fb7565b9560208760e051815201998a9560805160a051908101602060e05160051b60c05184010101116200027d5760c051016020019b5b60a0518d602060e05160051b60c05184010101111562000282578d51916001600160401b0383116200027d57620002716020939284809460805183019260c05101010162000fdd565b8152019c019b62000228565b600080fd5b5050610140989a620002a69a610180620002ae61016060a0519e8f9e8f016200104f565b9d016200104f565b9c015199620002bf60025462001064565b601f811162000f75575b50600e6650656e64696e6760c81b016002558051906001600160401b038211620007c1578190620002fc60045462001064565b601f811162000f22575b50602090601f831160011462000e935760009262000e87575b50508160011b916000199060031b1c1916176004555b8051906001600160401b038211620007c15781906200035660055462001064565b601f811162000e50575b50602090601f831160011462000dc15760009262000db5575b50508160011b916000199060031b1c1916176005555b60ff801960065416911515161760065580519060018060401b038211620007c1578190620003bf60075462001064565b601f811162000d73575b50602090601f831160011462000cf55760009262000ce9575b50508160011b916000199060031b1c1916176007555b8051906001600160401b038211620007c15781906200041960085462001064565b601f811162000ca7575b50602090601f831160011462000c295760009262000c1d575b50508160011b916000199060031b1c1916176008555b8051906001600160401b038211620007c15781906200047360095462001064565b601f811162000bdb575b50602090601f831160011462000b5d5760009262000b51575b50508160011b916000199060031b1c1916176009555b8051906001600160401b038211620007c1578190620004cd600a5462001064565b601f811162000b0f575b50602090601f831160011462000a955760009262000a89575b50508160011b916000199060031b1c191617600a555b8051906001600160401b038211620007c157819062000527600b5462001064565b601f811162000a36575b50602090601f8311600114620009ab576000926200099f575b50508160011b916000199060031b1c191617600b555b8051906001600160401b038211620007c157819062000581600c5462001064565b601f81116200094c575b50602090601f8311600114620008c157600092620008b5575b50508160011b916000199060031b1c191617600c555b845115620007d757518051906001600160401b038211620007c1578190620005e4600d5462001064565b601f811162000873575b50602090601f8311600114620007f957600092620007ed575b50508160011b916000199060031b1c191617600d555b835193600194851015620007d757604001518051906001600160401b038211620007c157819062000650600e5462001064565b601f811162000773575b50602090601f8311600114620006fc57600092620006f0575b5050600019600383901b1c191690851b17600e555b6010556000600f5560018060a01b038091169060018060a01b03199282846000541617600055168092845416178355600052601360205260406000208260ff1982541617905560005260406000209060ff198254161790556040516120679081620010bb8239f35b01519050868062000673565b600e600090815288945060008051602062003122833981519152929190601f198516905b8181106200075a5750841162000740575b505050811b01600e5562000688565b015160001960f88460031b161c1916905586808062000731565b8284015185558a96909401936020938401930162000720565b600e600052620007af9060008051602062003122833981519152601f850160051c81019160208610620007b6575b601f0160051c0190620010a1565b876200065a565b9091508190620007a1565b634e487b7160e01b600052604160045260246000fd5b634e487b7160e01b600052603260045260246000fd5b01519050868062000607565b600d6000908152600080516020620031628339815191529350601f198516905b8181106200085a575090846001959493921062000840575b505050811b01600d556200061d565b015160001960f88460031b161c1916905586808062000831565b9293602060018192878601518155019501930162000819565b600d600052620008ae9060008051602062003162833981519152601f850160051c81019160208610620007b657601f0160051c0190620010a1565b87620005ee565b015190508780620005a4565b600c60009081527fdf6966c971051c3d54ec59162606531493a51404a002842f56009d7e5cf4a8c79350601f198516905b81811062000933575090846001959493921062000919575b505050811b01600c55620005ba565b015160001960f88460031b161c191690558780806200090a565b92936020600181928786015181550195019301620008f2565b600c60005262000998907fdf6966c971051c3d54ec59162606531493a51404a002842f56009d7e5cf4a8c7601f850160051c81019160208610620007b657601f0160051c0190620010a1565b886200058b565b0151905088806200054a565b600b60009081527f0175b7a638427703f0dbe7bb9bbf987a2551717b34e79f33b5b1008d1fa01db99350601f198516905b81811062000a1d575090846001959493921062000a03575b505050811b01600b5562000560565b015160001960f88460031b161c19169055888080620009f4565b92936020600181928786015181550195019301620009dc565b600b60005262000a82907f0175b7a638427703f0dbe7bb9bbf987a2551717b34e79f33b5b1008d1fa01db9601f850160051c81019160208610620007b657601f0160051c0190620010a1565b8962000531565b015190508980620004f0565b600a6000908152600080516020620031428339815191529350601f198516905b81811062000af6575090846001959493921062000adc575b505050811b01600a5562000506565b015160001960f88460031b161c1916905589808062000acd565b9293602060018192878601518155019501930162000ab5565b600a60005262000b4a9060008051602062003142833981519152601f850160051c81019160208610620007b657601f0160051c0190620010a1565b8a620004d7565b015190508a8062000496565b600960009081529350600080516020620031c283398151915291905b601f198416851062000bbf576001945083601f1981161062000ba5575b505050811b01600955620004ac565b015160001960f88460031b161c191690558a808062000b96565b8181015183556020948501946001909301929091019062000b79565b600960005262000c1690600080516020620031c2833981519152601f850160051c81019160208610620007b657601f0160051c0190620010a1565b8b6200047d565b015190508b806200043c565b600860009081529350600080516020620031a283398151915291905b601f198416851062000c8b576001945083601f1981161062000c71575b505050811b0160085562000452565b015160001960f88460031b161c191690558b808062000c62565b8181015183556020948501946001909301929091019062000c45565b600860005262000ce290600080516020620031a2833981519152601f850160051c81019160208610620007b657601f0160051c0190620010a1565b8c62000423565b015190508c80620003e2565b6007600090815293506000805160206200318283398151915291905b601f198416851062000d57576001945083601f1981161062000d3d575b505050811b01600755620003f8565b015160001960f88460031b161c191690558c808062000d2e565b8181015183556020948501946001909301929091019062000d11565b600760005262000dae9060008051602062003182833981519152601f850160051c81019160208610620007b657601f0160051c0190620010a1565b8d620003c9565b015190508e8062000379565b6005600090815293507f036b6384b5eca791c62761152d0c79bb0604c104a5fb6f4eb0703f3154bb3db091905b601f198416851062000e34576001945083601f1981161062000e1a575b505050811b016005556200038f565b015160001960f88460031b161c191690558e808062000e0b565b8181015183556020948501946001909301929091019062000dee565b62000e809060056000526020600020601f850160051c81019160208610620007b657601f0160051c0190620010a1565b8f62000360565b015190508f806200031f565b6004600090815293507f8a35acfbc15ff81a39ae7d344fd709f28e8600b4aa8c65c6b64bfe7fe36bd19b91905b601f198416851062000f06576001945083601f1981161062000eec575b505050811b0160045562000335565b015160001960f88460031b161c191690558f808062000edd565b8181015183556020948501946001909301929091019062000ec0565b600460005262000f6e907f8a35acfbc15ff81a39ae7d344fd709f28e8600b4aa8c65c6b64bfe7fe36bd19b601f850160051c81019160208610620007b657601f0160051c0190620010a1565b3862000306565b600260005262000fb090601f0160051c7f405787fa12a823e0f2b7631cc41b3ba8828b3321ca811111fa75cd3aa3bb5ace90810190620010a1565b8e620002c9565b6040519190601f01601f191682016001600160401b03811183821017620007c157604052565b919080601f840112156200027d5782516001600160401b038111620007c15760209062001013601f8201601f1916830162000fb7565b928184528282870101116200027d5760005b8181106200103b57508260009394955001015290565b858101830151848201840152820162001025565b51906001600160a01b03821682036200027d57565b90600182811c9216801562001096575b60208310146200108057565b634e487b7160e01b600052602260045260246000fd5b91607f169162001074565b818110620010ad575050565b60008155600101620010a156fe608060408181526004918236101561001657600080fd5b60009260e08435811c9283631109fe1a1461153c5750826317d7de7c146114495782631865c57d1461137f5782631a092541146112b557826324db757f146111eb57826328ec3777146110f05782632b8cd7e1146110ca5782633200e26d14611000578263370bc5be14610f86578263423646ac14610f51578263469266c814610ed1578263472b327514610e075782636a4d879114610da25782636af1ef4414610d3f5782636bd4ffd314610d065782637cabb9d814610cd15782637e79e8ba14610c0757826382d7313414610bd6578263872a720a1461097a578263893d20e81461093c57826389a86487146108e0578263967e6e651461081657826396c3d10b1461074c57826397c99e92146106bc5782639e0c3ead146105b7578263a254fcbc14610565578263a6f9dae1146104f6578263dcc601281461031757508163f079914f146102de578163f38f23ca1461021c57508063f61e4fa6146101e25763f6f6ff121461018757600080fd5b346101de5760203660031901126101de576101406101d5826020946101aa61166f565b338252601387526101c060ff8484205416611776565b6001600160a01b0316815260128652206118fc565b01519051908152f35b5080fd5b50346101de5760203660031901126101de576001600160a01b0361020461166f565b16825260136020528120805460ff1916600117905580f35b919050346102da5760203660031901126102da5760099061023b61166f565b338552601360205261025260ff8387205416611776565b6001600160a01b031684526012602052832060088082018054909181901c60ff16156102c8575b505001805460001992918382019182116102b55755600f549182019182116102a25750600f5580f35b634e487b7160e01b835260119052602482fd5b634e487b7160e01b855260118352602485fd5b61ff0019166101001790553880610279565b8280fd5b5050346101de57816003193601126101de5761030860ff8260209433815260138652205416611776565b60ff6006541690519015158152f35b838286346104f357806003193601126104f35733815260206013815261034260ff8584205416611776565b6011549267ffffffffffffffff84116104e05750835190610368818560051b01836116fd565b8382526011835280820193837f31ecc21a745e3968a04e9570e4425bc18fa8019c68028196b546d1669c200c68865b8383106104bb5750505050845194818601928287525180935280860190808460051b8801019594975b8489106103cd5787870388f35b9091929394958480600192603f198b820301875289519061048461047461046161044e61043b6104196104098851610160808a5289019061168a565b898901518882038b8a015261168a565b8a8060a01b038d890151168d880152606080890151908883039089015261168a565b608080880151908783039088015261168a565b60a080870151908683039087015261168a565b60c080860151908583039086015261168a565b878401518382038985015261168a565b91610100808201511515908301526101208082015115159083015261014080910151910152980194019801979190949392946103c0565b600a856001926104ce859a98999a6118fc565b81520192019201919095949395610397565b634e487b7160e01b835260419052602482fd5b80fd5b84346104f35760203660031901126104f35761051061166f565b8154906001600160a01b039033828416148015610558575b610531906118be565b61053f60ff600354166119b9565b16906bffffffffffffffffffffffff60a01b1617815580f35b5060015482163314610528565b505050346101de5760203660031901126101de5760ff8160209361058761166f565b3382526013865261059c848484205416611776565b6001600160a01b031681526013855220549151911615158152f35b505050346101de57816003193601126101de57338252602090601382526105e360ff8285205416611776565b805183819490600a546105f5816117de565b91828552600191878382169182600014610695575050600114610639575b50505061063592916106269103856116fd565b5192828493845283019061168a565b0390f35b9190869350600a83527fc65a7bb8d6351c1cf70c95a316cc6a92839c986682d98bc35f958f4883f9d2a85b82841061067d5750505082010181610626610635610613565b8054848a018601528895508794909301928101610664565b60ff19168782015293151560051b8601909301935084925061062691506106359050610613565b848285346102da5760203660031901126102da576009906106db61166f565b33855260136020526106f260ff8387205416611776565b6001600160a01b031684526012602052832060088101805460ff81161561073c57505001805460001992918382019182116102b55755600f549182019182116102a25750600f5580f35b60ff191660011790558480610279565b505050346101de57816003193601126101de573382526020906013825261077860ff8285205416611776565b805183819490600d5461078a816117de565b918285526001918783821691826000146106955750506001146107ba5750505061063592916106269103856116fd565b9190869350600d83527fd7b6990105719101dabeb77144f2a3385c8033acd3af97e9423a695e81ad1eb55b8284106107fe5750505082010181610626610635610613565b8054848a0186015288955087949093019281016107e5565b505050346101de57816003193601126101de573382526020906013825261084260ff8285205416611776565b805183819490600854610854816117de565b918285526001918783821691826000146106955750506001146108845750505061063592916106269103856116fd565b9190869350600883527ff3f7a9fe364faab93b216da50a3214154f22a0a2b415b23a84c8169e8b636ee35b8284106108c85750505082010181610626610635610613565b8054848a0186015288955087949093019281016108af565b505050346101de5760203660031901126101de57602091816109328161090461166f565b933381526013875261091b60ff8383205416611776565b6001600160a01b03948516815260128752206118fc565b0151169051908152f35b505050346101de57816003193601126101de576020913381526013835261096860ff8383205416611776565b5490516001600160a01b039091168152f35b84918434610bd2576101009182600319360112610bce5767ffffffffffffffff8582358281116101de576109b1903690850161171f565b946024358381116102da576109c9903690860161171f565b926044359760018060a01b0391828a16809a03610bce57606435818111610bca576109f7903690890161171f565b608435828111610bc657610a0e9036908a0161171f565b60a435838111610bc257610a259036908b0161171f565b9160c435848111610bbe57610a3d9036908c0161171f565b9360e435908111610bbe57610a58610a6d9136908d0161171f565b96808a54163314908115610bb0575b506118be565b610a7b60ff600354166119b9565b8a5198610a878a6116ca565b8c8a5260208a01528c8b8a01526060890152608088015260a087015260c086015284015282015285610120820152606461014082015260115468010000000000000000811015610b9d576001810180601155811015610b8a5790610b1781600a610b279460118b52027f31ecc21a745e3968a04e9570e4425bc18fa8019c68028196b546d1669c200c6801611a9d565b8587526012602052838720611a9d565b600f549060648201809211610b775750600f555160208082527f3f59d974cb323c784e37c2bf72b6b6f11983b4d23545adf73f81b553873a539c928291610b71919083019061168a565b0390a280f35b634e487b7160e01b865260119052602485fd5b634e487b7160e01b875260328352602487fd5b634e487b7160e01b875260418352602487fd5b905060015416331438610a67565b8880fd5b8780fd5b8680fd5b8580fd5b8480fd5b8380fd5b505050346101de5760203660031901126101de57610120610bfc826020946101aa61166f565b015115159051908152f35b505050346101de57816003193601126101de5733825260209060138252610c3360ff8285205416611776565b805183819490600754610c45816117de565b91828552600191878382169182600014610695575050600114610c755750505061063592916106269103856116fd565b9190869350600783527fa66cc928b5edb82af9bd49922954155ab7b0942694bea4ce44661d9a8736c6885b828410610cb95750505082010181610626610635610613565b8054848a018601528895508794909301928101610ca0565b505050346101de57816003193601126101de57610cfc60ff8260209433815260138652205416611776565b6010549051908152f35b505050346101de5760203660031901126101de576001600160a01b03610d2a61166f565b16825260136020528120805460ff1916905580f35b8385346104f357602090816003193601126104f35781610d908461063593610d6561166f565b33825260138552610d7b60ff8484205416611776565b6001600160a01b0316815260128452206118fc565b0151925192828493845283019061168a565b505050346101de5760203660031901126101de57610df38161063593610dc661166f565b3382526013602052610ddd60ff8484205416611776565b6001600160a01b031681526012602052206118fc565b51905191829160208352602083019061168a565b505050346101de57816003193601126101de5733825260209060138252610e3360ff8285205416611776565b805183819490600c54610e45816117de565b91828552600191878382169182600014610695575050600114610e755750505061063592916106269103856116fd565b9190869350600c83527fdf6966c971051c3d54ec59162606531493a51404a002842f56009d7e5cf4a8c75b828410610eb95750505082010181610626610635610613565b8054848a018601528895508794909301928101610ea0565b84346104f357806003193601126104f357610ef760018060a01b036001541633146118be565b610f0a610f056002546117de565b6119f5565b60186b139bdd0815995c9a599a595960a21b016002556003805460ff191690557fcba605a3f5685de65463c9180ca28791ffb1417ec9a41915215c382c4908293e8180a180f35b505050346101de57816003193601126101de57610f7c60ff8260209433815260138652205416611776565b600f549051908152f35b84346104f357806003193601126104f357610fac60018060a01b036001541633146118be565b610fba610f056002546117de565b60106715995c9a599a595960c21b016002556003805460ff191660011790557f2e5e1405bcc465f1fe8b5964e79910ef9548bb882e1bae02ca901e855a7a4ff58180a180f35b505050346101de57816003193601126101de573382526020906013825261102c60ff8285205416611776565b80518381949060025461103e816117de565b9182855260019187838216918260001461069557505060011461106e5750505061063592916106269103856116fd565b9190869350600283527f405787fa12a823e0f2b7631cc41b3ba8828b3321ca811111fa75cd3aa3bb5ace5b8284106110b25750505082010181610626610635610613565b8054848a018601528895508794909301928101611099565b505050346101de5760203660031901126101de57610100610bfc826020946101aa61166f565b8385346104f357806003193601126104f35760019161111960018060a01b0384541633146118be565b8051918093600e549161112b836117de565b808652928281169081156111c35750600114611166575b505050611154826106359403836116fd565b5191829160208352602083019061168a565b9450600e85527fbb7b4a454dc3493923482f07822329ed19e8244eff582cc204f8554c3620c3fd5b8286106111ab575050506111548260206106359582010194611142565b8054602087870181019190915290950194810161118e565b61063597508693506020925061115494915060ff191682840152151560051b82010194611142565b505050346101de57816003193601126101de573382526020906013825261121760ff8285205416611776565b805183819490600954611229816117de565b918285526001918783821691826000146106955750506001146112595750505061063592916106269103856116fd565b9190869350600983527f6e1540171b6c0c960b71a7020d9f60077f6af931a8bbf590da0223dacf75c7af5b82841061129d5750505082010181610626610635610613565b8054848a018601528895508794909301928101611284565b505050346101de57816003193601126101de57338252602090601382526112e160ff8285205416611776565b8051838194906005546112f3816117de565b918285526001918783821691826000146106955750506001146113235750505061063592916106269103856116fd565b9190869350600583527f036b6384b5eca791c62761152d0c79bb0604c104a5fb6f4eb0703f3154bb3db05b8284106113675750505082010181610626610635610613565b8054848a01860152889550879490930192810161134e565b505050346101de57816003193601126101de57338252602090601382526113ab60ff8285205416611776565b805183819490600b546113bd816117de565b918285526001918783821691826000146106955750506001146113ed5750505061063592916106269103856116fd565b9190869350600b83527f0175b7a638427703f0dbe7bb9bbf987a2551717b34e79f33b5b1008d1fa01db95b8284106114315750505082010181610626610635610613565b8054848a018601528895508794909301928101611418565b848285346102da57826003193601126102da573383526020916013835261147560ff8386205416611776565b815193849181815490611487826117de565b928386526001928884821691826000146115125750506001146114b7575b858861063589610626848a03856116fd565b815286935091907f8a35acfbc15ff81a39ae7d344fd709f28e8600b4aa8c65c6b64bfe7fe36bd19b5b8284106114fa5750505082010181610626610635886114a5565b8054848a0186015288955087949093019281016114e0565b60ff19168882015294151560051b87019094019450859350610626925061063591508990506114a5565b9184869234610bd25760209485600319360112610bce5761155b61166f565b60a0908183019267ffffffffffffffff938181108582111761165c57865288885b84811061164e575050503387526013885261159c60ff8689205416611776565b6001600160a01b03168652601287528386206115b7906118fc565b91845195828701918783109083111761163b57508452606082015185526080820151878601528101518385015260c0810151606085015201516080830152519183830184845260c084019291945b600586106116135784840385f35b909192818061162e600193601f19898203018752875161168a565b9501930195019490611605565b634e487b7160e01b885260419052602487fd5b60608184015201899061157c565b634e487b7160e01b895260418852602489fd5b600435906001600160a01b038216820361168557565b600080fd5b919082519283825260005b8481106116b6575050826000602080949584010152601f8019910116010190565b602081830181015184830182015201611695565b610160810190811067ffffffffffffffff8211176116e757604052565b634e487b7160e01b600052604160045260246000fd5b90601f8019910116810190811067ffffffffffffffff8211176116e757604052565b81601f820112156116855780359067ffffffffffffffff82116116e75760405192611754601f8401601f1916602001856116fd565b8284526020838301011161168557816000926020809301838601378301015290565b1561177d57565b60405162461bcd60e51b815260206004820152603360248201527f596f7520617265206e6f7420617574686f72697a656420746f20706572666f7260448201527236903a3434b9903a3930b739b0b1ba34b7b71760691b6064820152608490fd5b90600182811c9216801561180e575b60208310146117f857565b634e487b7160e01b600052602260045260246000fd5b91607f16916117ed565b906040519182600082549261182c846117de565b90818452600194858116908160001461189b5750600114611858575b5050611856925003836116fd565b565b9093915060005260209081600020936000915b81831061188357505061185693508201013880611848565b8554888401850152948501948794509183019161186b565b91505061185694506020925060ff191682840152151560051b8201013880611848565b156118c557565b60405162461bcd60e51b815260206004820152600f60248201526e2737ba1020baba3437b934bd32b21760891b6044820152606490fd5b90604051611909816116ca565b6101406009829461191981611818565b845261192760018201611818565b602085015260028101546001600160a01b0316604085015261194b60038201611818565b606085015261195c60048201611818565b608085015261196d60058201611818565b60a085015261197e60068201611818565b60c085015261198f60078201611818565b60e085015260ff6008820154818116151561010087015260081c1615156101208501520154910152565b156119c057565b60405162461bcd60e51b815260206004820152600d60248201526c2737ba103b32b934b334b2b21760991b6044820152606490fd5b601f8111611a005750565b600060028152601f7f405787fa12a823e0f2b7631cc41b3ba8828b3321ca811111fa75cd3aa3bb5ace920160051c8201915b828110611a3e57505050565b818155600101611a32565b90601f8111611a5757505050565b600091825260208220906020601f850160051c83019410611a93575b601f0160051c01915b828110611a8857505050565b818155600101611a7c565b9092508290611a73565b908051805167ffffffffffffffff908181116116e757611ac781611ac187546117de565b87611a49565b806020601f94858311600114611fcc57600092611fc1575b50508160011b916000199060031b1c19161784555b600180850160208501518051908482116116e7578190611b1e82611b1886546117de565b86611a49565b602090878311600114611f5e57600092611f53575b5050600019600383901b1c191690831b1790555b6002850160018060a01b036040860151166bffffffffffffffffffffffff60a01b82541617905560039081860160608601518051908582116116e7578190611b9382611b1886546117de565b602090888311600114611ef157600092611ee6575b505060001982861b1c191690831b1790555b6004860160808601518051908582116116e7578190611bdd82611b1886546117de565b602090888311600114611e8457600092611e79575b505060001982861b1c191690831b1790555b6005860160a08601518051908582116116e7578190611c2782611b1886546117de565b602090888311600114611e1757600092611e0c575b505060001982861b1c191690831b1790555b6006860160c08601518051908582116116e7578190611c7182611b1886546117de565b602090888311600114611daa57600092611d9f575b505060001982861b1c191690831b1790555b600786019360e086015180519485116116e757611cbf85611cb988546117de565b88611a49565b6020918511600114611d2e579284809360099896936101409896600095611d23575b50501b92600019911b1c19161790555b600884016101008201511515815460ff61ff00610120860151151560081b1692169061ffff1916171790550151910155565b015193503880611ce1565b91939290601f1984169286600052816000209360005b818110611d89575091859391610140989660099a98969410611d6f575b50505050811b019055611cf1565b01519060f884600019921b161c1916905538808080611d61565b8284015186559487019460209384019301611d44565b015190503880611c86565b90859350601f1983169185600052816000209260005b818110611df457508411611ddc575b505050811b019055611c98565b015160001983881b60f8161c19169055388080611dcf565b82840151855588969094019360209384019301611dc0565b015190503880611c3c565b90859350601f1983169185600052816000209260005b818110611e6157508411611e49575b505050811b019055611c4e565b015160001983881b60f8161c19169055388080611e3c565b82840151855588969094019360209384019301611e2d565b015190503880611bf2565b90859350601f1983169185600052816000209260005b818110611ece57508411611eb6575b505050811b019055611c04565b015160001983881b60f8161c19169055388080611ea9565b82840151855588969094019360209384019301611e9a565b015190503880611ba8565b90859350601f1983169185600052816000209260005b818110611f3b57508411611f23575b505050811b019055611bba565b015160001983881b60f8161c19169055388080611f16565b82840151855588969094019360209384019301611f07565b015190503880611b33565b90859350601f1983169185600052816000209260005b818110611fa957508411611f90575b505050811b019055611b47565b015160001960f88460031b161c19169055388080611f83565b82840151855588969094019360209384019301611f74565b015190503880611adf565b60008881528281209350601f198516905b8181106120195750908460019594939210612000575b505050811b018455611af4565b015160001960f88460031b161c19169055388080611ff3565b92936020600181928786015181550195019301611fdd56fea2646970667358221220a0675e91feac699034896d891ddc1c47f8f42c8968674c06c6472fd0f190229764736f6c63430008130033bb7b4a454dc3493923482f07822329ed19e8244eff582cc204f8554c3620c3fdc65a7bb8d6351c1cf70c95a316cc6a92839c986682d98bc35f958f4883f9d2a8d7b6990105719101dabeb77144f2a3385c8033acd3af97e9423a695e81ad1eb5a66cc928b5edb82af9bd49922954155ab7b0942694bea4ce44661d9a8736c688f3f7a9fe364faab93b216da50a3214154f22a0a2b415b23a84c8169e8b636ee36e1540171b6c0c960b71a7020d9f60077f6af931a8bbf590da0223dacf75c7afa264697066735822122095a0797a83e0de883b1880be6d2596126739cebcb75ad1c8f1b5a7bf39e456ec64736f6c63430008130033",
  "linkReferences": {},
  "deployedLinkReferences": {}
}