{
  "_format": "hh-sol-artifact-1",
  "contractName": "IDBot",
  "sourceName": "contracts/IDBot.sol",
  "abi": [
    {
      "inputs": [],
      "stateMutability": "nonpayable",
      "type": "constructor"
    },
    {
      "anonymous": false,
      "inputs": [
        {
          "indexed": true,
          "internalType": "address",
          "name": "contract_address",
          "type": "address"
        },
        {
          "indexed": false,
          "internalType": "string",
          "name": "name",
          "type": "string"
        }
      ],
      "name": "AddProject",
      "type": "event"
    },
    {
      "anonymous": false,
      "inputs": [
        {
          "indexed": true,
          "internalType": "address",
          "name": "user",
          "type": "address"
        },
        {
          "indexed": false,
          "internalType": "uint256",
          "name": "profileId",
          "type": "uint256"
        }
      ],
      "name": "CreateProfile",
      "type": "event"
    },
    {
      "anonymous": false,
      "inputs": [
        {
          "indexed": true,
          "internalType": "address",
          "name": "user",
          "type": "address"
        },
        {
          "indexed": false,
          "internalType": "uint256",
          "name": "duration",
          "type": "uint256"
        }
      ],
      "name": "Subscribed",
      "type": "event"
    },
    {
      "anonymous": false,
      "inputs": [
        {
          "indexed": false,
          "internalType": "address",
          "name": "user",
          "type": "address"
        }
      ],
      "name": "Unverified",
      "type": "event"
    },
    {
      "anonymous": false,
      "inputs": [
        {
          "indexed": false,
          "internalType": "address",
          "name": "user",
          "type": "address"
        }
      ],
      "name": "Verified",
      "type": "event"
    },
    {
      "inputs": [
        {
          "internalType": "uint256",
          "name": "",
          "type": "uint256"
        }
      ],
      "name": "_subscribers",
      "outputs": [
        {
          "internalType": "address",
          "name": "user",
          "type": "address"
        },
        {
          "internalType": "uint256",
          "name": "duration",
          "type": "uint256"
        },
        {
          "internalType": "uint256",
          "name": "startedAt",
          "type": "uint256"
        },
        {
          "internalType": "bool",
          "name": "isActive",
          "type": "bool"
        }
      ],
      "stateMutability": "view",
      "type": "function"
    },
    {
      "inputs": [
        {
          "internalType": "address",
          "name": "",
          "type": "address"
        }
      ],
      "name": "access_list",
      "outputs": [
        {
          "internalType": "bool",
          "name": "",
          "type": "bool"
        }
      ],
      "stateMutability": "view",
      "type": "function"
    },
    {
      "inputs": [
        {
          "internalType": "string",
          "name": "_name",
          "type": "string"
        },
        {
          "internalType": "string",
          "name": "_description",
          "type": "string"
        },
        {
          "internalType": "address",
          "name": "_contract_address",
          "type": "address"
        },
        {
          "internalType": "string",
          "name": "_chain",
          "type": "string"
        },
        {
          "internalType": "string",
          "name": "_website_link",
          "type": "string"
        },
        {
          "internalType": "string",
          "name": "_telegram_link",
          "type": "string"
        },
        {
          "internalType": "string",
          "name": "_twitter_link",
          "type": "string"
        },
        {
          "internalType": "string",
          "name": "_discord_link",
          "type": "string"
        },
        {
          "internalType": "string",
          "name": "_linktree",
          "type": "string"
        }
      ],
      "name": "addProject",
      "outputs": [],
      "stateMutability": "nonpayable",
      "type": "function"
    },
    {
      "inputs": [
        {
          "internalType": "address",
          "name": "user",
          "type": "address"
        }
      ],
      "name": "addVerification",
      "outputs": [],
      "stateMutability": "nonpayable",
      "type": "function"
    },
    {
      "inputs": [
        {
          "internalType": "address",
          "name": "ca",
          "type": "address"
        },
        {
          "internalType": "address",
          "name": "user",
          "type": "address"
        }
      ],
      "name": "checkIfProjectIsHoneyPot",
      "outputs": [
        {
          "internalType": "bool",
          "name": "",
          "type": "bool"
        }
      ],
      "stateMutability": "view",
      "type": "function"
    },
    {
      "inputs": [
        {
          "internalType": "address",
          "name": "ca",
          "type": "address"
        },
        {
          "internalType": "address",
          "name": "user",
          "type": "address"
        }
      ],
      "name": "checkIfProjectIsRugged",
      "outputs": [
        {
          "internalType": "bool",
          "name": "",
          "type": "bool"
        }
      ],
      "stateMutability": "view",
      "type": "function"
    },
    {
      "inputs": [
        {
          "internalType": "string",
          "name": "_name",
          "type": "string"
        },
        {
          "internalType": "string",
          "name": "_description",
          "type": "string"
        },
        {
          "internalType": "bool",
          "name": "_dev",
          "type": "bool"
        },
        {
          "internalType": "string",
          "name": "_email",
          "type": "string"
        },
        {
          "internalType": "string",
          "name": "_age",
          "type": "string"
        },
        {
          "internalType": "string",
          "name": "phone",
          "type": "string"
        },
        {
          "internalType": "string",
          "name": "_country",
          "type": "string"
        },
        {
          "internalType": "string",
          "name": "_state",
          "type": "string"
        },
        {
          "internalType": "string",
          "name": "_address",
          "type": "string"
        },
        {
          "internalType": "string[]",
          "name": "urls",
          "type": "string[]"
        },
        {
          "internalType": "uint256",
          "name": "number",
          "type": "uint256"
        }
      ],
      "name": "createProfile",
      "outputs": [],
      "stateMutability": "nonpayable",
      "type": "function"
    },
    {
      "inputs": [
        {
          "internalType": "address",
          "name": "user",
          "type": "address"
        }
      ],
      "name": "getAge",
      "outputs": [
        {
          "internalType": "string",
          "name": "",
          "type": "string"
        }
      ],
      "stateMutability": "view",
      "type": "function"
    },
    {
      "inputs": [
        {
          "internalType": "address",
          "name": "user",
          "type": "address"
        }
      ],
      "name": "getCountry",
      "outputs": [
        {
          "internalType": "string",
          "name": "",
          "type": "string"
        }
      ],
      "stateMutability": "view",
      "type": "function"
    },
    {
      "inputs": [
        {
          "internalType": "address",
          "name": "user",
          "type": "address"
        }
      ],
      "name": "getDescription",
      "outputs": [
        {
          "internalType": "string",
          "name": "",
          "type": "string"
        }
      ],
      "stateMutability": "view",
      "type": "function"
    },
    {
      "inputs": [
        {
          "internalType": "address",
          "name": "user",
          "type": "address"
        }
      ],
      "name": "getEmail",
      "outputs": [
        {
          "internalType": "string",
          "name": "",
          "type": "string"
        }
      ],
      "stateMutability": "view",
      "type": "function"
    },
    {
      "inputs": [
        {
          "internalType": "address",
          "name": "user",
          "type": "address"
        }
      ],
      "name": "getIDBotNumber",
      "outputs": [
        {
          "internalType": "uint256",
          "name": "",
          "type": "uint256"
        }
      ],
      "stateMutability": "view",
      "type": "function"
    },
    {
      "inputs": [
        {
          "internalType": "address",
          "name": "user",
          "type": "address"
        }
      ],
      "name": "getIdentityUrl",
      "outputs": [
        {
          "internalType": "string",
          "name": "",
          "type": "string"
        }
      ],
      "stateMutability": "view",
      "type": "function"
    },
    {
      "inputs": [
        {
          "internalType": "address",
          "name": "user",
          "type": "address"
        }
      ],
      "name": "getName",
      "outputs": [
        {
          "internalType": "string",
          "name": "",
          "type": "string"
        }
      ],
      "stateMutability": "view",
      "type": "function"
    },
    {
      "inputs": [
        {
          "internalType": "address",
          "name": "user",
          "type": "address"
        }
      ],
      "name": "getPhoneNumber",
      "outputs": [
        {
          "internalType": "string",
          "name": "",
          "type": "string"
        }
      ],
      "stateMutability": "view",
      "type": "function"
    },
    {
      "inputs": [
        {
          "internalType": "address",
          "name": "user",
          "type": "address"
        }
      ],
      "name": "getProfilePicUrl",
      "outputs": [
        {
          "internalType": "string",
          "name": "",
          "type": "string"
        }
      ],
      "stateMutability": "view",
      "type": "function"
    },
    {
      "inputs": [],
      "name": "getProfiles",
      "outputs": [
        {
          "components": [
            {
              "internalType": "address",
              "name": "user",
              "type": "address"
            },
            {
              "internalType": "uint256",
              "name": "idbot_number",
              "type": "uint256"
            },
            {
              "internalType": "string",
              "name": "name",
              "type": "string"
            },
            {
              "internalType": "string",
              "name": "description",
              "type": "string"
            },
            {
              "internalType": "bool",
              "name": "dev",
              "type": "bool"
            },
            {
              "internalType": "string",
              "name": "email",
              "type": "string"
            },
            {
              "internalType": "string",
              "name": "age",
              "type": "string"
            },
            {
              "internalType": "string",
              "name": "phone_number",
              "type": "string"
            },
            {
              "internalType": "string",
              "name": "country",
              "type": "string"
            },
            {
              "internalType": "string",
              "name": "state",
              "type": "string"
            },
            {
              "internalType": "string",
              "name": "residential_address",
              "type": "string"
            },
            {
              "internalType": "string",
              "name": "profile_pic_url",
              "type": "string"
            },
            {
              "internalType": "string",
              "name": "identity_url",
              "type": "string"
            },
            {
              "internalType": "uint256",
              "name": "reputation_score",
              "type": "uint256"
            },
            {
              "internalType": "string",
              "name": "verification_status",
              "type": "string"
            },
            {
              "internalType": "bool",
              "name": "verified",
              "type": "bool"
            },
            {
              "components": [
                {
                  "internalType": "string",
                  "name": "name",
                  "type": "string"
                },
                {
                  "internalType": "string",
                  "name": "description",
                  "type": "string"
                },
                {
                  "internalType": "address",
                  "name": "contract_address",
                  "type": "address"
                },
                {
                  "internalType": "string",
                  "name": "chain",
                  "type": "string"
                },
                {
                  "internalType": "string",
                  "name": "website_link",
                  "type": "string"
                },
                {
                  "internalType": "string",
                  "name": "telegram_link",
                  "type": "string"
                },
                {
                  "internalType": "string",
                  "name": "twitter_link",
                  "type": "string"
                },
                {
                  "internalType": "string",
                  "name": "discord_link",
                  "type": "string"
                },
                {
                  "internalType": "string",
                  "name": "linktree",
                  "type": "string"
                },
                {
                  "internalType": "bool",
                  "name": "isHoneyPot",
                  "type": "bool"
                },
                {
                  "internalType": "bool",
                  "name": "isRugged",
                  "type": "bool"
                },
                {
                  "internalType": "uint256",
                  "name": "reputation_score",
                  "type": "uint256"
                }
              ],
              "internalType": "struct IDBot.Project[]",
              "name": "projects",
              "type": "tuple[]"
            }
          ],
          "internalType": "struct IDBot.Profile[]",
          "name": "",
          "type": "tuple[]"
        }
      ],
      "stateMutability": "view",
      "type": "function"
    },
    {
      "inputs": [
        {
          "internalType": "address",
          "name": "ca",
          "type": "address"
        },
        {
          "internalType": "address",
          "name": "user",
          "type": "address"
        }
      ],
      "name": "getProjectContractAddress",
      "outputs": [
        {
          "internalType": "address",
          "name": "",
          "type": "address"
        }
      ],
      "stateMutability": "view",
      "type": "function"
    },
    {
      "inputs": [
        {
          "internalType": "address",
          "name": "ca",
          "type": "address"
        },
        {
          "internalType": "address",
          "name": "user",
          "type": "address"
        }
      ],
      "name": "getProjectDescription",
      "outputs": [
        {
          "internalType": "string",
          "name": "",
          "type": "string"
        }
      ],
      "stateMutability": "view",
      "type": "function"
    },
    {
      "inputs": [
        {
          "internalType": "address",
          "name": "ca",
          "type": "address"
        },
        {
          "internalType": "address",
          "name": "user",
          "type": "address"
        }
      ],
      "name": "getProjectLinks",
      "outputs": [
        {
          "internalType": "string[5]",
          "name": "",
          "type": "string[5]"
        }
      ],
      "stateMutability": "view",
      "type": "function"
    },
    {
      "inputs": [
        {
          "internalType": "address",
          "name": "ca",
          "type": "address"
        },
        {
          "internalType": "address",
          "name": "user",
          "type": "address"
        }
      ],
      "name": "getProjectName",
      "outputs": [
        {
          "internalType": "string",
          "name": "",
          "type": "string"
        }
      ],
      "stateMutability": "view",
      "type": "function"
    },
    {
      "inputs": [
        {
          "internalType": "address",
          "name": "ca",
          "type": "address"
        },
        {
          "internalType": "address",
          "name": "user",
          "type": "address"
        }
      ],
      "name": "getProjectReputationScore",
      "outputs": [
        {
          "internalType": "uint256",
          "name": "",
          "type": "uint256"
        }
      ],
      "stateMutability": "view",
      "type": "function"
    },
    {
      "inputs": [
        {
          "internalType": "address",
          "name": "user",
          "type": "address"
        }
      ],
      "name": "getProjects",
      "outputs": [
        {
          "components": [
            {
              "internalType": "string",
              "name": "name",
              "type": "string"
            },
            {
              "internalType": "string",
              "name": "description",
              "type": "string"
            },
            {
              "internalType": "address",
              "name": "contract_address",
              "type": "address"
            },
            {
              "internalType": "string",
              "name": "chain",
              "type": "string"
            },
            {
              "internalType": "string",
              "name": "website_link",
              "type": "string"
            },
            {
              "internalType": "string",
              "name": "telegram_link",
              "type": "string"
            },
            {
              "internalType": "string",
              "name": "twitter_link",
              "type": "string"
            },
            {
              "internalType": "string",
              "name": "discord_link",
              "type": "string"
            },
            {
              "internalType": "string",
              "name": "linktree",
              "type": "string"
            },
            {
              "internalType": "bool",
              "name": "isHoneyPot",
              "type": "bool"
            },
            {
              "internalType": "bool",
              "name": "isRugged",
              "type": "bool"
            },
            {
              "internalType": "uint256",
              "name": "reputation_score",
              "type": "uint256"
            }
          ],
          "internalType": "struct IDBot.Project[]",
          "name": "",
          "type": "tuple[]"
        }
      ],
      "stateMutability": "view",
      "type": "function"
    },
    {
      "inputs": [
        {
          "internalType": "address",
          "name": "user",
          "type": "address"
        }
      ],
      "name": "getReputationScore",
      "outputs": [
        {
          "internalType": "uint256",
          "name": "",
          "type": "uint256"
        }
      ],
      "stateMutability": "view",
      "type": "function"
    },
    {
      "inputs": [
        {
          "internalType": "address",
          "name": "user",
          "type": "address"
        }
      ],
      "name": "getResidentialAddress",
      "outputs": [
        {
          "internalType": "string",
          "name": "",
          "type": "string"
        }
      ],
      "stateMutability": "view",
      "type": "function"
    },
    {
      "inputs": [
        {
          "internalType": "address",
          "name": "user",
          "type": "address"
        }
      ],
      "name": "getState",
      "outputs": [
        {
          "internalType": "string",
          "name": "",
          "type": "string"
        }
      ],
      "stateMutability": "view",
      "type": "function"
    },
    {
      "inputs": [
        {
          "internalType": "uint256",
          "name": "idbot_number",
          "type": "uint256"
        }
      ],
      "name": "getUser",
      "outputs": [
        {
          "internalType": "address",
          "name": "",
          "type": "address"
        }
      ],
      "stateMutability": "view",
      "type": "function"
    },
    {
      "inputs": [
        {
          "internalType": "address",
          "name": "user",
          "type": "address"
        }
      ],
      "name": "getVerificationStatus",
      "outputs": [
        {
          "internalType": "string",
          "name": "",
          "type": "string"
        }
      ],
      "stateMutability": "view",
      "type": "function"
    },
    {
      "inputs": [
        {
          "internalType": "address",
          "name": "user",
          "type": "address"
        }
      ],
      "name": "isDev",
      "outputs": [
        {
          "internalType": "bool",
          "name": "",
          "type": "bool"
        }
      ],
      "stateMutability": "view",
      "type": "function"
    },
    {
      "inputs": [
        {
          "internalType": "address",
          "name": "",
          "type": "address"
        }
      ],
      "name": "isProfiled",
      "outputs": [
        {
          "internalType": "bool",
          "name": "",
          "type": "bool"
        }
      ],
      "stateMutability": "view",
      "type": "function"
    },
    {
      "inputs": [
        {
          "internalType": "address",
          "name": "_user",
          "type": "address"
        }
      ],
      "name": "isSubscribed",
      "outputs": [
        {
          "internalType": "bool",
          "name": "subscribed",
          "type": "bool"
        }
      ],
      "stateMutability": "view",
      "type": "function"
    },
    {
      "inputs": [],
      "name": "owner",
      "outputs": [
        {
          "internalType": "address",
          "name": "",
          "type": "address"
        }
      ],
      "stateMutability": "view",
      "type": "function"
    },
    {
      "inputs": [
        {
          "internalType": "address",
          "name": "user",
          "type": "address"
        }
      ],
      "name": "removeVerification",
      "outputs": [],
      "stateMutability": "nonpayable",
      "type": "function"
    },
    {
      "inputs": [
        {
          "internalType": "address",
          "name": "ca",
          "type": "address"
        },
        {
          "internalType": "address",
          "name": "user",
          "type": "address"
        }
      ],
      "name": "reportProjectIsHoneyPot",
      "outputs": [],
      "stateMutability": "nonpayable",
      "type": "function"
    },
    {
      "inputs": [
        {
          "internalType": "address",
          "name": "ca",
          "type": "address"
        },
        {
          "internalType": "address",
          "name": "user",
          "type": "address"
        }
      ],
      "name": "reportProjectIsRugged",
      "outputs": [],
      "stateMutability": "nonpayable",
      "type": "function"
    },
    {
      "inputs": [
        {
          "internalType": "uint256",
          "name": "_duration",
          "type": "uint256"
        }
      ],
      "name": "subscribe",
      "outputs": [],
      "stateMutability": "payable",
      "type": "function"
    },
    {
      "inputs": [
        {
          "internalType": "address",
          "name": "",
          "type": "address"
        }
      ],
      "name": "subscribers",
      "outputs": [
        {
          "internalType": "address",
          "name": "user",
          "type": "address"
        },
        {
          "internalType": "uint256",
          "name": "duration",
          "type": "uint256"
        },
        {
          "internalType": "uint256",
          "name": "startedAt",
          "type": "uint256"
        },
        {
          "internalType": "bool",
          "name": "isActive",
          "type": "bool"
        }
      ],
      "stateMutability": "view",
      "type": "function"
    },
    {
      "inputs": [],
      "name": "unsubscribe",
      "outputs": [],
      "stateMutability": "nonpayable",
      "type": "function"
    },
    {
      "inputs": [
        {
          "internalType": "uint256",
          "name": "_duration",
          "type": "uint256"
        }
      ],
      "name": "updateSubscription",
      "outputs": [],
      "stateMutability": "payable",
      "type": "function"
    }
  ],
  "bytecode": "0x6080806040523461004057600080546001600160a01b0319163390811782558152600760205260409020805460ff1916600117905561349790816100468239f35b600080fdfe6080604052600436101561001257600080fd5b60003560e01c80630c3f64bf146119d55780630e6db736146119965780630f574ba7146118865780631bab58f51461182f578063252c158f146117d85780632d1ce2ae1461177957806338451598146117225780633a63b9e614611636578063482d8ac7146115d55780634fa7353c1461157e57806353dae176146114e15780635745ae28146114675780635fd4b08a146114105780636103681a146113d3578063615f927e146113b257806375a67d5c1461135b57806381a36eec1461134457806384329ec5146112ed5780638da5cb5b146112c45780638e716d35146112855780639bbfa3851461121a578063a41e095d146111af578063b0467deb1461117b578063b213703314610e23578063b255055914610bf1578063b4b1d9c714610b9a578063b92ae87c14610b6d578063b9e426e814610b16578063bbae994614610a07578063cddd9312146109dc578063d6b5d05e14610985578063d821f92d1461092e578063dee138e914610847578063e17fc1b51461045b578063ef45ccab14610406578063f7d139cb14610362578063fcae448414610291578063fe2e027d1461022a5763fecf696d146101c957600080fd5b346102255760403660031901126102255760206101406102196101ea611a31565b6101f2611a47565b9060018060a01b0382166000526007855261021460ff60406000205416613302565b61337f565b01511515604051908152f35b600080fd5b3461022557602036600319011261022557610243611a31565b6000546001600160a01b03919061025d9083163314611cfa565b16600052600360205261028d610279600c604060002001611d72565b604051918291602083526020830190611a5d565b0390f35b34610225576000366003190112610225576000546001600160a01b03906102bb9082163314611cfa565b60005b6002908154811015610360576102d381611a9d565b509182015442039142831161034a576001818101546103079462015180900410159081610337575b5061030c575b506131dd565b6102be565b83600382019160ff199283815416905554166000526007602052604060002090815416905583610301565b905060ff600383015416151514856102fb565b634e487b7160e01b600052601160045260246000fd5b005b34610225576020366003190112610225577fbf40ed975ac04192dc3c221b21155d52ba4322b78f63a7bd22c828bf2d3f6c8c602061039e611a31565b6000546001600160a01b0391906103b89083163314611cfa565b168060005260038252600f6040600020600e81016103df6103d98254611d38565b82611f61565b60186b139bdd0815995c9a599a595960a21b01905501805460ff19169055604051908152a1005b34610225576040366003190112610225576020610421611a31565b604061045061042e611a47565b60018060a01b03938482166000526007865261021460ff856000205416613302565b015116604051908152f35b3461022557610160366003190112610225576004356001600160401b0381116102255761048c903690600401611c9c565b6024356001600160401b038111610225576104ab903690600401611c9c565b90604435918215158303610225576064356001600160401b038111610225576104d8903690600401611c9c565b6084356001600160401b038111610225576104f7903690600401611c9c565b60a4356001600160401b03811161022557610516903690600401611c9c565b60c4356001600160401b03811161022557610535903690600401611c9c565b60e4356001600160401b03811161022557610554903690600401611c9c565b91610104356001600160401b03811161022557610575903690600401611c9c565b936001600160401b0361012435116102255736602361012435011215610225576105a56101243560040135611ce3565b956105b36040519788611c60565b6101243560040135875260208701998a366024610124356004013560051b610124350101116102255760246101243501905b6024610124356004013560051b610124350101821061081657505033600052600560205260ff604060002054166107d1576106234261014435611f3d565b9a8851156107a55751978051600110156107a55760400151986040519a6106498c611c28565b338c528c60208d015260408c015260608b0152151560808a015260a089015260c088015260e087015261010086015261012085015261014084015261016083015261018082015260006101a0820152604051604081018181106001600160401b038211176107bb57604052600781526650656e64696e6760c81b60208201526101c082015260006101e0820152606061020082015260015490600160401b8210156107bb5760018201806001558210156107a55761073481601161075e946001600052027fb10e2d527612073b26eecdfd717e6a320cf44b4afac2b0732d9fcbe2b7fa0cf6016126a0565b33600052600360205261074b8160406000206126a0565b82600052600460205260406000206126a0565b3360005260056020526040600020600160ff198254161790556040519081527fe4389ab9c67cce68e65561d8fc2fabf4d88b4c66a0874e1b7980682de416818960203392a2005b634e487b7160e01b600052603260045260246000fd5b634e487b7160e01b600052604160045260246000fd5b60405162461bcd60e51b815260206004820152601c60248201527f596f7520616c7265616479206861766520616e206163636f756e742e000000006044820152606490fd5b6001600160401b03823511610225576020809161083c3660248635610124350101611c9c565b8152019101906105e5565b3461022557604036600319011261022557610860611a31565b6001600160a01b0380610871611a47565b1680600052600760205260ff9061088e8260406000205416613302565b6000526003602052604060002092600083601086019216905b825481101561036057818560026108bd8661336a565b50015416146108d5575b6108d0906131dd565b6108a7565b600a6108e08461336a565b506009810180548781161561091e575b5050018054600019929183820191821161034a5755600d870191825490810190811161034a579091556108c7565b60ff1916600117905588806108f0565b34610225576020366003190112610225576001600160a01b0361094f611a31565b1680600052600760205261096a60ff60406000205416613302565b600052600360205261028d6102796008604060002001611d72565b34610225576020366003190112610225576001600160a01b036109a6611a31565b168060005260076020526109c160ff60406000205416613302565b600052600360205261028d610279600a604060002001611d72565b346102255760403660031901126102255760206101606109fd6101ea611a31565b0151604051908152f35b3461022557604036600319011261022557610a20611a31565b610a28611a47565b60405160a0916001600160401b0391838101838111828210176107bb5760405260005b848110610b08575050610a7c9060018060a01b0381166000526020946007865261021460ff60406000205416613302565b60405192808401928311848410176107bb5761010092604052608082015184528101518484015260c0810151604084015260e08101516060840152015160808201526040519082820183835260c0830191906000945b60058610610ae05784840385f35b9091928180610afb600193601f198982030187528751611a5d565b9501930195019490610ad2565b606082820152602001610a4b565b34610225576020366003190112610225576001600160a01b03610b37611a31565b16806000526007602052610b5260ff60406000205416613302565b600052600360205261028d610279600b604060002001611d72565b34610225576020366003190112610225576020610b90610b8b611a31565b6131ec565b6040519015158152f35b34610225576020366003190112610225576001600160a01b03610bbb611a31565b16806000526007602052610bd660ff60406000205416613302565b600052600360205261028d6102796003604060002001611d72565b346102255761012080600319360112610225576001600160401b0360043581811161022557610c24903690600401611c9c565b60243582811161022557610c3c903690600401611c9c565b6001600160a01b0360443581811695908690036102255760643585811161022557610c6b903690600401611c9c565b9060843586811161022557610c84903690600401611c9c565b9260a43587811161022557610c9d903690600401611c9c565b9660c43581811161022557610cb6903690600401611c9c565b60e43582811161022557610cce903690600401611c9c565b916101043590811161022557610ceb610cf7913690600401611c9c565b93600054163314611cfa565b3360005260209860038a5260406000209660ff600f8901541615610dee57906000959493929160108901976040519a610d2f8c611c44565b8c8c528d8c01528d60408c015260608b015260808a015260a089015260c088015260e087015261010086015284015260006101408401526064610160840152805492600160401b8410156107bb57600184018083558410156107a557600d93610da392600052600b87600020910201612017565b019182546064810180911161034a577f3f59d974cb323c784e37c2bf72b6b6f11983b4d23545adf73f81b553873a539c9355610de9604051928284938452830190611a5d565b0390a2005b60405162461bcd60e51b8152600481018c9052600d60248201526c2737ba103b32b934b334b2b21760991b6044820152606490fd5b34610225576000366003190112610225576000546001600160a01b0390610e4d9082163314611cfa565b600190815491610e5c83611ce3565b91610e6a6040519384611c60565b8383526020928381019485846000527fb10e2d527612073b26eecdfd717e6a320cf44b4afac2b0732d9fcbe2b7fa0cf66000915b8383106110455750505050604051938085019181865251809252604085019260408360051b87010196936000915b848310610ed95787890388f35b9091929394958480611033839b603f198c82030187528a518681511682528381015184830152611012610ff3610fdf610fcb610fb7610fa3610f8f610f7d610f6a610f4b610f3760408c01518d610220908160408201520190611a5d565b8b8d60608092015191818403910152611a5d565b6080808c01511515908d015260a08c818d015191818403910152611a5d565b60c0808b0151908c8303908d0152611a5d565b60e08901518a820360e08c0152611a5d565b61010080890151908a8303908b0152611a5d565b6101208088015190898303908a0152611a5d565b610140808701519088830390890152611a5d565b610160808601519087830390880152611a5d565b610180808501519086830390870152611a5d565b6101a080840151908501526101c0808401519085830390860152611a5d565b916101e0808301511515908201526102008092015191818403910152611ad7565b9a980196959491909101920190610ecc565b95601188829a9860409a97989a5161105c81611c28565b8b8654168152848601548382015261107660028701611d72565b604082015261108760038701611d72565b606082015260ff80600488015416151560808301526110a860058801611d72565b60a08301526110b960068801611d72565b60c08301526110ca60078801611d72565b60e08301526110db60088801611d72565b6101008301526110ed60098801611d72565b6101208301526110ff600a8801611d72565b610140830152611111600b8801611d72565b610160830152611123600c8801611d72565b610180830152600d8701546101a0830152611140600e8801611d72565b6101c0830152600f8701541615156101e082015261116060108701611ee7565b61020082015281520192019201919097959796949396610e9e565b34610225576020366003190112610225576004356000526004602052602060018060a01b0360406000205416604051908152f35b34610225576020366003190112610225576001600160a01b036111d0611a31565b168060005260076020526111eb60ff60406000205416613302565b600052600360205261028d6112066010604060002001611ee7565b604051918291602083526020830190611ad7565b34610225576020366003190112610225576004356002548110156102255761124190611a9d565b50805460018201546002830154600390930154604080516001600160a01b03909416845260208401929092529082019290925260ff90911615156060820152608090f35b34610225576020366003190112610225576001600160a01b036112a6611a31565b166000526007602052602060ff604060002054166040519015158152f35b34610225576000366003190112610225576000546040516001600160a01b039091168152602090f35b34610225576020366003190112610225576001600160a01b0361130e611a31565b1680600052600760205261132960ff60406000205416613302565b60005260036020526020600160406000200154604051908152f35b60203660031901126102255761036060043561324a565b34610225576020366003190112610225576001600160a01b0361137c611a31565b1680600052600760205261139760ff60406000205416613302565b60005260036020526020600d60406000200154604051908152f35b346102255760403660031901126102255760206101206102196101ea611a31565b34610225576020366003190112610225576001600160a01b036113f4611a31565b16600052600360205261028d610279600e604060002001611d72565b34610225576020366003190112610225576001600160a01b03611431611a31565b1680600052600760205261144c60ff60406000205416613302565b600052600360205261028d6102796002604060002001611d72565b34610225576020366003190112610225576001600160a01b0380611489611a31565b16600052600660205260406000209081541661028d60018301549260ff600360028301549201541690604051948594859260609295949195608085019660018060a01b03168552602085015260408401521515910152565b34610225576020366003190112610225577f6a6455914f452787eb3985452aceedc1000fb545e394eb3b370e3d08958e0a5b602061151d611a31565b6000546001600160a01b0391906115379083163314611cfa565b168060005260038252600f6040600020600e81016115586103d98254611d38565b60106715995c9a599a595960c21b01905501805460ff19166001179055604051908152a1005b34610225576020366003190112610225576001600160a01b0361159f611a31565b168060005260076020526115ba60ff60406000205416613302565b600052600360205261028d6102796005604060002001611d72565b346102255760403660031901126102255761028d60206116206115f6611a31565b6115fe611a47565b9060018060a01b0382166000526007845261021460ff60406000205416613302565b0151604051918291602083526020830190611a5d565b346102255760403660031901126102255761164f611a31565b6001600160a01b0380611660611a47565b1680600052600760205260ff9061167d8260406000205416613302565b6000526003602052604060002092600083601086019216905b825481101561036057818560026116ac8661336a565b50015416146116c4575b6116bf906131dd565b611696565b600a6116cf8461336a565b50600981018054878160081c1615611710575b5050018054600019929183820191821161034a5755600d870191825490810190811161034a579091556116b6565b61ff00191661010017905588806116e2565b34610225576020366003190112610225576001600160a01b03611743611a31565b1680600052600760205261175e60ff60406000205416613302565b600052600360205261028d6102796006604060002001611d72565b346102255760403660031901126102255761028d6117c3611798611a31565b6117a0611a47565b9060018060a01b038216600052600760205261021460ff60406000205416613302565b51604051918291602083526020830190611a5d565b34610225576020366003190112610225576001600160a01b036117f9611a31565b1680600052600760205261181460ff60406000205416613302565b600052600360205261028d6102796007604060002001611d72565b34610225576020366003190112610225576001600160a01b03611850611a31565b1680600052600760205261186b60ff60406000205416613302565b600052600360205261028d6102796009604060002001611d72565b60203660031901126102255760043561189e336131ec565b156118ac576103609061324a565b6040516118b881611c0d565b338152816020820152426040820152600160608201523360005260076020526040600020600160ff19825416179055600254600160401b8110156107bb578060016119069201600255611a9d565b9190916119805761191a8161192d9361315a565b336000526006602052604060002061315a565b6040519081527f4b90d6788928d63c1821907a6a8b95f40d26562d8fe41b105f7489db9966dfcb60203392a26000805481908190819034906001600160a01b03165af16119786131ad565b501561022557005b634e487b7160e01b600052600060045260246000fd5b34610225576020366003190112610225576001600160a01b036119b7611a31565b166000526005602052602060ff604060002054166040519015158152f35b34610225576020366003190112610225576001600160a01b036119f6611a31565b16806000526007602052611a1160ff60406000205416613302565b6000526003602052602060ff600460406000200154166040519015158152f35b600435906001600160a01b038216820361022557565b602435906001600160a01b038216820361022557565b919082519283825260005b848110611a89575050826000602080949584010152601f8019910116010190565b602081830181015184830182015201611a68565b6002548110156107a557600260005260021b7f405787fa12a823e0f2b7631cc41b3ba8828b3321ca811111fa75cd3aa3bb5ace0190600090565b908082519081815260208091019281808460051b8301019501936000915b848310611b055750505050505090565b9091929394958480600192601f19858203018652895190611bd8611bc4611bb1611b9e611b8b611b78611b54611b448951610180808b528a0190611a5d565b8a8a01518982038c8b0152611a5d565b60408c8060a01b03818b015116908901526060808a015190898303908a0152611a5d565b6080808901519088830390890152611a5d565b60a0808801519087830390880152611a5d565b60c0808701519086830390870152611a5d565b60e0808601519085830390860152611a5d565b610100808501519084830390850152611a5d565b916101208082015115159083015261014080820151151590830152610160809101519101529801930193019194939290611af5565b608081019081106001600160401b038211176107bb57604052565b61022081019081106001600160401b038211176107bb57604052565b61018081019081106001600160401b038211176107bb57604052565b90601f801991011681019081106001600160401b038211176107bb57604052565b6001600160401b0381116107bb57601f01601f191660200190565b81601f8201121561022557803590611cb382611c81565b92611cc16040519485611c60565b8284526020838301011161022557816000926020809301838601378301015290565b6001600160401b0381116107bb5760051b60200190565b15611d0157565b60405162461bcd60e51b815260206004820152600f60248201526e2737ba1020baba3437b934bd32b21760891b6044820152606490fd5b90600182811c92168015611d68575b6020831014611d5257565b634e487b7160e01b600052602260045260246000fd5b91607f1691611d47565b9060405191826000825492611d8684611d38565b908184526001948581169081600014611df55750600114611db2575b5050611db092500383611c60565b565b9093915060005260209081600020936000915b818310611ddd575050611db093508201013880611da2565b85548884018501529485019487945091830191611dc5565b915050611db094506020925060ff191682840152151560051b8201013880611da2565b90604051611e2581611c44565b610160600a8294611e3581611d72565b8452611e4360018201611d72565b602085015260028101546001600160a01b03166040850152611e6760038201611d72565b6060850152611e7860048201611d72565b6080850152611e8960058201611d72565b60a0850152611e9a60068201611d72565b60c0850152611eab60078201611d72565b60e0850152611ebc60088201611d72565b61010085015260ff6009820154818116151561012087015260081c1615156101408501520154910152565b908154611ef381611ce3565b92611f016040519485611c60565b818452600090815260208082208186015b848410611f20575050505050565b600b83600192611f2f85611e18565b815201920193019290611f12565b9190820180921161034a57565b818110611f55575050565b60008155600101611f4a565b90601f8111611f6e575050565b611db091600052601f6020600020910160051c810190611f4a565b9190601f8111611f9857505050565b611db0926000526020600020906020601f840160051c83019310611fc4575b601f0160051c0190611f4a565b9091508190611fb7565b611fd88154611d38565b9081611fe2575050565b81601f60009311600114611ff4575055565b908083918252612013601f60208420940160051c840160018501611f4a565b5555565b90805180516001600160401b03908181116107bb576120408161203a8754611d38565b87611f89565b806020601f9485831160011461263b57600092612630575b50508160011b916000199060031b1c19161784555b600180850160208501518051908482116107bb578190612097826120918654611d38565b86611f89565b6020908783116001146125cd576000926125c2575b5050600019600383901b1c191690831b1790555b6002850160018060a01b036040860151166bffffffffffffffffffffffff60a01b82541617905560039081860160608601518051908582116107bb57819061210c826120918654611d38565b60209088831160011461256057600092612555575b505060001982861b1c191690831b1790555b60049384870160808701518051908682116123f9578190612158826120918654611d38565b6020908583116001146124f3576000926124e8575b505060001982871b1c191690841b1790555b6005870160a08701518051908682116123f95781906121a2826120918654611d38565b6020908583116001146124865760009261247b575b505060001982871b1c191690841b1790555b6006870160c08701518051908682116123f95781906121ec826120918654611d38565b6020908583116001146124195760009261240e575b505060001982871b1c191690841b1790555b6007870160e08701518051908682116123f9578190612236826120918654611d38565b6020908583116001146123975760009261238c575b505060001982871b1c191690841b1790555b60088701946101008701519081519586116123775750612287856122818854611d38565b88611f89565b60209185116001146123065792848093600a98969361016098966000956122fb575b50501b92600019911b1c19161790555b600984016122da6101208301511515829060ff801983541691151516179055565b610140820151815461ff00191690151560081b61ff00161790550151910155565b0151935038806122a9565b91939290601f1984169286600052816000209360005b8181106123615750918593916101609896600a9a98969410612347575b50505050811b0190556122b9565b01519060f884600019921b161c1916905538808080612339565b828401518655948701946020938401930161231c565b604190634e487b7160e01b6000525260246000fd5b01519050388061224b565b90869350601f1983169185600052816000209260005b8181106123e1575084116123c9575b505050811b01905561225d565b015160001983891b60f8161c191690553880806123bc565b828401518555899690940193602093840193016123ad565b604188634e487b7160e01b6000525260246000fd5b015190503880612201565b90869350601f1983169185600052816000209260005b8181106124635750841161244b575b505050811b019055612213565b015160001983891b60f8161c1916905538808061243e565b8284015185558996909401936020938401930161242f565b0151905038806121b7565b90869350601f1983169185600052816000209260005b8181106124d0575084116124b8575b505050811b0190556121c9565b015160001983891b60f8161c191690553880806124ab565b8284015185558996909401936020938401930161249c565b01519050388061216d565b90869350601f1983169185600052816000209260005b81811061253d57508411612525575b505050811b01905561217f565b015160001983891b60f8161c19169055388080612518565b82840151855589969094019360209384019301612509565b015190503880612121565b90859350601f1983169185600052816000209260005b8181106125aa57508411612592575b505050811b019055612133565b015160001983881b60f8161c19169055388080612585565b82840151855588969094019360209384019301612576565b0151905038806120ac565b90859350601f1983169185600052816000209260005b818110612618575084116125ff575b505050811b0190556120c0565b015160001960f88460031b161c191690553880806125f2565b828401518555889690940193602093840193016125e3565b015190503880612058565b60008881528281209350601f198516905b818110612688575090846001959493921061266f575b505050811b01845561206d565b015160001960f88460031b161c19169055388080612662565b9293602060018192878601518155019501930161264c565b815181546001600160a01b0319166001600160a01b0391909116178155602082015160018201556040820151805192939260028301916001600160401b0382116107bb5781906126f4826120918654611d38565b602090601f83116001146130f4576000926130e9575b50508160011b916000199060031b1c19161790555b6003810160608401518051906001600160401b0382116107bb578190612749826120918654611d38565b602090601f831160011461308357600092613078575b50508160011b916000199060031b1c19161790555b61279360808401511515600483019060ff801983541691151516179055565b6005810160a08401518051906001600160401b0382116107bb5781906127bd826120918654611d38565b602090601f831160011461301257600092613007575b50508160011b916000199060031b1c19161790555b6006810160c08401518051906001600160401b0382116107bb578190612812826120918654611d38565b602090601f8311600114612fa157600092612f96575b50508160011b916000199060031b1c19161790555b60e08301519283516001600160401b0381116107bb5761286d816128646007860154611d38565b60078601611f89565b6020601f8211600114612f27578192939495600092612f1c575b50508160011b916000199060031b1c19161760078301555b6101008101519283516001600160401b0381116107bb576128d0816128c76008870154611d38565b60088701611f89565b6020601f8211600114612ead578192939495600092612ea2575b50508160011b916000199060031b1c19161760088401555b6101208201519283516001600160401b0381116107bb576129338161292a6009850154611d38565b60098501611f89565b6020601f8211600114612e33578192939495600092612e28575b50508160011b916000199060031b1c19161760098201555b6101408301519283516001600160401b0381116107bb576129968161298d600a860154611d38565b600a8601611f89565b6020601f8211600114612db9578192939495600092612dae575b50508160011b916000199060031b1c191617600a8301555b6101608101519283516001600160401b0381116107bb576129f9816129f0600b870154611d38565b600b8701611f89565b6020601f8211600114612d3f578192939495600092612d34575b50508160011b916000199060031b1c191617600b8401555b6101808201519283516001600160401b0381116107bb57612a5c81612a53600c850154611d38565b600c8501611f89565b6020601f8211600114612cc5578192939495600092612cba575b50508160011b916000199060031b1c191617600c8201555b6101a0830151600d8201556101c08301519283516001600160401b0381116107bb57612aca81612ac1600e860154611d38565b600e8601611f89565b6020601f8211600114612c46578190610200949596600092612c3b575b50508160011b916000199060031b1c191617600e8401555b612b1f6101e08201511515600f85019060ff801983541691151516179055565b015190815191600160401b83116107bb576010820154836010840155808410612b83575b50602060109101910160005260206000206000915b838310612b655750505050565b600b602082612b776001945186612017565b01920192019190612b58565b600b81810204810361034a5783600b02600b8104850361034a576010840160005260206000209081015b82600b0282018110612bc0575050612b43565b80612bcc600b92611fce565b612bd860018201611fce565b60006002820155612beb60038201611fce565b612bf760048201611fce565b612c0360058201611fce565b612c0f60068201611fce565b612c1b60078201611fce565b612c2760088201611fce565b600060098201556000600a82015501612bad565b015190503880612ae7565b600e840160005260206000209560005b601f1984168110612ca25750958291610200959697600194601f19811610612c89575b505050811b01600e840155612aff565b015160001960f88460031b161c19169055388080612c79565b82820151885560019097019660209283019201612c56565b015190503880612a76565b600c830160005260206000209060005b601f1984168110612d1c575060019394959683601f19811610612d03575b505050811b01600c820155612a8e565b015160001960f88460031b161c19169055388080612cf3565b9091602060018192858b015181550193019101612cd5565b015190503880612a13565b600b850160005260206000209060005b601f1984168110612d96575060019394959683601f19811610612d7d575b505050811b01600b840155612a2b565b015160001960f88460031b161c19169055388080612d6d565b9091602060018192858b015181550193019101612d4f565b0151905038806129b0565b600a840160005260206000209060005b601f1984168110612e10575060019394959683601f19811610612df7575b505050811b01600a8301556129c8565b015160001960f88460031b161c19169055388080612de7565b9091602060018192858b015181550193019101612dc9565b01519050388061294d565b6009830160005260206000209060005b601f1984168110612e8a575060019394959683601f19811610612e71575b505050811b016009820155612965565b015160001960f88460031b161c19169055388080612e61565b9091602060018192858b015181550193019101612e43565b0151905038806128ea565b6008850160005260206000209060005b601f1984168110612f04575060019394959683601f19811610612eeb575b505050811b016008840155612902565b015160001960f88460031b161c19169055388080612edb565b9091602060018192858b015181550193019101612ebd565b015190503880612887565b6007840160005260206000209060005b601f1984168110612f7e575060019394959683601f19811610612f65575b505050811b01600783015561289f565b015160001960f88460031b161c19169055388080612f55565b9091602060018192858b015181550193019101612f37565b015190503880612828565b6000858152602081209350601f198516905b818110612fef5750908460019594939210612fd6575b505050811b01905561283d565b015160001960f88460031b161c19169055388080612fc9565b92936020600181928786015181550195019301612fb3565b0151905038806127d3565b6000858152602081209350601f198516905b8181106130605750908460019594939210613047575b505050811b0190556127e8565b015160001960f88460031b161c1916905538808061303a565b92936020600181928786015181550195019301613024565b01519050388061275f565b6000858152602081209350601f198516905b8181106130d157509084600195949392106130b8575b505050811b019055612774565b015160001960f88460031b161c191690553880806130ab565b92936020600181928786015181550195019301613095565b01519050388061270a565b6000858152602081209350601f198516905b8181106131425750908460019594939210613129575b505050811b01905561271f565b015160001960f88460031b161c1916905538808061311c565b92936020600181928786015181550195019301613106565b60036060611db09360018060a01b038151166bffffffffffffffffffffffff60a01b85541617845560208101516001850155604081015160028501550151151591019060ff801983541691151516179055565b3d156131d8573d906131be82611c81565b916131cc6040519384611c60565b82523d6000602084013e565b606090565b600019811461034a5760010190565b60018060a01b03809116806000526006602052604060002091606060ff60036040519361321885611c0d565b86541680855260018701546020860152600287015460408601529501541615159101520361324557600190565b600090565b6000903382526006602052604082206003810160ff815416156000146132eb57600160ff198254161790558160018201555b600242910155338252600760205260408220600160ff198254161790556040519081527f4b90d6788928d63c1821907a6a8b95f40d26562d8fe41b105f7489db9966dfcb60203392a28080808060018060a01b0381541634905af16132df6131ad565b50156132e85750565b80fd5b50600181016132fb838254611f3d565b905561327c565b1561330957565b60405162461bcd60e51b815260206004820152603360248201527f596f7520617265206e6f7420617574686f72697a656420746f20706572666f7260448201527236903a3434b9903a3930b739b0b1ba34b7b71760691b6064820152608490fd5b8054156107a557600052602060002090600090565b91906040519061338e82611c44565b60609182815282602082015260009283604083015280808301528060808301528060a08301528060c08301528060e08301526101008201528261012082015282610140820152826101608201529360018060a01b0380921680845260076020526133fe60ff604086205416613302565b8352600360205260106040842001918254935b84811061341f575050505050565b81600261342b8661336a565b500154168284161461344557613440906131dd565b613411565b50505061345e929350613458915061336a565b50611e18565b9056fea264697066735822122059c2604105a4daf16c690e29ae9f12b1c10281e0bbffac8a251338ab6fa5348d64736f6c63430008130033",
  "linkReferences": {},
  "deployedLinkReferences": {}
}