{
  "_format": "hh-sol-artifact-1",
  "contractName": "IDBot",
  "sourceName": "contracts/IDBot.sol",
  "abi": [
    {
      "inputs": [],
      "stateMutability": "nonpayable",
      "type": "constructor"
    },
    {
      "anonymous": false,
      "inputs": [
        {
          "indexed": true,
          "internalType": "address",
          "name": "profile",
          "type": "address"
        },
        {
          "indexed": true,
          "internalType": "address",
          "name": "owner",
          "type": "address"
        },
        {
          "indexed": false,
          "internalType": "string",
          "name": "profileId",
          "type": "string"
        }
      ],
      "name": "CreateProfile",
      "type": "event"
    },
    {
      "anonymous": false,
      "inputs": [
        {
          "indexed": true,
          "internalType": "address",
          "name": "account",
          "type": "address"
        },
        {
          "indexed": false,
          "internalType": "string",
          "name": "idbot",
          "type": "string"
        },
        {
          "indexed": false,
          "internalType": "uint256",
          "name": "duration",
          "type": "uint256"
        }
      ],
      "name": "Subscribed",
      "type": "event"
    },
    {
      "inputs": [
        {
          "internalType": "uint256",
          "name": "",
          "type": "uint256"
        }
      ],
      "name": "_profiles",
      "outputs": [
        {
          "internalType": "address",
          "name": "",
          "type": "address"
        }
      ],
      "stateMutability": "view",
      "type": "function"
    },
    {
      "inputs": [
        {
          "internalType": "uint256",
          "name": "",
          "type": "uint256"
        }
      ],
      "name": "_subscribers",
      "outputs": [
        {
          "internalType": "string",
          "name": "idbot",
          "type": "string"
        },
        {
          "internalType": "address",
          "name": "account",
          "type": "address"
        },
        {
          "internalType": "uint256",
          "name": "duration",
          "type": "uint256"
        },
        {
          "internalType": "uint256",
          "name": "startedAt",
          "type": "uint256"
        },
        {
          "internalType": "bool",
          "name": "isActive",
          "type": "bool"
        }
      ],
      "stateMutability": "view",
      "type": "function"
    },
    {
      "inputs": [
        {
          "internalType": "string",
          "name": "_name",
          "type": "string"
        },
        {
          "internalType": "string",
          "name": "_description",
          "type": "string"
        },
        {
          "internalType": "bool",
          "name": "_dev",
          "type": "bool"
        },
        {
          "internalType": "string",
          "name": "_email",
          "type": "string"
        },
        {
          "internalType": "uint256",
          "name": "_age",
          "type": "uint256"
        },
        {
          "internalType": "string",
          "name": "phone",
          "type": "string"
        },
        {
          "internalType": "string",
          "name": "_country",
          "type": "string"
        },
        {
          "internalType": "string",
          "name": "_state",
          "type": "string"
        },
        {
          "internalType": "string",
          "name": "_address",
          "type": "string"
        },
        {
          "internalType": "string",
          "name": "url",
          "type": "string"
        },
        {
          "internalType": "address",
          "name": "_owner",
          "type": "address"
        },
        {
          "internalType": "string",
          "name": "_hash",
          "type": "string"
        }
      ],
      "name": "createProfile",
      "outputs": [],
      "stateMutability": "nonpayable",
      "type": "function"
    },
    {
      "inputs": [
        {
          "internalType": "address",
          "name": "_account",
          "type": "address"
        }
      ],
      "name": "isSubscribed",
      "outputs": [
        {
          "internalType": "bool",
          "name": "subscribed",
          "type": "bool"
        }
      ],
      "stateMutability": "view",
      "type": "function"
    },
    {
      "inputs": [
        {
          "internalType": "uint256",
          "name": "",
          "type": "uint256"
        }
      ],
      "name": "profileIds",
      "outputs": [
        {
          "internalType": "string",
          "name": "",
          "type": "string"
        }
      ],
      "stateMutability": "view",
      "type": "function"
    },
    {
      "inputs": [
        {
          "internalType": "string",
          "name": "",
          "type": "string"
        }
      ],
      "name": "profiles",
      "outputs": [
        {
          "internalType": "address",
          "name": "",
          "type": "address"
        }
      ],
      "stateMutability": "view",
      "type": "function"
    },
    {
      "inputs": [
        {
          "internalType": "string",
          "name": "_idbot",
          "type": "string"
        },
        {
          "internalType": "address",
          "name": "_account",
          "type": "address"
        },
        {
          "internalType": "uint256",
          "name": "_duration",
          "type": "uint256"
        }
      ],
      "name": "subscribe",
      "outputs": [],
      "stateMutability": "nonpayable",
      "type": "function"
    },
    {
      "inputs": [
        {
          "internalType": "address",
          "name": "",
          "type": "address"
        }
      ],
      "name": "subscribers",
      "outputs": [
        {
          "internalType": "string",
          "name": "idbot",
          "type": "string"
        },
        {
          "internalType": "address",
          "name": "account",
          "type": "address"
        },
        {
          "internalType": "uint256",
          "name": "duration",
          "type": "uint256"
        },
        {
          "internalType": "uint256",
          "name": "startedAt",
          "type": "uint256"
        },
        {
          "internalType": "bool",
          "name": "isActive",
          "type": "bool"
        }
      ],
      "stateMutability": "view",
      "type": "function"
    },
    {
      "inputs": [],
      "name": "unsubscribe",
      "outputs": [],
      "stateMutability": "nonpayable",
      "type": "function"
    }
  ],
  "bytecode": "0x608060405234801561001057600080fd5b50600080546001600160a01b0319163317905561579d806100326000396000f3fe60806040523480156200001157600080fd5b50600436106200009f5760003560e01c8063b64e9f59116200006e578063b64e9f59146200011e578063b92ae87c1462000144578063cba521e2146200016c578063d5b52d3e14620001bc578063fcae448414620001d357600080fd5b806356ae281114620000a45780635745ae2814620000bd5780639bbfa38514620000f0578063ac8d9a741462000107575b600080fd5b620000bb620000b536600462000c73565b620001dd565b005b620000d4620000ce36600462000ccf565b62000466565b604051620000e795949392919062000d48565b60405180910390f35b620000d46200010136600462000d8c565b62000532565b620000bb6200011836600462000db7565b62000568565b620001356200012f36600462000d8c565b62000727565b604051620000e7919062000fa8565b6200015b6200015536600462000ccf565b620007dc565b6040519015158152602001620000e7565b620001a36200017d36600462000fbd565b80516020818301810180516003825292820191909301209152546001600160a01b031681565b6040516001600160a01b039091168152602001620000e7565b620001a3620001cd36600462000d8c565b62000931565b620000bb6200095c565b6000546001600160a01b03163314620002135760405162461bcd60e51b81526004016200020a9062000ffd565b60405180910390fd5b6200021e82620007dc565b15620002355762000230828262000ae0565b505050565b6040805160a0810182528481526001600160a01b03841660208201529081018290524260608201526001608082015260005b6001548110156200030e576000600182815481106200028a576200028a62001026565b600091825260209091200154604051637b0f27d360e11b81526001600160a01b0387811660048301529091169150819063f61e4fa690602401600060405180830381600087803b158015620002de57600080fd5b505af1158015620002f3573d6000803e3d6000fd5b50505050508080620003059062001052565b91505062000267565b5060048054600181018255600091909152815182916005027f8a35acfbc15ff81a39ae7d344fd709f28e8600b4aa8c65c6b64bfe7fe36bd19b01908190620003579082620010f6565b506020828101516001830180546001600160a01b0319166001600160a01b039283161790556040808501516002850155606085015160038501556080909401516004909301805460ff191693151593909317909255908516600090815260059091522081518291908190620003cd9082620010f6565b5060208201516001820180546001600160a01b0319166001600160a01b039283161790556040808401516002840155606084015160038401556080909301516004909201805460ff1916921515929092179091559051908416907fffa5088d5660bf54f1f4d68628cc152d5cd6569854c3a92de6b47a720a12f60890620004589087908690620011c2565b60405180910390a250505050565b60056020526000908152604090208054819062000483906200106e565b80601f0160208091040260200160405190810160405280929190818152602001828054620004b1906200106e565b8015620005025780601f10620004d65761010080835404028352916020019162000502565b820191906000526020600020905b815481529060010190602001808311620004e457829003601f168201915b5050505060018301546002840154600385015460049095015493946001600160a01b039092169390925060ff1685565b600481815481106200054357600080fd5b906000526020600020906005020160009150905080600001805462000483906200106e565b6000546001600160a01b03163314620005955760405162461bcd60e51b81526004016200020a9062000ffd565b60008c8c8c8c8c8c8c8c8c8c8c604051620005b09062000ba3565b620005c69b9a99989796959493929190620011e6565b604051809103906000f080158015620005e3573d6000803e3d6000fd5b50905060008242604051602001620005fd929190620012d0565b60408051601f19818403018152919052600280546001810182556000919091529091507f405787fa12a823e0f2b7631cc41b3ba8828b3321ca811111fa75cd3aa3bb5ace016200064e8282620010f6565b506001805480820182556000919091527fb10e2d527612073b26eecdfd717e6a320cf44b4afac2b0732d9fcbe2b7fa0cf60180546001600160a01b0319166001600160a01b0384161790556040518290600390620006ae90849062001317565b90815260405190819003602001812080546001600160a01b039384166001600160a01b0319909116179055858216918416907fd0cfa44cf7d9eb0cd001f9288d3458bf78501df3a6fac80b8c6f107c500e252d906200070f90859062000fa8565b60405180910390a35050505050505050505050505050565b600281815481106200073857600080fd5b90600052602060002001600091509050805462000755906200106e565b80601f016020809104026020016040519081016040528092919081815260200182805462000783906200106e565b8015620007d45780601f10620007a857610100808354040283529160200191620007d4565b820191906000526020600020905b815481529060010190602001808311620007b657829003601f168201915b505050505081565b600080546001600160a01b031633146200080a5760405162461bcd60e51b81526004016200020a9062000ffd565b6001600160a01b038216600090815260056020526040808220815160a081019092528054829082906200083d906200106e565b80601f01602080910402602001604051908101604052809291908181526020018280546200086b906200106e565b8015620008bc5780601f106200089057610100808354040283529160200191620008bc565b820191906000526020600020905b8154815290600101906020018083116200089e57829003601f168201915b505050918352505060018201546001600160a01b03908116602080840191909152600284015460408401526003840154606084015260049093015460ff1615156080909201919091529082015191925090811690841603620009215750600192915050565b50600092915050565b505b919050565b600181815481106200094257600080fd5b6000918252602090912001546001600160a01b0316905081565b6000546001600160a01b03163314620009895760405162461bcd60e51b81526004016200020a9062000ffd565b60005b60045481101562000add57600060048281548110620009af57620009af62001026565b90600052602060002090600502019050600062015180826003015442620009d7919062001335565b620009e3919062001351565b90508160020154811015801562000a035750600482015460ff1615156001145b1562000ac55760048201805460ff1916905560005b60015481101562000ac35760006001828154811062000a3b5762000a3b62001026565b6000918252602090912001546001850154604051636bd4ffd360e01b81526001600160a01b039182166004820152911691508190636bd4ffd390602401600060405180830381600087803b15801562000a9357600080fd5b505af115801562000aa8573d6000803e3d6000fd5b5050505050808062000aba9062001052565b91505062000a18565b505b5050808062000ad49062001052565b9150506200098c565b50565b6000546001600160a01b0316331462000b0d5760405162461bcd60e51b81526004016200020a9062000ffd565b6001600160a01b03821660009081526005602052604081206004810154909160ff9091161515900362000b4a5760048101805460ff191660011790555b600281018290554260038201556040516001600160a01b038416907fffa5088d5660bf54f1f4d68628cc152d5cd6569854c3a92de6b47a720a12f6089062000b96908490869062001374565b60405180910390a2505050565b614357806200141183390190565b634e487b7160e01b600052604160045260246000fd5b600082601f83011262000bd957600080fd5b81356001600160401b038082111562000bf65762000bf662000bb1565b604051601f8301601f19908116603f0116810190828211818310171562000c215762000c2162000bb1565b8160405283815286602085880101111562000c3b57600080fd5b836020870160208301376000602085830101528094505050505092915050565b80356001600160a01b03811681146200092c57600080fd5b60008060006060848603121562000c8957600080fd5b83356001600160401b0381111562000ca057600080fd5b62000cae8682870162000bc7565b93505062000cbf6020850162000c5b565b9150604084013590509250925092565b60006020828403121562000ce257600080fd5b62000ced8262000c5b565b9392505050565b60005b8381101562000d1157818101518382015260200162000cf7565b50506000910152565b6000815180845262000d3481602086016020860162000cf4565b601f01601f19169290920160200192915050565b60a08152600062000d5d60a083018862000d1a565b6001600160a01b0396909616602083015250604081019390935260608301919091521515608090910152919050565b60006020828403121562000d9f57600080fd5b5035919050565b803580151581146200092c57600080fd5b6000806000806000806000806000806000806101808d8f03121562000ddb57600080fd5b6001600160401b038d35111562000df157600080fd5b62000e008e8e358f0162000bc7565b9b506001600160401b0360208e0135111562000e1b57600080fd5b62000e2d8e60208f01358f0162000bc7565b9a5062000e3d60408e0162000da6565b99506001600160401b0360608e0135111562000e5857600080fd5b62000e6a8e60608f01358f0162000bc7565b985060808d013597506001600160401b0360a08e0135111562000e8c57600080fd5b62000e9e8e60a08f01358f0162000bc7565b96506001600160401b0360c08e0135111562000eb957600080fd5b62000ecb8e60c08f01358f0162000bc7565b95506001600160401b0360e08e0135111562000ee657600080fd5b62000ef88e60e08f01358f0162000bc7565b94506001600160401b036101008e0135111562000f1457600080fd5b62000f278e6101008f01358f0162000bc7565b93506001600160401b036101208e0135111562000f4357600080fd5b62000f568e6101208f01358f0162000bc7565b925062000f676101408e0162000c5b565b91506001600160401b036101608e0135111562000f8357600080fd5b62000f968e6101608f01358f0162000bc7565b90509295989b509295989b509295989b565b60208152600062000ced602083018462000d1a565b60006020828403121562000fd057600080fd5b81356001600160401b0381111562000fe757600080fd5b62000ff58482850162000bc7565b949350505050565b6020808252600f908201526e2737ba1020baba3437b934bd32b21760891b604082015260600190565b634e487b7160e01b600052603260045260246000fd5b634e487b7160e01b600052601160045260246000fd5b6000600182016200106757620010676200103c565b5060010190565b600181811c908216806200108357607f821691505b6020821081036200092a57634e487b7160e01b600052602260045260246000fd5b601f8211156200023057600081815260208120601f850160051c81016020861015620010cd5750805b601f850160051c820191505b81811015620010ee57828155600101620010d9565b505050505050565b81516001600160401b0381111562001112576200111262000bb1565b6200112a816200112384546200106e565b84620010a4565b602080601f831160018114620011625760008415620011495750858301515b600019600386901b1c1916600185901b178555620010ee565b600085815260208120601f198616915b82811015620011935788860151825594840194600190910190840162001172565b5085821015620011b25787850151600019600388901b60f8161c191681555b5050505050600190811b01905550565b604081526000620011d7604083018562000d1a565b90508260208301529392505050565b6000610160808352620011fc8184018f62000d1a565b9050828103602084015262001212818e62000d1a565b8c151560408501529050828103606084015262001230818c62000d1a565b905089608084015282810360a08401526200124c818a62000d1a565b905082810360c084015262001262818962000d1a565b905082810360e084015262001278818862000d1a565b90508281036101008401526200128f818762000d1a565b9050828103610120840152620012a6818662000d1a565b915050620012c06101408301846001600160a01b03169052565b9c9b505050505050505050505050565b696469642d4944426f742d60b01b815260008351620012f781600a85016020880162000cf4565b602360f81b600a939091019283015250600b810191909152602b01919050565b600082516200132b81846020870162000cf4565b9190910192915050565b818103818111156200134b576200134b6200103c565b92915050565b6000826200136f57634e487b7160e01b600052601260045260246000fd5b500490565b60408152600080845462001388816200106e565b8060408601526060600180841660008114620013ad5760018114620013c857620013fb565b60ff1985168884015283151560051b880183019550620013fb565b8960005260208060002060005b86811015620013f25781548b8201870152908401908201620013d5565b8a018501975050505b5050505050602092909201929092529291505056fe60806040523480156200001157600080fd5b506040516200435738038062004357833981016040819052620000349162000272565b6002620000428c82620004c0565b506003620000518b82620004c0565b506004805460ff19168a151517905560056200006e8982620004c0565b5060068790556007620000828782620004c0565b506008620000918682620004c0565b506009620000a08582620004c0565b50600a620000af8482620004c0565b50600b620000be8382620004c0565b506000600c81905580546001600160a01b039283166001600160a01b031991821681178355600180548316331781556010805480830182557f1b6847dc741a1b0cd08d278845f9d819d87b734759afb55fe2de5cb82a9ae6729081018054861690941790935581548154808401909255920180549093169185169190911790915581548316825260116020526040808320805460ff199081168417909155825490941683529091208054909216179055506200058c98505050505050505050565b634e487b7160e01b600052604160045260246000fd5b600082601f830112620001a757600080fd5b81516001600160401b0380821115620001c457620001c46200017f565b604051601f8301601f19908116603f01168101908282118183101715620001ef57620001ef6200017f565b816040528381526020925086838588010111156200020c57600080fd5b600091505b8382101562000230578582018301518183018401529082019062000211565b600093810190920192909252949350505050565b805180151581146200025557600080fd5b919050565b80516001600160a01b03811681146200025557600080fd5b60008060008060008060008060008060006101608c8e0312156200029557600080fd5b8b516001600160401b03811115620002ac57600080fd5b620002ba8e828f0162000195565b60208e0151909c5090506001600160401b03811115620002d957600080fd5b620002e78e828f0162000195565b9a5050620002f860408d0162000244565b60608d01519099506001600160401b038111156200031557600080fd5b620003238e828f0162000195565b60808e015160a08f0151919a50985090506001600160401b038111156200034957600080fd5b620003578e828f0162000195565b60c08e015190975090506001600160401b038111156200037657600080fd5b620003848e828f0162000195565b60e08e015190965090506001600160401b03811115620003a357600080fd5b620003b18e828f0162000195565b6101008e015190955090506001600160401b03811115620003d157600080fd5b620003df8e828f0162000195565b6101208e015190945090506001600160401b03811115620003ff57600080fd5b6200040d8e828f0162000195565b9250506200041f6101408d016200025a565b90509295989b509295989b9093969950565b600181811c908216806200044657607f821691505b6020821081036200046757634e487b7160e01b600052602260045260246000fd5b50919050565b601f821115620004bb57600081815260208120601f850160051c81016020861015620004965750805b601f850160051c820191505b81811015620004b757828155600101620004a2565b5050505b505050565b81516001600160401b03811115620004dc57620004dc6200017f565b620004f481620004ed845462000431565b846200046d565b602080601f8311600181146200052c5760008415620005135750858301515b600019600386901b1c1916600185901b178555620004b7565b600085815260208120601f198616915b828110156200055d578886015182559484019460019091019084016200053c565b50858210156200057c5787850151600019600388901b60f8161c191681555b5050505050600190811b01905550565b613dbb806200059c6000396000f3fe608060405234801561001057600080fd5b50600436106101e55760003560e01c8063872a720a1161010f578063b82928e2116100a2578063f079914f11610071578063f079914f146103bd578063f61e4fa6146103c5578063f7161d70146103d8578063fc67f27b146103eb57600080fd5b8063b82928e21461036f578063c56468b914610382578063dcc6012814610395578063e3428d64146103aa57600080fd5b806396c3d10b116100de57806396c3d10b146103295780639e0c3ead14610331578063a254fcbc14610339578063a6f9dae11461035c57600080fd5b8063872a720a146102f1578063893d20e8146103045780638d5ddbb31461030c578063967e6e651461032157600080fd5b8063423646ac116101875780635ec2dca2116101565780635ec2dca2146102a35780636bd4ffd3146102b65780637d9d39be146102c95780637e79e8ba146102e957600080fd5b8063423646ac14610252578063469266c814610268578063472b3275146102705780635baec33a1461027857600080fd5b806324db757f116101c357806324db757f1461021857806329a613b5146102205780633169439014610235578063370bc5be1461024857600080fd5b806317d7de7c146101ea5780631865c57d146102085780631a09254114610210575b600080fd5b6101f26103fe565b6040516101ff9190613685565b60405180910390f35b6101f26104c9565b6101f2610508565b6101f2610547565b610228610586565b6040516101ff919061369f565b6101f26102433660046137a4565b61068f565b610250610b34565b005b61025a610b73565b6040519081526020016101ff565b610250610ba9565b6101f2610be2565b61028b6102863660046137a4565b610c21565b6040516001600160a01b0390911681526020016101ff565b6101f26102b13660046137a4565b6110c8565b6102506102c43660046137fd565b611572565b6102dc6102d73660046137a4565b6115bd565b6040516101ff9190613818565b6101f2611aad565b6102506102ff366004613865565b611aec565b61028b611ed1565b610314611f10565b6040516101ff9190613991565b61025a611fa1565b6101f2611fd7565b6101f2612016565b61034c6103473660046137fd565b612055565b60405190151581526020016101ff565b61025061036a3660046137fd565b6120a3565b61025061037d3660046137a4565b61214d565b61025a6103903660046137a4565b6121f9565b61039d61269f565b6040516101ff91906139de565b61034c6103b83660046137a4565b612b6a565b61034c61300e565b6102506103d33660046137fd565b613047565b61034c6103e63660046137a4565b6130d8565b6102506103f93660046137a4565b61357e565b3360009081526011602052604090205460609060ff166104395760405162461bcd60e51b815260040161043090613b34565b60405180910390fd5b6002805461044690613b87565b80601f016020809104026020016040519081016040528092919081815260200182805461047290613b87565b80156104bf5780601f10610494576101008083540402835291602001916104bf565b820191906000526020600020905b8154815290600101906020018083116104a257829003601f168201915b5050505050905090565b3360009081526011602052604090205460609060ff166104fb5760405162461bcd60e51b815260040161043090613b34565b6009805461044690613b87565b3360009081526011602052604090205460609060ff1661053a5760405162461bcd60e51b815260040161043090613b34565b6003805461044690613b87565b3360009081526011602052604090205460609060ff166105795760405162461bcd60e51b815260040161043090613b34565b6007805461044690613b87565b3360009081526011602052604090205460609060ff166105b85760405162461bcd60e51b815260040161043090613b34565b600f805480602002602001604051908101604052809291908181526020016000905b828210156106865783829060005260206000200180546105f990613b87565b80601f016020809104026020016040519081016040528092919081815260200182805461062590613b87565b80156106725780601f1061064757610100808354040283529160200191610672565b820191906000526020600020905b81548152906001019060200180831161065557829003601f168201915b5050505050815260200190600101906105da565b50505050905090565b3360009081526011602052604090205460609060ff166106c15760405162461bcd60e51b815260040161043090613b34565b6000600e836040516106d39190613bc1565b9081526020016040518091039020604051806101600160405290816000820180546106fd90613b87565b80601f016020809104026020016040519081016040528092919081815260200182805461072990613b87565b80156107765780601f1061074b57610100808354040283529160200191610776565b820191906000526020600020905b81548152906001019060200180831161075957829003601f168201915b5050505050815260200160018201805461078f90613b87565b80601f01602080910402602001604051908101604052809291908181526020018280546107bb90613b87565b80156108085780601f106107dd57610100808354040283529160200191610808565b820191906000526020600020905b8154815290600101906020018083116107eb57829003601f168201915b505050918352505060028201546001600160a01b0316602082015260038201805460409092019161083890613b87565b80601f016020809104026020016040519081016040528092919081815260200182805461086490613b87565b80156108b15780601f10610886576101008083540402835291602001916108b1565b820191906000526020600020905b81548152906001019060200180831161089457829003601f168201915b505050505081526020016004820180546108ca90613b87565b80601f01602080910402602001604051908101604052809291908181526020018280546108f690613b87565b80156109435780601f1061091857610100808354040283529160200191610943565b820191906000526020600020905b81548152906001019060200180831161092657829003601f168201915b5050505050815260200160058201805461095c90613b87565b80601f016020809104026020016040519081016040528092919081815260200182805461098890613b87565b80156109d55780601f106109aa576101008083540402835291602001916109d5565b820191906000526020600020905b8154815290600101906020018083116109b857829003601f168201915b505050505081526020016006820180546109ee90613b87565b80601f0160208091040260200160405190810160405280929190818152602001828054610a1a90613b87565b8015610a675780601f10610a3c57610100808354040283529160200191610a67565b820191906000526020600020905b815481529060010190602001808311610a4a57829003601f168201915b50505050508152602001600782018054610a8090613b87565b80601f0160208091040260200160405190810160405280929190818152602001828054610aac90613b87565b8015610af95780601f10610ace57610100808354040283529160200191610af9565b820191906000526020600020905b815481529060010190602001808311610adc57829003601f168201915b5050509183525050600882015460ff808216151560208401526101009091041615156040820152600990910154606090910152519392505050565b6001546001600160a01b03163314610b5e5760405162461bcd60e51b815260040161043090613bdd565b6001805460ff60a01b1916600160a01b179055565b3360009081526011602052604081205460ff16610ba25760405162461bcd60e51b815260040161043090613b34565b50600c5490565b6001546001600160a01b03163314610bd35760405162461bcd60e51b815260040161043090613bdd565b6001805460ff60a01b19169055565b3360009081526011602052604090205460609060ff16610c145760405162461bcd60e51b815260040161043090613b34565b600a805461044690613b87565b3360009081526011602052604081205460ff16610c505760405162461bcd60e51b815260040161043090613b34565b6000600e83604051610c629190613bc1565b908152602001604051809103902060405180610160016040529081600082018054610c8c90613b87565b80601f0160208091040260200160405190810160405280929190818152602001828054610cb890613b87565b8015610d055780601f10610cda57610100808354040283529160200191610d05565b820191906000526020600020905b815481529060010190602001808311610ce857829003601f168201915b50505050508152602001600182018054610d1e90613b87565b80601f0160208091040260200160405190810160405280929190818152602001828054610d4a90613b87565b8015610d975780601f10610d6c57610100808354040283529160200191610d97565b820191906000526020600020905b815481529060010190602001808311610d7a57829003601f168201915b505050918352505060028201546001600160a01b03166020820152600382018054604090920191610dc790613b87565b80601f0160208091040260200160405190810160405280929190818152602001828054610df390613b87565b8015610e405780601f10610e1557610100808354040283529160200191610e40565b820191906000526020600020905b815481529060010190602001808311610e2357829003601f168201915b50505050508152602001600482018054610e5990613b87565b80601f0160208091040260200160405190810160405280929190818152602001828054610e8590613b87565b8015610ed25780601f10610ea757610100808354040283529160200191610ed2565b820191906000526020600020905b815481529060010190602001808311610eb557829003601f168201915b50505050508152602001600582018054610eeb90613b87565b80601f0160208091040260200160405190810160405280929190818152602001828054610f1790613b87565b8015610f645780601f10610f3957610100808354040283529160200191610f64565b820191906000526020600020905b815481529060010190602001808311610f4757829003601f168201915b50505050508152602001600682018054610f7d90613b87565b80601f0160208091040260200160405190810160405280929190818152602001828054610fa990613b87565b8015610ff65780601f10610fcb57610100808354040283529160200191610ff6565b820191906000526020600020905b815481529060010190602001808311610fd957829003601f168201915b5050505050815260200160078201805461100f90613b87565b80601f016020809104026020016040519081016040528092919081815260200182805461103b90613b87565b80156110885780601f1061105d57610100808354040283529160200191611088565b820191906000526020600020905b81548152906001019060200180831161106b57829003601f168201915b5050509183525050600882015460ff8082161515602084015261010090910416151560408083019190915260099092015460609091015201519392505050565b3360009081526011602052604090205460609060ff166110fa5760405162461bcd60e51b815260040161043090613b34565b6000600e8360405161110c9190613bc1565b90815260200160405180910390206040518061016001604052908160008201805461113690613b87565b80601f016020809104026020016040519081016040528092919081815260200182805461116290613b87565b80156111af5780601f10611184576101008083540402835291602001916111af565b820191906000526020600020905b81548152906001019060200180831161119257829003601f168201915b505050505081526020016001820180546111c890613b87565b80601f01602080910402602001604051908101604052809291908181526020018280546111f490613b87565b80156112415780601f1061121657610100808354040283529160200191611241565b820191906000526020600020905b81548152906001019060200180831161122457829003601f168201915b505050918352505060028201546001600160a01b0316602082015260038201805460409092019161127190613b87565b80601f016020809104026020016040519081016040528092919081815260200182805461129d90613b87565b80156112ea5780601f106112bf576101008083540402835291602001916112ea565b820191906000526020600020905b8154815290600101906020018083116112cd57829003601f168201915b5050505050815260200160048201805461130390613b87565b80601f016020809104026020016040519081016040528092919081815260200182805461132f90613b87565b801561137c5780601f106113515761010080835404028352916020019161137c565b820191906000526020600020905b81548152906001019060200180831161135f57829003601f168201915b5050505050815260200160058201805461139590613b87565b80601f01602080910402602001604051908101604052809291908181526020018280546113c190613b87565b801561140e5780601f106113e35761010080835404028352916020019161140e565b820191906000526020600020905b8154815290600101906020018083116113f157829003601f168201915b5050505050815260200160068201805461142790613b87565b80601f016020809104026020016040519081016040528092919081815260200182805461145390613b87565b80156114a05780601f10611475576101008083540402835291602001916114a0565b820191906000526020600020905b81548152906001019060200180831161148357829003601f168201915b505050505081526020016007820180546114b990613b87565b80601f01602080910402602001604051908101604052809291908181526020018280546114e590613b87565b80156115325780601f1061150757610100808354040283529160200191611532565b820191906000526020600020905b81548152906001019060200180831161151557829003601f168201915b5050509183525050600882015460ff8082161515602080850191909152610100909204161515604083015260099092015460609091015201519392505050565b6001546001600160a01b0316331461159c5760405162461bcd60e51b815260040161043090613bdd565b6001600160a01b03166000908152601160205260409020805460ff19169055565b6115c561360e565b3360009081526011602052604090205460ff166115f45760405162461bcd60e51b815260040161043090613b34565b6000600e836040516116069190613bc1565b90815260200160405180910390206040518061016001604052908160008201805461163090613b87565b80601f016020809104026020016040519081016040528092919081815260200182805461165c90613b87565b80156116a95780601f1061167e576101008083540402835291602001916116a9565b820191906000526020600020905b81548152906001019060200180831161168c57829003601f168201915b505050505081526020016001820180546116c290613b87565b80601f01602080910402602001604051908101604052809291908181526020018280546116ee90613b87565b801561173b5780601f106117105761010080835404028352916020019161173b565b820191906000526020600020905b81548152906001019060200180831161171e57829003601f168201915b505050918352505060028201546001600160a01b0316602082015260038201805460409092019161176b90613b87565b80601f016020809104026020016040519081016040528092919081815260200182805461179790613b87565b80156117e45780601f106117b9576101008083540402835291602001916117e4565b820191906000526020600020905b8154815290600101906020018083116117c757829003601f168201915b505050505081526020016004820180546117fd90613b87565b80601f016020809104026020016040519081016040528092919081815260200182805461182990613b87565b80156118765780601f1061184b57610100808354040283529160200191611876565b820191906000526020600020905b81548152906001019060200180831161185957829003601f168201915b5050505050815260200160058201805461188f90613b87565b80601f01602080910402602001604051908101604052809291908181526020018280546118bb90613b87565b80156119085780601f106118dd57610100808354040283529160200191611908565b820191906000526020600020905b8154815290600101906020018083116118eb57829003601f168201915b5050505050815260200160068201805461192190613b87565b80601f016020809104026020016040519081016040528092919081815260200182805461194d90613b87565b801561199a5780601f1061196f5761010080835404028352916020019161199a565b820191906000526020600020905b81548152906001019060200180831161197d57829003601f168201915b505050505081526020016007820180546119b390613b87565b80601f01602080910402602001604051908101604052809291908181526020018280546119df90613b87565b8015611a2c5780601f10611a0157610100808354040283529160200191611a2c565b820191906000526020600020905b815481529060010190602001808311611a0f57829003601f168201915b5050509183525050600882015460ff8082161515602080850191909152610100909204161515604080840191909152600990930154606092830152825160a08082018552858401518252608080870151938301939093528501519381019390935260c08401519183019190915260e090920151918101919091529392505050565b3360009081526011602052604090205460609060ff16611adf5760405162461bcd60e51b815260040161043090613b34565b6005805461044690613b87565b6000546001600160a01b0316331480611b0f57506001546001600160a01b031633145b611b2b5760405162461bcd60e51b815260040161043090613bdd565b600154600160a01b900460ff16611b745760405162461bcd60e51b815260206004820152600d60248201526c2737ba103b32b934b334b2b21760991b6044820152606401610430565b604080516101608101825289815260208082018a90526001600160a01b0389168284015260608083018990526080830188905260a0830187905260c0830186905260e08301859052600061010084018190526101208401819052606461014085015280549451654944426f742d60d01b9381019390935293901b6bffffffffffffffffffffffff19166026820152602360f81b603a82015242603b820152909190605b0160408051601f19818403018152919052600d805460018101825560009190915283519192508391600a9091027fd7b6990105719101dabeb77144f2a3385c8033acd3af97e9423a695e81ad1eb501908190611c739082613c55565b5060208201516001820190611c889082613c55565b5060408201516002820180546001600160a01b0319166001600160a01b0390921691909117905560608201516003820190611cc39082613c55565b5060808201516004820190611cd89082613c55565b5060a08201516005820190611ced9082613c55565b5060c08201516006820190611d029082613c55565b5060e08201516007820190611d179082613c55565b506101008281015160088301805461012086015161ffff1990911692151561ff00191692909217911515909202179055610140909101516009909101556040518290600e90611d67908490613bc1565b90815260405190819003602001902081518190611d849082613c55565b5060208201516001820190611d999082613c55565b5060408201516002820180546001600160a01b0319166001600160a01b0390921691909117905560608201516003820190611dd49082613c55565b5060808201516004820190611de99082613c55565b5060a08201516005820190611dfe9082613c55565b5060c08201516006820190611e139082613c55565b5060e08201516007820190611e289082613c55565b506101008281015160088301805461012086015161ffff1990911692151561ff0019169290921791151590920217905561014090910151600990910155600c805460649190600090611e7b908490613d2b565b92505081905550876001600160a01b03167f7ebe33712d6c6a6f609301aec2d0f640e296945089a284af1f5134efbdd631e38b83604051611ebd929190613d44565b60405180910390a250505050505050505050565b3360009081526011602052604081205460ff16611f005760405162461bcd60e51b815260040161043090613b34565b506000546001600160a01b031690565b3360009081526011602052604090205460609060ff16611f425760405162461bcd60e51b815260040161043090613b34565b60108054806020026020016040519081016040528092919081815260200182805480156104bf57602002820191906000526020600020905b81546001600160a01b03168152600190910190602001808311611f7a575050505050905090565b3360009081526011602052604081205460ff16611fd05760405162461bcd60e51b815260040161043090613b34565b5060065490565b3360009081526011602052604090205460609060ff166120095760405162461bcd60e51b815260040161043090613b34565b600b805461044690613b87565b3360009081526011602052604090205460609060ff166120485760405162461bcd60e51b815260040161043090613b34565b6008805461044690613b87565b3360009081526011602052604081205460ff166120845760405162461bcd60e51b815260040161043090613b34565b506001600160a01b031660009081526011602052604090205460ff1690565b6000546001600160a01b03163314806120c657506001546001600160a01b031633145b6120e25760405162461bcd60e51b815260040161043090613bdd565b600154600160a01b900460ff1661212b5760405162461bcd60e51b815260206004820152600d60248201526c2737ba103b32b934b334b2b21760991b6044820152606401610430565b600080546001600160a01b0319166001600160a01b0392909216919091179055565b3360009081526011602052604090205460ff1661217c5760405162461bcd60e51b815260040161043090613b34565b6000600e8260405161218e9190613bc1565b908152604051908190036020019020600881015490915060ff1615156000036121c15760088101805460ff191660011790555b60018160090160008282546121d69190613d72565b925050819055506001600c60008282546121f09190613d72565b90915550505050565b3360009081526011602052604081205460ff166122285760405162461bcd60e51b815260040161043090613b34565b6000600e8360405161223a9190613bc1565b90815260200160405180910390206040518061016001604052908160008201805461226490613b87565b80601f016020809104026020016040519081016040528092919081815260200182805461229090613b87565b80156122dd5780601f106122b2576101008083540402835291602001916122dd565b820191906000526020600020905b8154815290600101906020018083116122c057829003601f168201915b505050505081526020016001820180546122f690613b87565b80601f016020809104026020016040519081016040528092919081815260200182805461232290613b87565b801561236f5780601f106123445761010080835404028352916020019161236f565b820191906000526020600020905b81548152906001019060200180831161235257829003601f168201915b505050918352505060028201546001600160a01b0316602082015260038201805460409092019161239f90613b87565b80601f01602080910402602001604051908101604052809291908181526020018280546123cb90613b87565b80156124185780601f106123ed57610100808354040283529160200191612418565b820191906000526020600020905b8154815290600101906020018083116123fb57829003601f168201915b5050505050815260200160048201805461243190613b87565b80601f016020809104026020016040519081016040528092919081815260200182805461245d90613b87565b80156124aa5780601f1061247f576101008083540402835291602001916124aa565b820191906000526020600020905b81548152906001019060200180831161248d57829003601f168201915b505050505081526020016005820180546124c390613b87565b80601f01602080910402602001604051908101604052809291908181526020018280546124ef90613b87565b801561253c5780601f106125115761010080835404028352916020019161253c565b820191906000526020600020905b81548152906001019060200180831161251f57829003601f168201915b5050505050815260200160068201805461255590613b87565b80601f016020809104026020016040519081016040528092919081815260200182805461258190613b87565b80156125ce5780601f106125a3576101008083540402835291602001916125ce565b820191906000526020600020905b8154815290600101906020018083116125b157829003601f168201915b505050505081526020016007820180546125e790613b87565b80601f016020809104026020016040519081016040528092919081815260200182805461261390613b87565b80156126605780601f1061263557610100808354040283529160200191612660565b820191906000526020600020905b81548152906001019060200180831161264357829003601f168201915b5050509183525050600882015460ff80821615156020840152610100909104161515604082015260099091015460609091015261014001519392505050565b3360009081526011602052604090205460609060ff166126d15760405162461bcd60e51b815260040161043090613b34565b600d805480602002602001604051908101604052809291908181526020016000905b8282101561068657838290600052602060002090600a02016040518061016001604052908160008201805461272790613b87565b80601f016020809104026020016040519081016040528092919081815260200182805461275390613b87565b80156127a05780601f10612775576101008083540402835291602001916127a0565b820191906000526020600020905b81548152906001019060200180831161278357829003601f168201915b505050505081526020016001820180546127b990613b87565b80601f01602080910402602001604051908101604052809291908181526020018280546127e590613b87565b80156128325780601f1061280757610100808354040283529160200191612832565b820191906000526020600020905b81548152906001019060200180831161281557829003601f168201915b505050918352505060028201546001600160a01b0316602082015260038201805460409092019161286290613b87565b80601f016020809104026020016040519081016040528092919081815260200182805461288e90613b87565b80156128db5780601f106128b0576101008083540402835291602001916128db565b820191906000526020600020905b8154815290600101906020018083116128be57829003601f168201915b505050505081526020016004820180546128f490613b87565b80601f016020809104026020016040519081016040528092919081815260200182805461292090613b87565b801561296d5780601f106129425761010080835404028352916020019161296d565b820191906000526020600020905b81548152906001019060200180831161295057829003601f168201915b5050505050815260200160058201805461298690613b87565b80601f01602080910402602001604051908101604052809291908181526020018280546129b290613b87565b80156129ff5780601f106129d4576101008083540402835291602001916129ff565b820191906000526020600020905b8154815290600101906020018083116129e257829003601f168201915b50505050508152602001600682018054612a1890613b87565b80601f0160208091040260200160405190810160405280929190818152602001828054612a4490613b87565b8015612a915780601f10612a6657610100808354040283529160200191612a91565b820191906000526020600020905b815481529060010190602001808311612a7457829003601f168201915b50505050508152602001600782018054612aaa90613b87565b80601f0160208091040260200160405190810160405280929190818152602001828054612ad690613b87565b8015612b235780601f10612af857610100808354040283529160200191612b23565b820191906000526020600020905b815481529060010190602001808311612b0657829003601f168201915b5050509183525050600882015460ff8082161515602080850191909152610100909204161515604083015260099092015460609091015290825260019290920191016126f3565b3360009081526011602052604081205460ff16612b995760405162461bcd60e51b815260040161043090613b34565b6000600e83604051612bab9190613bc1565b908152602001604051809103902060405180610160016040529081600082018054612bd590613b87565b80601f0160208091040260200160405190810160405280929190818152602001828054612c0190613b87565b8015612c4e5780601f10612c2357610100808354040283529160200191612c4e565b820191906000526020600020905b815481529060010190602001808311612c3157829003601f168201915b50505050508152602001600182018054612c6790613b87565b80601f0160208091040260200160405190810160405280929190818152602001828054612c9390613b87565b8015612ce05780601f10612cb557610100808354040283529160200191612ce0565b820191906000526020600020905b815481529060010190602001808311612cc357829003601f168201915b505050918352505060028201546001600160a01b03166020820152600382018054604090920191612d1090613b87565b80601f0160208091040260200160405190810160405280929190818152602001828054612d3c90613b87565b8015612d895780601f10612d5e57610100808354040283529160200191612d89565b820191906000526020600020905b815481529060010190602001808311612d6c57829003601f168201915b50505050508152602001600482018054612da290613b87565b80601f0160208091040260200160405190810160405280929190818152602001828054612dce90613b87565b8015612e1b5780601f10612df057610100808354040283529160200191612e1b565b820191906000526020600020905b815481529060010190602001808311612dfe57829003601f168201915b50505050508152602001600582018054612e3490613b87565b80601f0160208091040260200160405190810160405280929190818152602001828054612e6090613b87565b8015612ead5780601f10612e8257610100808354040283529160200191612ead565b820191906000526020600020905b815481529060010190602001808311612e9057829003601f168201915b50505050508152602001600682018054612ec690613b87565b80601f0160208091040260200160405190810160405280929190818152602001828054612ef290613b87565b8015612f3f5780601f10612f1457610100808354040283529160200191612f3f565b820191906000526020600020905b815481529060010190602001808311612f2257829003601f168201915b50505050508152602001600782018054612f5890613b87565b80601f0160208091040260200160405190810160405280929190818152602001828054612f8490613b87565b8015612fd15780601f10612fa657610100808354040283529160200191612fd1565b820191906000526020600020905b815481529060010190602001808311612fb457829003601f168201915b5050509183525050600882015460ff8082161515602084015261010091829004161515604083015260099092015460609091015201519392505050565b3360009081526011602052604081205460ff1661303d5760405162461bcd60e51b815260040161043090613b34565b5060045460ff1690565b6001546001600160a01b031633146130715760405162461bcd60e51b815260040161043090613bdd565b6010805460018181019092557f1b6847dc741a1b0cd08d278845f9d819d87b734759afb55fe2de5cb82a9ae6720180546001600160a01b039093166001600160a01b031990931683179055600091825260116020526040909120805460ff19169091179055565b3360009081526011602052604081205460ff166131075760405162461bcd60e51b815260040161043090613b34565b6000600e836040516131199190613bc1565b90815260200160405180910390206040518061016001604052908160008201805461314390613b87565b80601f016020809104026020016040519081016040528092919081815260200182805461316f90613b87565b80156131bc5780601f10613191576101008083540402835291602001916131bc565b820191906000526020600020905b81548152906001019060200180831161319f57829003601f168201915b505050505081526020016001820180546131d590613b87565b80601f016020809104026020016040519081016040528092919081815260200182805461320190613b87565b801561324e5780601f106132235761010080835404028352916020019161324e565b820191906000526020600020905b81548152906001019060200180831161323157829003601f168201915b505050918352505060028201546001600160a01b0316602082015260038201805460409092019161327e90613b87565b80601f01602080910402602001604051908101604052809291908181526020018280546132aa90613b87565b80156132f75780601f106132cc576101008083540402835291602001916132f7565b820191906000526020600020905b8154815290600101906020018083116132da57829003601f168201915b5050505050815260200160048201805461331090613b87565b80601f016020809104026020016040519081016040528092919081815260200182805461333c90613b87565b80156133895780601f1061335e57610100808354040283529160200191613389565b820191906000526020600020905b81548152906001019060200180831161336c57829003601f168201915b505050505081526020016005820180546133a290613b87565b80601f01602080910402602001604051908101604052809291908181526020018280546133ce90613b87565b801561341b5780601f106133f05761010080835404028352916020019161341b565b820191906000526020600020905b8154815290600101906020018083116133fe57829003601f168201915b5050505050815260200160068201805461343490613b87565b80601f016020809104026020016040519081016040528092919081815260200182805461346090613b87565b80156134ad5780601f10613482576101008083540402835291602001916134ad565b820191906000526020600020905b81548152906001019060200180831161349057829003601f168201915b505050505081526020016007820180546134c690613b87565b80601f01602080910402602001604051908101604052809291908181526020018280546134f290613b87565b801561353f5780601f106135145761010080835404028352916020019161353f565b820191906000526020600020905b81548152906001019060200180831161352257829003601f168201915b5050509183525050600882015460ff80821615156020840152610100909104161515604082015260099091015460609091015261012001519392505050565b3360009081526011602052604090205460ff166135ad5760405162461bcd60e51b815260040161043090613b34565b6000600e826040516135bf9190613bc1565b908152604051908190036020019020600881015490915060ff6101009091041615156000036121c15760088101805461ff00191661010017905560018160090160008282546121d69190613d72565b6040518060a001604052806005905b606081526020019060019003908161361d5790505090565b60005b83811015613650578181015183820152602001613638565b50506000910152565b60008151808452613671816020860160208601613635565b601f01601f19169290920160200192915050565b6020815260006136986020830184613659565b9392505050565b6000602080830181845280855180835260408601915060408160051b870101925083870160005b828110156136f457603f198886030184526136e2858351613659565b945092850192908501906001016136c6565b5092979650505050505050565b634e487b7160e01b600052604160045260246000fd5b600082601f83011261372857600080fd5b813567ffffffffffffffff8082111561374357613743613701565b604051601f8301601f19908116603f0116810190828211818310171561376b5761376b613701565b8160405283815286602085880101111561378457600080fd5b836020870160208301376000602085830101528094505050505092915050565b6000602082840312156137b657600080fd5b813567ffffffffffffffff8111156137cd57600080fd5b6137d984828501613717565b949350505050565b80356001600160a01b03811681146137f857600080fd5b919050565b60006020828403121561380f57600080fd5b613698826137e1565b602080825260009060c0830183820185845b600581101561385957601f19878503018352613847848351613659565b9350918401919084019060010161382a565b50919695505050505050565b600080600080600080600080610100898b03121561388257600080fd5b883567ffffffffffffffff8082111561389a57600080fd5b6138a68c838d01613717565b995060208b01359150808211156138bc57600080fd5b6138c88c838d01613717565b98506138d660408c016137e1565b975060608b01359150808211156138ec57600080fd5b6138f88c838d01613717565b965060808b013591508082111561390e57600080fd5b61391a8c838d01613717565b955060a08b013591508082111561393057600080fd5b61393c8c838d01613717565b945060c08b013591508082111561395257600080fd5b61395e8c838d01613717565b935060e08b013591508082111561397457600080fd5b506139818b828c01613717565b9150509295985092959890939650565b6020808252825182820181905260009190848201906040850190845b818110156139d25783516001600160a01b0316835292840192918401916001016139ad565b50909695505050505050565b60006020808301818452808551808352604092508286019150828160051b87010184880160005b83811015613b2657603f1989840301855281516101608151818652613a2c82870182613659565b915050888201518582038a870152613a448282613659565b91505087820151613a5f898701826001600160a01b03169052565b5060608083015186830382880152613a778382613659565b9250505060808083015186830382880152613a928382613659565b9250505060a08083015186830382880152613aad8382613659565b9250505060c08083015186830382880152613ac88382613659565b9250505060e08083015186830382880152613ae38382613659565b9250505061010080830151613afb8288018215159052565b5050610120828101511515908601526101409182015191909401529386019390860190600101613a05565b509098975050505050505050565b60208082526033908201527f596f7520617265206e6f7420617574686f72697a656420746f20706572666f7260408201527236903a3434b9903a3930b739b0b1ba34b7b71760691b606082015260800190565b600181811c90821680613b9b57607f821691505b602082108103613bbb57634e487b7160e01b600052602260045260246000fd5b50919050565b60008251613bd3818460208701613635565b9190910192915050565b6020808252600f908201526e2737ba1020baba3437b934bd32b21760891b604082015260600190565b601f821115613c5057600081815260208120601f850160051c81016020861015613c2d5750805b601f850160051c820191505b81811015613c4c57828155600101613c39565b5050505b505050565b815167ffffffffffffffff811115613c6f57613c6f613701565b613c8381613c7d8454613b87565b84613c06565b602080601f831160018114613cb85760008415613ca05750858301515b600019600386901b1c1916600185901b178555613c4c565b600085815260208120601f198616915b82811015613ce757888601518255948401946001909101908401613cc8565b5085821015613d055787850151600019600388901b60f8161c191681555b5050505050600190811b01905550565b634e487b7160e01b600052601160045260246000fd5b80820180821115613d3e57613d3e613d15565b92915050565b604081526000613d576040830185613659565b8281036020840152613d698185613659565b95945050505050565b81810381811115613d3e57613d3e613d1556fea2646970667358221220da5d95730f0fb18bfbbe326778be1cdca72630c3d62fbe8ab1baebfe40aa023b64736f6c63430008130033a26469706673582212209a1711cabdff0f4c4fd94ced3d9b5ca0bf48915e8d09c911c2cdbc9d0eb9cbfc64736f6c63430008130033",
  "linkReferences": {},
  "deployedLinkReferences": {}
}