{
  "_format": "hh-sol-artifact-1",
  "contractName": "Profile",
  "sourceName": "contracts/Profile.sol",
  "abi": [
    {
      "inputs": [
        {
          "internalType": "string",
          "name": "_name",
          "type": "string"
        },
        {
          "internalType": "string",
          "name": "_description",
          "type": "string"
        },
        {
          "internalType": "bool",
          "name": "_dev",
          "type": "bool"
        },
        {
          "internalType": "string",
          "name": "_email",
          "type": "string"
        },
        {
          "internalType": "string",
          "name": "_age",
          "type": "string"
        },
        {
          "internalType": "string",
          "name": "phone",
          "type": "string"
        },
        {
          "internalType": "string",
          "name": "_country",
          "type": "string"
        },
        {
          "internalType": "string",
          "name": "_state",
          "type": "string"
        },
        {
          "internalType": "string",
          "name": "_address",
          "type": "string"
        },
        {
          "internalType": "string[]",
          "name": "urls",
          "type": "string[]"
        },
        {
          "internalType": "address",
          "name": "_owner",
          "type": "address"
        },
        {
          "internalType": "address",
          "name": "owner_",
          "type": "address"
        },
        {
          "internalType": "uint256",
          "name": "number",
          "type": "uint256"
        }
      ],
      "stateMutability": "nonpayable",
      "type": "constructor"
    },
    {
      "anonymous": false,
      "inputs": [
        {
          "indexed": true,
          "internalType": "address",
          "name": "ca",
          "type": "address"
        },
        {
          "indexed": false,
          "internalType": "string",
          "name": "name",
          "type": "string"
        }
      ],
      "name": "AddProject",
      "type": "event"
    },
    {
      "anonymous": false,
      "inputs": [],
      "name": "Unverified",
      "type": "event"
    },
    {
      "anonymous": false,
      "inputs": [],
      "name": "Verified",
      "type": "event"
    },
    {
      "inputs": [
        {
          "internalType": "address",
          "name": "account",
          "type": "address"
        }
      ],
      "name": "addAccountToAccessList",
      "outputs": [],
      "stateMutability": "nonpayable",
      "type": "function"
    },
    {
      "inputs": [
        {
          "internalType": "string",
          "name": "_name",
          "type": "string"
        },
        {
          "internalType": "string",
          "name": "_description",
          "type": "string"
        },
        {
          "internalType": "address",
          "name": "_contract_address",
          "type": "address"
        },
        {
          "internalType": "string",
          "name": "_website_link",
          "type": "string"
        },
        {
          "internalType": "string",
          "name": "_telegram_link",
          "type": "string"
        },
        {
          "internalType": "string",
          "name": "_twitter_link",
          "type": "string"
        },
        {
          "internalType": "string",
          "name": "_discord_link",
          "type": "string"
        },
        {
          "internalType": "string",
          "name": "_linktree",
          "type": "string"
        }
      ],
      "name": "addProject",
      "outputs": [],
      "stateMutability": "nonpayable",
      "type": "function"
    },
    {
      "inputs": [],
      "name": "addVerification",
      "outputs": [],
      "stateMutability": "nonpayable",
      "type": "function"
    },
    {
      "inputs": [
        {
          "internalType": "address",
          "name": "_owner",
          "type": "address"
        }
      ],
      "name": "changeOwner",
      "outputs": [],
      "stateMutability": "nonpayable",
      "type": "function"
    },
    {
      "inputs": [
        {
          "internalType": "address",
          "name": "ca",
          "type": "address"
        }
      ],
      "name": "checkIfProjectIsHoneyPot",
      "outputs": [
        {
          "internalType": "bool",
          "name": "",
          "type": "bool"
        }
      ],
      "stateMutability": "view",
      "type": "function"
    },
    {
      "inputs": [
        {
          "internalType": "address",
          "name": "ca",
          "type": "address"
        }
      ],
      "name": "checkIfProjectIsRugged",
      "outputs": [
        {
          "internalType": "bool",
          "name": "",
          "type": "bool"
        }
      ],
      "stateMutability": "view",
      "type": "function"
    },
    {
      "inputs": [
        {
          "internalType": "address",
          "name": "account",
          "type": "address"
        }
      ],
      "name": "getAccountAccess",
      "outputs": [
        {
          "internalType": "bool",
          "name": "",
          "type": "bool"
        }
      ],
      "stateMutability": "view",
      "type": "function"
    },
    {
      "inputs": [],
      "name": "getAge",
      "outputs": [
        {
          "internalType": "string",
          "name": "",
          "type": "string"
        }
      ],
      "stateMutability": "view",
      "type": "function"
    },
    {
      "inputs": [],
      "name": "getCountry",
      "outputs": [
        {
          "internalType": "string",
          "name": "",
          "type": "string"
        }
      ],
      "stateMutability": "view",
      "type": "function"
    },
    {
      "inputs": [],
      "name": "getDescription",
      "outputs": [
        {
          "internalType": "string",
          "name": "",
          "type": "string"
        }
      ],
      "stateMutability": "view",
      "type": "function"
    },
    {
      "inputs": [],
      "name": "getEmail",
      "outputs": [
        {
          "internalType": "string",
          "name": "",
          "type": "string"
        }
      ],
      "stateMutability": "view",
      "type": "function"
    },
    {
      "inputs": [],
      "name": "getIDBotNumber",
      "outputs": [
        {
          "internalType": "uint256",
          "name": "",
          "type": "uint256"
        }
      ],
      "stateMutability": "view",
      "type": "function"
    },
    {
      "inputs": [],
      "name": "getIdentityUrl",
      "outputs": [
        {
          "internalType": "string",
          "name": "",
          "type": "string"
        }
      ],
      "stateMutability": "view",
      "type": "function"
    },
    {
      "inputs": [],
      "name": "getName",
      "outputs": [
        {
          "internalType": "string",
          "name": "",
          "type": "string"
        }
      ],
      "stateMutability": "view",
      "type": "function"
    },
    {
      "inputs": [],
      "name": "getOwner",
      "outputs": [
        {
          "internalType": "address",
          "name": "",
          "type": "address"
        }
      ],
      "stateMutability": "view",
      "type": "function"
    },
    {
      "inputs": [],
      "name": "getPhoneNumber",
      "outputs": [
        {
          "internalType": "string",
          "name": "",
          "type": "string"
        }
      ],
      "stateMutability": "view",
      "type": "function"
    },
    {
      "inputs": [],
      "name": "getProfilePicUrl",
      "outputs": [
        {
          "internalType": "string",
          "name": "",
          "type": "string"
        }
      ],
      "stateMutability": "view",
      "type": "function"
    },
    {
      "inputs": [
        {
          "internalType": "address",
          "name": "ca",
          "type": "address"
        }
      ],
      "name": "getProjectContractAddress",
      "outputs": [
        {
          "internalType": "address",
          "name": "",
          "type": "address"
        }
      ],
      "stateMutability": "view",
      "type": "function"
    },
    {
      "inputs": [
        {
          "internalType": "address",
          "name": "ca",
          "type": "address"
        }
      ],
      "name": "getProjectDescription",
      "outputs": [
        {
          "internalType": "string",
          "name": "",
          "type": "string"
        }
      ],
      "stateMutability": "view",
      "type": "function"
    },
    {
      "inputs": [
        {
          "internalType": "address",
          "name": "ca",
          "type": "address"
        }
      ],
      "name": "getProjectLinks",
      "outputs": [
        {
          "internalType": "string[5]",
          "name": "",
          "type": "string[5]"
        }
      ],
      "stateMutability": "view",
      "type": "function"
    },
    {
      "inputs": [
        {
          "internalType": "address",
          "name": "ca",
          "type": "address"
        }
      ],
      "name": "getProjectName",
      "outputs": [
        {
          "internalType": "string",
          "name": "",
          "type": "string"
        }
      ],
      "stateMutability": "view",
      "type": "function"
    },
    {
      "inputs": [
        {
          "internalType": "address",
          "name": "ca",
          "type": "address"
        }
      ],
      "name": "getProjectReputationScore",
      "outputs": [
        {
          "internalType": "uint256",
          "name": "",
          "type": "uint256"
        }
      ],
      "stateMutability": "view",
      "type": "function"
    },
    {
      "inputs": [],
      "name": "getProjects",
      "outputs": [
        {
          "components": [
            {
              "internalType": "string",
              "name": "name",
              "type": "string"
            },
            {
              "internalType": "string",
              "name": "description",
              "type": "string"
            },
            {
              "internalType": "address",
              "name": "contract_address",
              "type": "address"
            },
            {
              "internalType": "string",
              "name": "website_link",
              "type": "string"
            },
            {
              "internalType": "string",
              "name": "telegram_link",
              "type": "string"
            },
            {
              "internalType": "string",
              "name": "twitter_link",
              "type": "string"
            },
            {
              "internalType": "string",
              "name": "discord_link",
              "type": "string"
            },
            {
              "internalType": "string",
              "name": "linktree",
              "type": "string"
            },
            {
              "internalType": "bool",
              "name": "isHoneyPot",
              "type": "bool"
            },
            {
              "internalType": "bool",
              "name": "isRugged",
              "type": "bool"
            },
            {
              "internalType": "uint256",
              "name": "reputation_score",
              "type": "uint256"
            }
          ],
          "internalType": "struct Profile.Project[]",
          "name": "",
          "type": "tuple[]"
        }
      ],
      "stateMutability": "view",
      "type": "function"
    },
    {
      "inputs": [],
      "name": "getReputationScore",
      "outputs": [
        {
          "internalType": "uint256",
          "name": "",
          "type": "uint256"
        }
      ],
      "stateMutability": "view",
      "type": "function"
    },
    {
      "inputs": [],
      "name": "getResidentialAddress",
      "outputs": [
        {
          "internalType": "string",
          "name": "",
          "type": "string"
        }
      ],
      "stateMutability": "view",
      "type": "function"
    },
    {
      "inputs": [],
      "name": "getState",
      "outputs": [
        {
          "internalType": "string",
          "name": "",
          "type": "string"
        }
      ],
      "stateMutability": "view",
      "type": "function"
    },
    {
      "inputs": [],
      "name": "getVerificationStatus",
      "outputs": [
        {
          "internalType": "string",
          "name": "",
          "type": "string"
        }
      ],
      "stateMutability": "view",
      "type": "function"
    },
    {
      "inputs": [],
      "name": "isDev",
      "outputs": [
        {
          "internalType": "bool",
          "name": "",
          "type": "bool"
        }
      ],
      "stateMutability": "view",
      "type": "function"
    },
    {
      "inputs": [
        {
          "internalType": "address",
          "name": "account",
          "type": "address"
        }
      ],
      "name": "removeAccountFromAccessList",
      "outputs": [],
      "stateMutability": "nonpayable",
      "type": "function"
    },
    {
      "inputs": [],
      "name": "removeVerification",
      "outputs": [],
      "stateMutability": "nonpayable",
      "type": "function"
    },
    {
      "inputs": [
        {
          "internalType": "address",
          "name": "ca",
          "type": "address"
        }
      ],
      "name": "reportProjectIsHoneyPot",
      "outputs": [],
      "stateMutability": "nonpayable",
      "type": "function"
    },
    {
      "inputs": [
        {
          "internalType": "address",
          "name": "ca",
          "type": "address"
        }
      ],
      "name": "reportProjectIsRugged",
      "outputs": [],
      "stateMutability": "nonpayable",
      "type": "function"
    }
  ],
  "bytecode": "0x610100604052346200027d5762003206620000208138038060805262000fb7565b908160a052608051913960a05160805181016101a0828203126200027d5781516001600160401b0381116200027d576200005b920162000fdd565b60a0516020810151906001600160401b0382116200027d5762000085916080518201910162000fdd565b60a0519060408201519182151583036200027d576060810151906001600160401b0382116200027d57620000c0916080518201910162000fdd565b60a0516080810151906001600160401b0382116200027d57620000ea916080518201910162000fdd565b60a0805190810151919591906001600160401b0382116200027d5762000117916080518201910162000fdd565b60a05160c0810151919391906001600160401b0382116200027d5762000144916080518201910162000fdd565b60a05160e0810151906001600160401b0382116200027d576200016e916080518201910162000fdd565b60a051610100810151906001600160401b0382116200027d5762000199916080518201910162000fdd565b60a05161012081015160c08190529193916001600160401b03106200027d5760805160c05182019101601f820112156200027d575160e08190526001600160401b0310620007c157620001f4602060e05160051b0162000fb7565b9560208760e051815201998a9560805160a051908101602060e05160051b60c05184010101116200027d5760c051016020019b5b60a0518d602060e05160051b60c05184010101111562000282578d51916001600160401b0383116200027d57620002716020939284809460805183019260c05101010162000fdd565b8152019c019b62000228565b600080fd5b5050610140989a620002a69a610180620002ae61016060a0519e8f9e8f016200104f565b9d016200104f565b9c015199620002bf60025462001064565b601f811162000f75575b50600e6650656e64696e6760c81b016002558051906001600160401b038211620007c1578190620002fc60045462001064565b601f811162000f22575b50602090601f831160011462000e935760009262000e87575b50508160011b916000199060031b1c1916176004555b8051906001600160401b038211620007c15781906200035660055462001064565b601f811162000e50575b50602090601f831160011462000dc15760009262000db5575b50508160011b916000199060031b1c1916176005555b60ff801960065416911515161760065580519060018060401b038211620007c1578190620003bf60075462001064565b601f811162000d73575b50602090601f831160011462000cf55760009262000ce9575b50508160011b916000199060031b1c1916176007555b8051906001600160401b038211620007c15781906200041960085462001064565b601f811162000ca7575b50602090601f831160011462000c295760009262000c1d575b50508160011b916000199060031b1c1916176008555b8051906001600160401b038211620007c15781906200047360095462001064565b601f811162000bdb575b50602090601f831160011462000b5d5760009262000b51575b50508160011b916000199060031b1c1916176009555b8051906001600160401b038211620007c1578190620004cd600a5462001064565b601f811162000b0f575b50602090601f831160011462000a955760009262000a89575b50508160011b916000199060031b1c191617600a555b8051906001600160401b038211620007c157819062000527600b5462001064565b601f811162000a36575b50602090601f8311600114620009ab576000926200099f575b50508160011b916000199060031b1c191617600b555b8051906001600160401b038211620007c157819062000581600c5462001064565b601f81116200094c575b50602090601f8311600114620008c157600092620008b5575b50508160011b916000199060031b1c191617600c555b845115620007d757518051906001600160401b038211620007c1578190620005e4600d5462001064565b601f811162000873575b50602090601f8311600114620007f957600092620007ed575b50508160011b916000199060031b1c191617600d555b835193600194851015620007d757604001518051906001600160401b038211620007c157819062000650600e5462001064565b601f811162000773575b50602090601f8311600114620006fc57600092620006f0575b5050600019600383901b1c191690851b17600e555b6010556000600f5560018060a01b038091169060018060a01b03199282846000541617600055168092845416178355600052601360205260406000208260ff1982541617905560005260406000209060ff1982541617905560405161208b9081620010bb8239f35b01519050868062000673565b600e600090815288945060008051602062003146833981519152929190601f198516905b8181106200075a5750841162000740575b505050811b01600e5562000688565b015160001960f88460031b161c1916905586808062000731565b8284015185558a96909401936020938401930162000720565b600e600052620007af9060008051602062003146833981519152601f850160051c81019160208610620007b6575b601f0160051c0190620010a1565b876200065a565b9091508190620007a1565b634e487b7160e01b600052604160045260246000fd5b634e487b7160e01b600052603260045260246000fd5b01519050868062000607565b600d6000908152600080516020620031868339815191529350601f198516905b8181106200085a575090846001959493921062000840575b505050811b01600d556200061d565b015160001960f88460031b161c1916905586808062000831565b9293602060018192878601518155019501930162000819565b600d600052620008ae9060008051602062003186833981519152601f850160051c81019160208610620007b657601f0160051c0190620010a1565b87620005ee565b015190508780620005a4565b600c60009081527fdf6966c971051c3d54ec59162606531493a51404a002842f56009d7e5cf4a8c79350601f198516905b81811062000933575090846001959493921062000919575b505050811b01600c55620005ba565b015160001960f88460031b161c191690558780806200090a565b92936020600181928786015181550195019301620008f2565b600c60005262000998907fdf6966c971051c3d54ec59162606531493a51404a002842f56009d7e5cf4a8c7601f850160051c81019160208610620007b657601f0160051c0190620010a1565b886200058b565b0151905088806200054a565b600b60009081527f0175b7a638427703f0dbe7bb9bbf987a2551717b34e79f33b5b1008d1fa01db99350601f198516905b81811062000a1d575090846001959493921062000a03575b505050811b01600b5562000560565b015160001960f88460031b161c19169055888080620009f4565b92936020600181928786015181550195019301620009dc565b600b60005262000a82907f0175b7a638427703f0dbe7bb9bbf987a2551717b34e79f33b5b1008d1fa01db9601f850160051c81019160208610620007b657601f0160051c0190620010a1565b8962000531565b015190508980620004f0565b600a6000908152600080516020620031668339815191529350601f198516905b81811062000af6575090846001959493921062000adc575b505050811b01600a5562000506565b015160001960f88460031b161c1916905589808062000acd565b9293602060018192878601518155019501930162000ab5565b600a60005262000b4a9060008051602062003166833981519152601f850160051c81019160208610620007b657601f0160051c0190620010a1565b8a620004d7565b015190508a8062000496565b600960009081529350600080516020620031e683398151915291905b601f198416851062000bbf576001945083601f1981161062000ba5575b505050811b01600955620004ac565b015160001960f88460031b161c191690558a808062000b96565b8181015183556020948501946001909301929091019062000b79565b600960005262000c1690600080516020620031e6833981519152601f850160051c81019160208610620007b657601f0160051c0190620010a1565b8b6200047d565b015190508b806200043c565b600860009081529350600080516020620031c683398151915291905b601f198416851062000c8b576001945083601f1981161062000c71575b505050811b0160085562000452565b015160001960f88460031b161c191690558b808062000c62565b8181015183556020948501946001909301929091019062000c45565b600860005262000ce290600080516020620031c6833981519152601f850160051c81019160208610620007b657601f0160051c0190620010a1565b8c62000423565b015190508c80620003e2565b600760009081529350600080516020620031a683398151915291905b601f198416851062000d57576001945083601f1981161062000d3d575b505050811b01600755620003f8565b015160001960f88460031b161c191690558c808062000d2e565b8181015183556020948501946001909301929091019062000d11565b600760005262000dae90600080516020620031a6833981519152601f850160051c81019160208610620007b657601f0160051c0190620010a1565b8d620003c9565b015190508e8062000379565b6005600090815293507f036b6384b5eca791c62761152d0c79bb0604c104a5fb6f4eb0703f3154bb3db091905b601f198416851062000e34576001945083601f1981161062000e1a575b505050811b016005556200038f565b015160001960f88460031b161c191690558e808062000e0b565b8181015183556020948501946001909301929091019062000dee565b62000e809060056000526020600020601f850160051c81019160208610620007b657601f0160051c0190620010a1565b8f62000360565b015190508f806200031f565b6004600090815293507f8a35acfbc15ff81a39ae7d344fd709f28e8600b4aa8c65c6b64bfe7fe36bd19b91905b601f198416851062000f06576001945083601f1981161062000eec575b505050811b0160045562000335565b015160001960f88460031b161c191690558f808062000edd565b8181015183556020948501946001909301929091019062000ec0565b600460005262000f6e907f8a35acfbc15ff81a39ae7d344fd709f28e8600b4aa8c65c6b64bfe7fe36bd19b601f850160051c81019160208610620007b657601f0160051c0190620010a1565b3862000306565b600260005262000fb090601f0160051c7f405787fa12a823e0f2b7631cc41b3ba8828b3321ca811111fa75cd3aa3bb5ace90810190620010a1565b8e620002c9565b6040519190601f01601f191682016001600160401b03811183821017620007c157604052565b919080601f840112156200027d5782516001600160401b038111620007c15760209062001013601f8201601f1916830162000fb7565b928184528282870101116200027d5760005b8181106200103b57508260009394955001015290565b858101830151848201840152820162001025565b51906001600160a01b03821682036200027d57565b90600182811c9216801562001096575b60208310146200108057565b634e487b7160e01b600052602260045260246000fd5b91607f169162001074565b818110620010ad575050565b60008155600101620010a156fe608060408181526004918236101561001657600080fd5b60009260e08435811c9283631109fe1a146115605750826317d7de7c1461146d5782631865c57d146113a35782631a092541146112d957826324db757f1461120f57826328ec3777146111145782632b8cd7e1146110ee5782633200e26d14611024578263370bc5be14610faa578263423646ac14610f75578263469266c814610ef5578263472b327514610e2b5782636a4d879114610dc65782636af1ef4414610d635782636bd4ffd314610d185782637cabb9d814610ce35782637e79e8ba14610c1957826382d7313414610be8578263872a720a1461098c578263893d20e81461094e57826389a86487146108f2578263967e6e651461082857826396c3d10b1461075e57826397c99e92146106ce5782639e0c3ead146105c9578263a254fcbc14610577578263a6f9dae114610508578263dcc601281461032957508163f079914f146102f0578163f38f23ca1461022e57508063f61e4fa6146101e25763f6f6ff121461018757600080fd5b346101de5760203660031901126101de576101406101d5826020946101aa611693565b338252601387526101c060ff848420541661179a565b6001600160a01b031681526012865220611920565b01519051908152f35b5080fd5b50346101de5760203660031901126101de576101fc611693565b6001546001600160a01b03919061021690831633146118e2565b16825260136020528120805460ff1916600117905580f35b919050346102ec5760203660031901126102ec5760099061024d611693565b338552601360205261026460ff838720541661179a565b6001600160a01b031684526012602052832060088082018054909181901c60ff16156102da575b505001805460001992918382019182116102c75755600f549182019182116102b45750600f5580f35b634e487b7160e01b835260119052602482fd5b634e487b7160e01b855260118352602485fd5b61ff001916610100179055388061028b565b8280fd5b5050346101de57816003193601126101de5761031a60ff826020943381526013865220541661179a565b60ff6006541690519015158152f35b8382863461050557806003193601126105055733815260206013815261035460ff858420541661179a565b6011549267ffffffffffffffff84116104f2575083519061037a818560051b0183611721565b8382526011835280820193837f31ecc21a745e3968a04e9570e4425bc18fa8019c68028196b546d1669c200c68865b8383106104cd5750505050845194818601928287525180935280860190808460051b8801019594975b8489106103df5787870388f35b9091929394958480600192603f198b820301875289519061049661048661047361046061044d61042b61041b8851610160808a528901906116ae565b898901518882038b8a01526116ae565b8a8060a01b038d890151168d88015260608089015190888303908901526116ae565b60808088015190878303908801526116ae565b60a08087015190868303908701526116ae565b60c08086015190858303908601526116ae565b87840151838203898501526116ae565b91610100808201511515908301526101208082015115159083015261014080910151910152980194019801979190949392946103d2565b600a856001926104e0859a98999a611920565b815201920192019190959493956103a9565b634e487b7160e01b835260419052602482fd5b80fd5b843461050557602036600319011261050557610522611693565b8154906001600160a01b03903382841614801561056a575b610543906118e2565b61055160ff600354166119dd565b16906bffffffffffffffffffffffff60a01b1617815580f35b506001548216331461053a565b505050346101de5760203660031901126101de5760ff81602093610599611693565b338252601386526105ae84848420541661179a565b6001600160a01b031681526013855220549151911615158152f35b505050346101de57816003193601126101de57338252602090601382526105f560ff828520541661179a565b805183819490600a5461060781611802565b918285526001918783821691826000146106a757505060011461064b575b5050506106479291610638910385611721565b519282849384528301906116ae565b0390f35b9190869350600a83527fc65a7bb8d6351c1cf70c95a316cc6a92839c986682d98bc35f958f4883f9d2a85b82841061068f5750505082010181610638610647610625565b8054848a018601528895508794909301928101610676565b60ff19168782015293151560051b8601909301935084925061063891506106479050610625565b848285346102ec5760203660031901126102ec576009906106ed611693565b338552601360205261070460ff838720541661179a565b6001600160a01b031684526012602052832060088101805460ff81161561074e57505001805460001992918382019182116102c75755600f549182019182116102b45750600f5580f35b60ff19166001179055848061028b565b505050346101de57816003193601126101de573382526020906013825261078a60ff828520541661179a565b805183819490600d5461079c81611802565b918285526001918783821691826000146106a75750506001146107cc575050506106479291610638910385611721565b9190869350600d83527fd7b6990105719101dabeb77144f2a3385c8033acd3af97e9423a695e81ad1eb55b8284106108105750505082010181610638610647610625565b8054848a0186015288955087949093019281016107f7565b505050346101de57816003193601126101de573382526020906013825261085460ff828520541661179a565b80518381949060085461086681611802565b918285526001918783821691826000146106a7575050600114610896575050506106479291610638910385611721565b9190869350600883527ff3f7a9fe364faab93b216da50a3214154f22a0a2b415b23a84c8169e8b636ee35b8284106108da5750505082010181610638610647610625565b8054848a0186015288955087949093019281016108c1565b505050346101de5760203660031901126101de576020918161094481610916611693565b933381526013875261092d60ff838320541661179a565b6001600160a01b0394851681526012875220611920565b0151169051908152f35b505050346101de57816003193601126101de576020913381526013835261097a60ff838320541661179a565b5490516001600160a01b039091168152f35b84918434610be4576101009182600319360112610be05767ffffffffffffffff8582358281116101de576109c39036908501611743565b946024358381116102ec576109db9036908601611743565b926044359760018060a01b0391828a16809a03610be057606435818111610bdc57610a099036908901611743565b608435828111610bd857610a209036908a01611743565b60a435838111610bd457610a379036908b01611743565b9160c435848111610bd057610a4f9036908c01611743565b9360e435908111610bd057610a6a610a7f9136908d01611743565b96808a54163314908115610bc2575b506118e2565b610a8d60ff600354166119dd565b8a5198610a998a6116ee565b8c8a5260208a01528c8b8a01526060890152608088015260a087015260c086015284015282015285610120820152606461014082015260115468010000000000000000811015610baf576001810180601155811015610b9c5790610b2981600a610b399460118b52027f31ecc21a745e3968a04e9570e4425bc18fa8019c68028196b546d1669c200c6801611ac1565b8587526012602052838720611ac1565b600f549060648201809211610b895750600f555160208082527f3f59d974cb323c784e37c2bf72b6b6f11983b4d23545adf73f81b553873a539c928291610b8391908301906116ae565b0390a280f35b634e487b7160e01b865260119052602485fd5b634e487b7160e01b875260328352602487fd5b634e487b7160e01b875260418352602487fd5b905060015416331438610a79565b8880fd5b8780fd5b8680fd5b8580fd5b8480fd5b8380fd5b505050346101de5760203660031901126101de57610120610c0e826020946101aa611693565b015115159051908152f35b505050346101de57816003193601126101de5733825260209060138252610c4560ff828520541661179a565b805183819490600754610c5781611802565b918285526001918783821691826000146106a7575050600114610c87575050506106479291610638910385611721565b9190869350600783527fa66cc928b5edb82af9bd49922954155ab7b0942694bea4ce44661d9a8736c6885b828410610ccb5750505082010181610638610647610625565b8054848a018601528895508794909301928101610cb2565b505050346101de57816003193601126101de57610d0e60ff826020943381526013865220541661179a565b6010549051908152f35b505050346101de5760203660031901126101de57610d34611693565b6001546001600160a01b039190610d4e90831633146118e2565b16825260136020528120805460ff1916905580f35b83853461050557602090816003193601126105055781610db48461064793610d89611693565b33825260138552610d9f60ff848420541661179a565b6001600160a01b031681526012845220611920565b015192519282849384528301906116ae565b505050346101de5760203660031901126101de57610e178161064793610dea611693565b3382526013602052610e0160ff848420541661179a565b6001600160a01b03168152601260205220611920565b5190519182916020835260208301906116ae565b505050346101de57816003193601126101de5733825260209060138252610e5760ff828520541661179a565b805183819490600c54610e6981611802565b918285526001918783821691826000146106a7575050600114610e99575050506106479291610638910385611721565b9190869350600c83527fdf6966c971051c3d54ec59162606531493a51404a002842f56009d7e5cf4a8c75b828410610edd5750505082010181610638610647610625565b8054848a018601528895508794909301928101610ec4565b8434610505578060031936011261050557610f1b60018060a01b036001541633146118e2565b610f2e610f29600254611802565b611a19565b60186b139bdd0815995c9a599a595960a21b016002556003805460ff191690557fcba605a3f5685de65463c9180ca28791ffb1417ec9a41915215c382c4908293e8180a180f35b505050346101de57816003193601126101de57610fa060ff826020943381526013865220541661179a565b600f549051908152f35b8434610505578060031936011261050557610fd060018060a01b036001541633146118e2565b610fde610f29600254611802565b60106715995c9a599a595960c21b016002556003805460ff191660011790557f2e5e1405bcc465f1fe8b5964e79910ef9548bb882e1bae02ca901e855a7a4ff58180a180f35b505050346101de57816003193601126101de573382526020906013825261105060ff828520541661179a565b80518381949060025461106281611802565b918285526001918783821691826000146106a7575050600114611092575050506106479291610638910385611721565b9190869350600283527f405787fa12a823e0f2b7631cc41b3ba8828b3321ca811111fa75cd3aa3bb5ace5b8284106110d65750505082010181610638610647610625565b8054848a0186015288955087949093019281016110bd565b505050346101de5760203660031901126101de57610100610c0e826020946101aa611693565b83853461050557806003193601126105055760019161113d60018060a01b0384541633146118e2565b8051918093600e549161114f83611802565b808652928281169081156111e7575060011461118a575b50505061117882610647940383611721565b519182916020835260208301906116ae565b9450600e85527fbb7b4a454dc3493923482f07822329ed19e8244eff582cc204f8554c3620c3fd5b8286106111cf575050506111788260206106479582010194611166565b805460208787018101919091529095019481016111b2565b61064797508693506020925061117894915060ff191682840152151560051b82010194611166565b505050346101de57816003193601126101de573382526020906013825261123b60ff828520541661179a565b80518381949060095461124d81611802565b918285526001918783821691826000146106a757505060011461127d575050506106479291610638910385611721565b9190869350600983527f6e1540171b6c0c960b71a7020d9f60077f6af931a8bbf590da0223dacf75c7af5b8284106112c15750505082010181610638610647610625565b8054848a0186015288955087949093019281016112a8565b505050346101de57816003193601126101de573382526020906013825261130560ff828520541661179a565b80518381949060055461131781611802565b918285526001918783821691826000146106a7575050600114611347575050506106479291610638910385611721565b9190869350600583527f036b6384b5eca791c62761152d0c79bb0604c104a5fb6f4eb0703f3154bb3db05b82841061138b5750505082010181610638610647610625565b8054848a018601528895508794909301928101611372565b505050346101de57816003193601126101de57338252602090601382526113cf60ff828520541661179a565b805183819490600b546113e181611802565b918285526001918783821691826000146106a7575050600114611411575050506106479291610638910385611721565b9190869350600b83527f0175b7a638427703f0dbe7bb9bbf987a2551717b34e79f33b5b1008d1fa01db95b8284106114555750505082010181610638610647610625565b8054848a01860152889550879490930192810161143c565b848285346102ec57826003193601126102ec573383526020916013835261149960ff838620541661179a565b8151938491818154906114ab82611802565b928386526001928884821691826000146115365750506001146114db575b858861064789610638848a0385611721565b815286935091907f8a35acfbc15ff81a39ae7d344fd709f28e8600b4aa8c65c6b64bfe7fe36bd19b5b82841061151e5750505082010181610638610647886114c9565b8054848a018601528895508794909301928101611504565b60ff19168882015294151560051b87019094019450859350610638925061064791508990506114c9565b9184869234610be45760209485600319360112610be05761157f611693565b60a0908183019267ffffffffffffffff938181108582111761168057865288885b84811061167257505050338752601388526115c060ff868920541661179a565b6001600160a01b03168652601287528386206115db90611920565b91845195828701918783109083111761165f57508452606082015185526080820151878601528101518385015260c0810151606085015201516080830152519183830184845260c084019291945b600586106116375784840385f35b9091928180611652600193601f1989820301875287516116ae565b9501930195019490611629565b634e487b7160e01b885260419052602487fd5b6060818401520189906115a0565b634e487b7160e01b895260418852602489fd5b600435906001600160a01b03821682036116a957565b600080fd5b919082519283825260005b8481106116da575050826000602080949584010152601f8019910116010190565b6020818301810151848301820152016116b9565b610160810190811067ffffffffffffffff82111761170b57604052565b634e487b7160e01b600052604160045260246000fd5b90601f8019910116810190811067ffffffffffffffff82111761170b57604052565b81601f820112156116a95780359067ffffffffffffffff821161170b5760405192611778601f8401601f191660200185611721565b828452602083830101116116a957816000926020809301838601378301015290565b156117a157565b60405162461bcd60e51b815260206004820152603360248201527f596f7520617265206e6f7420617574686f72697a656420746f20706572666f7260448201527236903a3434b9903a3930b739b0b1ba34b7b71760691b6064820152608490fd5b90600182811c92168015611832575b602083101461181c57565b634e487b7160e01b600052602260045260246000fd5b91607f1691611811565b906040519182600082549261185084611802565b9081845260019485811690816000146118bf575060011461187c575b505061187a92500383611721565b565b9093915060005260209081600020936000915b8183106118a757505061187a9350820101388061186c565b8554888401850152948501948794509183019161188f565b91505061187a94506020925060ff191682840152151560051b820101388061186c565b156118e957565b60405162461bcd60e51b815260206004820152600f60248201526e2737ba1020baba3437b934bd32b21760891b6044820152606490fd5b9060405161192d816116ee565b6101406009829461193d8161183c565b845261194b6001820161183c565b602085015260028101546001600160a01b0316604085015261196f6003820161183c565b60608501526119806004820161183c565b60808501526119916005820161183c565b60a08501526119a26006820161183c565b60c08501526119b36007820161183c565b60e085015260ff6008820154818116151561010087015260081c1615156101208501520154910152565b156119e457565b60405162461bcd60e51b815260206004820152600d60248201526c2737ba103b32b934b334b2b21760991b6044820152606490fd5b601f8111611a245750565b600060028152601f7f405787fa12a823e0f2b7631cc41b3ba8828b3321ca811111fa75cd3aa3bb5ace920160051c8201915b828110611a6257505050565b818155600101611a56565b90601f8111611a7b57505050565b600091825260208220906020601f850160051c83019410611ab7575b601f0160051c01915b828110611aac57505050565b818155600101611aa0565b9092508290611a97565b908051805167ffffffffffffffff9081811161170b57611aeb81611ae58754611802565b87611a6d565b806020601f94858311600114611ff057600092611fe5575b50508160011b916000199060031b1c19161784555b6001808501602085015180519084821161170b578190611b4282611b3c8654611802565b86611a6d565b602090878311600114611f8257600092611f77575b5050600019600383901b1c191690831b1790555b6002850160018060a01b036040860151166bffffffffffffffffffffffff60a01b825416179055600390818601606086015180519085821161170b578190611bb782611b3c8654611802565b602090888311600114611f1557600092611f0a575b505060001982861b1c191690831b1790555b60048601608086015180519085821161170b578190611c0182611b3c8654611802565b602090888311600114611ea857600092611e9d575b505060001982861b1c191690831b1790555b6005860160a086015180519085821161170b578190611c4b82611b3c8654611802565b602090888311600114611e3b57600092611e30575b505060001982861b1c191690831b1790555b6006860160c086015180519085821161170b578190611c9582611b3c8654611802565b602090888311600114611dce57600092611dc3575b505060001982861b1c191690831b1790555b600786019360e0860151805194851161170b57611ce385611cdd8854611802565b88611a6d565b6020918511600114611d52579284809360099896936101409896600095611d47575b50501b92600019911b1c19161790555b600884016101008201511515815460ff61ff00610120860151151560081b1692169061ffff1916171790550151910155565b015193503880611d05565b91939290601f1984169286600052816000209360005b818110611dad575091859391610140989660099a98969410611d93575b50505050811b019055611d15565b01519060f884600019921b161c1916905538808080611d85565b8284015186559487019460209384019301611d68565b015190503880611caa565b90859350601f1983169185600052816000209260005b818110611e1857508411611e00575b505050811b019055611cbc565b015160001983881b60f8161c19169055388080611df3565b82840151855588969094019360209384019301611de4565b015190503880611c60565b90859350601f1983169185600052816000209260005b818110611e8557508411611e6d575b505050811b019055611c72565b015160001983881b60f8161c19169055388080611e60565b82840151855588969094019360209384019301611e51565b015190503880611c16565b90859350601f1983169185600052816000209260005b818110611ef257508411611eda575b505050811b019055611c28565b015160001983881b60f8161c19169055388080611ecd565b82840151855588969094019360209384019301611ebe565b015190503880611bcc565b90859350601f1983169185600052816000209260005b818110611f5f57508411611f47575b505050811b019055611bde565b015160001983881b60f8161c19169055388080611f3a565b82840151855588969094019360209384019301611f2b565b015190503880611b57565b90859350601f1983169185600052816000209260005b818110611fcd57508411611fb4575b505050811b019055611b6b565b015160001960f88460031b161c19169055388080611fa7565b82840151855588969094019360209384019301611f98565b015190503880611b03565b60008881528281209350601f198516905b81811061203d5750908460019594939210612024575b505050811b018455611b18565b015160001960f88460031b161c19169055388080612017565b9293602060018192878601518155019501930161200156fea2646970667358221220b29943a453e031abc2d3bab95818cb04cc9d1c7cd16b336a198ec7bfb47e544c64736f6c63430008130033bb7b4a454dc3493923482f07822329ed19e8244eff582cc204f8554c3620c3fdc65a7bb8d6351c1cf70c95a316cc6a92839c986682d98bc35f958f4883f9d2a8d7b6990105719101dabeb77144f2a3385c8033acd3af97e9423a695e81ad1eb5a66cc928b5edb82af9bd49922954155ab7b0942694bea4ce44661d9a8736c688f3f7a9fe364faab93b216da50a3214154f22a0a2b415b23a84c8169e8b636ee36e1540171b6c0c960b71a7020d9f60077f6af931a8bbf590da0223dacf75c7af",
  "linkReferences": {},
  "deployedLinkReferences": {}
}