{
  "_format": "hh-sol-artifact-1",
  "contractName": "Profile",
  "sourceName": "contracts/Profile.sol",
  "abi": [
    {
      "inputs": [
        {
          "internalType": "string",
          "name": "_name",
          "type": "string"
        },
        {
          "internalType": "string",
          "name": "_description",
          "type": "string"
        },
        {
          "internalType": "bool",
          "name": "_dev",
          "type": "bool"
        },
        {
          "internalType": "string",
          "name": "_email",
          "type": "string"
        },
        {
          "internalType": "string",
          "name": "_age",
          "type": "string"
        },
        {
          "internalType": "string",
          "name": "phone",
          "type": "string"
        },
        {
          "internalType": "string",
          "name": "_country",
          "type": "string"
        },
        {
          "internalType": "string",
          "name": "_state",
          "type": "string"
        },
        {
          "internalType": "string",
          "name": "_address",
          "type": "string"
        },
        {
          "internalType": "string[]",
          "name": "urls",
          "type": "string[]"
        },
        {
          "internalType": "address",
          "name": "_owner",
          "type": "address"
        },
        {
          "internalType": "uint256",
          "name": "number",
          "type": "uint256"
        }
      ],
      "stateMutability": "nonpayable",
      "type": "constructor"
    },
    {
      "anonymous": false,
      "inputs": [
        {
          "indexed": true,
          "internalType": "address",
          "name": "ca",
          "type": "address"
        },
        {
          "indexed": false,
          "internalType": "string",
          "name": "name",
          "type": "string"
        }
      ],
      "name": "AddProject",
      "type": "event"
    },
    {
      "inputs": [
        {
          "internalType": "address",
          "name": "account",
          "type": "address"
        }
      ],
      "name": "addAccountToAccessList",
      "outputs": [],
      "stateMutability": "nonpayable",
      "type": "function"
    },
    {
      "inputs": [
        {
          "internalType": "string",
          "name": "_name",
          "type": "string"
        },
        {
          "internalType": "string",
          "name": "_description",
          "type": "string"
        },
        {
          "internalType": "address",
          "name": "_contract_address",
          "type": "address"
        },
        {
          "internalType": "string",
          "name": "_website_link",
          "type": "string"
        },
        {
          "internalType": "string",
          "name": "_telegram_link",
          "type": "string"
        },
        {
          "internalType": "string",
          "name": "_twitter_link",
          "type": "string"
        },
        {
          "internalType": "string",
          "name": "_discord_link",
          "type": "string"
        },
        {
          "internalType": "string",
          "name": "_linktree",
          "type": "string"
        }
      ],
      "name": "addProject",
      "outputs": [],
      "stateMutability": "nonpayable",
      "type": "function"
    },
    {
      "inputs": [],
      "name": "addVerification",
      "outputs": [],
      "stateMutability": "nonpayable",
      "type": "function"
    },
    {
      "inputs": [
        {
          "internalType": "address",
          "name": "_owner",
          "type": "address"
        }
      ],
      "name": "changeOwner",
      "outputs": [],
      "stateMutability": "nonpayable",
      "type": "function"
    },
    {
      "inputs": [
        {
          "internalType": "address",
          "name": "ca",
          "type": "address"
        }
      ],
      "name": "checkIfProjectIsHoneyPot",
      "outputs": [
        {
          "internalType": "bool",
          "name": "",
          "type": "bool"
        }
      ],
      "stateMutability": "view",
      "type": "function"
    },
    {
      "inputs": [
        {
          "internalType": "address",
          "name": "ca",
          "type": "address"
        }
      ],
      "name": "checkIfProjectIsRugged",
      "outputs": [
        {
          "internalType": "bool",
          "name": "",
          "type": "bool"
        }
      ],
      "stateMutability": "view",
      "type": "function"
    },
    {
      "inputs": [
        {
          "internalType": "address",
          "name": "account",
          "type": "address"
        }
      ],
      "name": "getAccountAccess",
      "outputs": [
        {
          "internalType": "bool",
          "name": "",
          "type": "bool"
        }
      ],
      "stateMutability": "view",
      "type": "function"
    },
    {
      "inputs": [],
      "name": "getAge",
      "outputs": [
        {
          "internalType": "string",
          "name": "",
          "type": "string"
        }
      ],
      "stateMutability": "view",
      "type": "function"
    },
    {
      "inputs": [],
      "name": "getCountry",
      "outputs": [
        {
          "internalType": "string",
          "name": "",
          "type": "string"
        }
      ],
      "stateMutability": "view",
      "type": "function"
    },
    {
      "inputs": [],
      "name": "getDescription",
      "outputs": [
        {
          "internalType": "string",
          "name": "",
          "type": "string"
        }
      ],
      "stateMutability": "view",
      "type": "function"
    },
    {
      "inputs": [],
      "name": "getEmail",
      "outputs": [
        {
          "internalType": "string",
          "name": "",
          "type": "string"
        }
      ],
      "stateMutability": "view",
      "type": "function"
    },
    {
      "inputs": [],
      "name": "getIDBotNumber",
      "outputs": [
        {
          "internalType": "uint256",
          "name": "",
          "type": "uint256"
        }
      ],
      "stateMutability": "view",
      "type": "function"
    },
    {
      "inputs": [],
      "name": "getIdentityUrl",
      "outputs": [
        {
          "internalType": "string",
          "name": "",
          "type": "string"
        }
      ],
      "stateMutability": "view",
      "type": "function"
    },
    {
      "inputs": [],
      "name": "getName",
      "outputs": [
        {
          "internalType": "string",
          "name": "",
          "type": "string"
        }
      ],
      "stateMutability": "view",
      "type": "function"
    },
    {
      "inputs": [],
      "name": "getOwner",
      "outputs": [
        {
          "internalType": "address",
          "name": "",
          "type": "address"
        }
      ],
      "stateMutability": "view",
      "type": "function"
    },
    {
      "inputs": [],
      "name": "getPhoneNumber",
      "outputs": [
        {
          "internalType": "string",
          "name": "",
          "type": "string"
        }
      ],
      "stateMutability": "view",
      "type": "function"
    },
    {
      "inputs": [],
      "name": "getProfilePicUrl",
      "outputs": [
        {
          "internalType": "string",
          "name": "",
          "type": "string"
        }
      ],
      "stateMutability": "view",
      "type": "function"
    },
    {
      "inputs": [
        {
          "internalType": "address",
          "name": "ca",
          "type": "address"
        }
      ],
      "name": "getProjectContractAddress",
      "outputs": [
        {
          "internalType": "address",
          "name": "",
          "type": "address"
        }
      ],
      "stateMutability": "view",
      "type": "function"
    },
    {
      "inputs": [
        {
          "internalType": "address",
          "name": "ca",
          "type": "address"
        }
      ],
      "name": "getProjectDescription",
      "outputs": [
        {
          "internalType": "string",
          "name": "",
          "type": "string"
        }
      ],
      "stateMutability": "view",
      "type": "function"
    },
    {
      "inputs": [
        {
          "internalType": "address",
          "name": "ca",
          "type": "address"
        }
      ],
      "name": "getProjectLinks",
      "outputs": [
        {
          "internalType": "string[5]",
          "name": "",
          "type": "string[5]"
        }
      ],
      "stateMutability": "view",
      "type": "function"
    },
    {
      "inputs": [
        {
          "internalType": "address",
          "name": "ca",
          "type": "address"
        }
      ],
      "name": "getProjectName",
      "outputs": [
        {
          "internalType": "string",
          "name": "",
          "type": "string"
        }
      ],
      "stateMutability": "view",
      "type": "function"
    },
    {
      "inputs": [
        {
          "internalType": "address",
          "name": "ca",
          "type": "address"
        }
      ],
      "name": "getProjectReputationScore",
      "outputs": [
        {
          "internalType": "uint256",
          "name": "",
          "type": "uint256"
        }
      ],
      "stateMutability": "view",
      "type": "function"
    },
    {
      "inputs": [],
      "name": "getProjects",
      "outputs": [
        {
          "components": [
            {
              "internalType": "string",
              "name": "name",
              "type": "string"
            },
            {
              "internalType": "string",
              "name": "description",
              "type": "string"
            },
            {
              "internalType": "address",
              "name": "contract_address",
              "type": "address"
            },
            {
              "internalType": "string",
              "name": "website_link",
              "type": "string"
            },
            {
              "internalType": "string",
              "name": "telegram_link",
              "type": "string"
            },
            {
              "internalType": "string",
              "name": "twitter_link",
              "type": "string"
            },
            {
              "internalType": "string",
              "name": "discord_link",
              "type": "string"
            },
            {
              "internalType": "string",
              "name": "linktree",
              "type": "string"
            },
            {
              "internalType": "bool",
              "name": "isHoneyPot",
              "type": "bool"
            },
            {
              "internalType": "bool",
              "name": "isRugged",
              "type": "bool"
            },
            {
              "internalType": "uint256",
              "name": "reputation_score",
              "type": "uint256"
            }
          ],
          "internalType": "struct Profile.Project[]",
          "name": "",
          "type": "tuple[]"
        }
      ],
      "stateMutability": "view",
      "type": "function"
    },
    {
      "inputs": [],
      "name": "getReputationScore",
      "outputs": [
        {
          "internalType": "uint256",
          "name": "",
          "type": "uint256"
        }
      ],
      "stateMutability": "view",
      "type": "function"
    },
    {
      "inputs": [],
      "name": "getResidentialAddress",
      "outputs": [
        {
          "internalType": "string",
          "name": "",
          "type": "string"
        }
      ],
      "stateMutability": "view",
      "type": "function"
    },
    {
      "inputs": [],
      "name": "getState",
      "outputs": [
        {
          "internalType": "string",
          "name": "",
          "type": "string"
        }
      ],
      "stateMutability": "view",
      "type": "function"
    },
    {
      "inputs": [],
      "name": "getVerificationStatus",
      "outputs": [
        {
          "internalType": "string",
          "name": "",
          "type": "string"
        }
      ],
      "stateMutability": "view",
      "type": "function"
    },
    {
      "inputs": [],
      "name": "isDev",
      "outputs": [
        {
          "internalType": "bool",
          "name": "",
          "type": "bool"
        }
      ],
      "stateMutability": "view",
      "type": "function"
    },
    {
      "inputs": [
        {
          "internalType": "address",
          "name": "account",
          "type": "address"
        }
      ],
      "name": "removeAccountFromAccessList",
      "outputs": [],
      "stateMutability": "nonpayable",
      "type": "function"
    },
    {
      "inputs": [],
      "name": "removeVerification",
      "outputs": [],
      "stateMutability": "nonpayable",
      "type": "function"
    },
    {
      "inputs": [
        {
          "internalType": "address",
          "name": "ca",
          "type": "address"
        }
      ],
      "name": "reportProjectIsHoneyPot",
      "outputs": [],
      "stateMutability": "nonpayable",
      "type": "function"
    },
    {
      "inputs": [
        {
          "internalType": "address",
          "name": "ca",
          "type": "address"
        }
      ],
      "name": "reportProjectIsRugged",
      "outputs": [],
      "stateMutability": "nonpayable",
      "type": "function"
    }
  ],
  "bytecode": "0x60806040523462000f3b576200312d803803806200001d8162000f7b565b92833961018082828101031262000f3b5781516001600160401b03811162000f3b57620000509082840190840162000fa1565b60208301519091906001600160401b03811162000f3b57620000789082850190850162000fa1565b906040840151801515810362000f3b5760608501516001600160401b03811162000f3b57620000ad9083870190870162000fa1565b60808601516001600160401b03811162000f3b57620000d29084880190880162000fa1565b60a08701516001600160401b03811162000f3b57620000f79085890190890162000fa1565b60c08801516001600160401b03811162000f3b576200011c90868a01908a0162000fa1565b60e08901519092906001600160401b03811162000f3b576200014490878b01908b0162000fa1565b6101008a01519094906001600160401b03811162000f3b576200016d90888c01908c0162000fa1565b6101208b0151989096906001600160401b038a1162000f3b57888c018a8d01601f01121562000f3b578b8a0151986001600160401b038a11620007415789620001bd60208f9c60051b0162000f7b565b9b60208d8381520190819c602085820191838660051b910101011162000f3b578f91602082840101925b60208560051b8483010101841062000f40579350505050610140915001519b60018060a01b038d168d0362000f3b5761016001519a6200022960025462001013565b601f811162000ef9575b50600e6650656e64696e6760c81b016002558051906001600160401b038211620007415781906200026660045462001013565b601f811162000ea6575b50602090601f831160011462000e175760009262000e0b575b50508160011b916000199060031b1c1916176004555b8051906001600160401b03821162000741578190620002c060055462001013565b601f811162000dd4575b50602090601f831160011462000d455760009262000d39575b50508160011b916000199060031b1c1916176005555b60ff801960065416911515161760065580519060018060401b038211620007415781906200032960075462001013565b601f811162000cf7575b50602090601f831160011462000c795760009262000c6d575b50508160011b916000199060031b1c1916176007555b8051906001600160401b038211620007415781906200038360085462001013565b601f811162000c2b575b50602090601f831160011462000bad5760009262000ba1575b50508160011b916000199060031b1c1916176008555b8051906001600160401b03821162000741578190620003dd60095462001013565b601f811162000b5f575b50602090601f831160011462000ae15760009262000ad5575b50508160011b916000199060031b1c1916176009555b8051906001600160401b0382116200074157819062000437600a5462001013565b601f811162000a93575b50602090601f831160011462000a195760009262000a0d575b50508160011b916000199060031b1c191617600a555b8051906001600160401b0382116200074157819062000491600b5462001013565b601f8111620009ba575b50602090601f83116001146200092f5760009262000923575b50508160011b916000199060031b1c191617600b555b8051906001600160401b03821162000741578190620004eb600c5462001013565b601f8111620008d0575b50602090601f8311600114620008455760009262000839575b50508160011b916000199060031b1c191617600c555b81511562000757575180519093906001600160401b03811162000741576200054e600d5462001013565b601f8111620007e6575b50602094601f821160011462000779579481929394956000926200076d575b50508160011b916000199060031b1c191617600d555b81519160019283101562000757576040015180519093906001600160401b0381116200074157620005c0600e5462001013565b601f8111620006e2575b50602094601f821160011462000677579481929394956000926200066b575b5050600019600383901b1c191690841b17600e555b6010556000600f81905580546001600160a01b03199081166001600160a01b039384169081178355845490911633178455815260136020526040808220805460ff1990811686179091558454909316825290819020805490921690921790555161204390816200106a8239f35b015190503880620005e9565b601f19821695600e60005260206000209160005b888110620006cb57508387989795969710620006b1575b505050811b01600e55620005fe565b015160001960f88460031b161c19169055388080620006a2565b81830151845592870192602092830192016200068b565b600e6000526200072f907fbb7b4a454dc3493923482f07822329ed19e8244eff582cc204f8554c3620c3fd601f840160051c8101916020851062000736575b601f0160051c019062001050565b38620005ca565b909150819062000721565b634e487b7160e01b600052604160045260246000fd5b634e487b7160e01b600052603260045260246000fd5b01519050388062000577565b601f19821695600d60005260206000209160005b888110620007cd57508360019596979810620007b3575b505050811b01600d556200058d565b015160001960f88460031b161c19169055388080620007a4565b919260206001819286850151815501940192016200078d565b600d60005262000832907fd7b6990105719101dabeb77144f2a3385c8033acd3af97e9423a695e81ad1eb5601f840160051c810191602085106200073657601f0160051c019062001050565b3862000558565b0151905038806200050e565b600c60009081527fdf6966c971051c3d54ec59162606531493a51404a002842f56009d7e5cf4a8c79350601f198516905b818110620008b757509084600195949392106200089d575b505050811b01600c5562000524565b015160001960f88460031b161c191690553880806200088e565b9293602060018192878601518155019501930162000876565b600c6000526200091c907fdf6966c971051c3d54ec59162606531493a51404a002842f56009d7e5cf4a8c7601f850160051c810191602086106200073657601f0160051c019062001050565b38620004f5565b015190503880620004b4565b600b60009081527f0175b7a638427703f0dbe7bb9bbf987a2551717b34e79f33b5b1008d1fa01db99350601f198516905b818110620009a1575090846001959493921062000987575b505050811b01600b55620004ca565b015160001960f88460031b161c1916905538808062000978565b9293602060018192878601518155019501930162000960565b600b60005262000a06907f0175b7a638427703f0dbe7bb9bbf987a2551717b34e79f33b5b1008d1fa01db9601f850160051c810191602086106200073657601f0160051c019062001050565b386200049b565b0151905038806200045a565b600a6000908152600080516020620030ad8339815191529350601f198516905b81811062000a7a575090846001959493921062000a60575b505050811b01600a5562000470565b015160001960f88460031b161c1916905538808062000a51565b9293602060018192878601518155019501930162000a39565b600a60005262000ace90600080516020620030ad833981519152601f850160051c810191602086106200073657601f0160051c019062001050565b3862000441565b01519050388062000400565b6009600090815293506000805160206200310d83398151915291905b601f198416851062000b43576001945083601f1981161062000b29575b505050811b0160095562000416565b015160001960f88460031b161c1916905538808062000b1a565b8181015183556020948501946001909301929091019062000afd565b600960005262000b9a906000805160206200310d833981519152601f850160051c810191602086106200073657601f0160051c019062001050565b38620003e7565b015190503880620003a6565b600860009081529350600080516020620030ed83398151915291905b601f198416851062000c0f576001945083601f1981161062000bf5575b505050811b01600855620003bc565b015160001960f88460031b161c1916905538808062000be6565b8181015183556020948501946001909301929091019062000bc9565b600860005262000c6690600080516020620030ed833981519152601f850160051c810191602086106200073657601f0160051c019062001050565b386200038d565b0151905038806200034c565b600760009081529350600080516020620030cd83398151915291905b601f198416851062000cdb576001945083601f1981161062000cc1575b505050811b0160075562000362565b015160001960f88460031b161c1916905538808062000cb2565b8181015183556020948501946001909301929091019062000c95565b600760005262000d3290600080516020620030cd833981519152601f850160051c810191602086106200073657601f0160051c019062001050565b3862000333565b015190503880620002e3565b6005600090815293507f036b6384b5eca791c62761152d0c79bb0604c104a5fb6f4eb0703f3154bb3db091905b601f198416851062000db8576001945083601f1981161062000d9e575b505050811b01600555620002f9565b015160001960f88460031b161c1916905538808062000d8f565b8181015183556020948501946001909301929091019062000d72565b62000e049060056000526020600020601f850160051c810191602086106200073657601f0160051c019062001050565b38620002ca565b01519050388062000289565b6004600090815293507f8a35acfbc15ff81a39ae7d344fd709f28e8600b4aa8c65c6b64bfe7fe36bd19b91905b601f198416851062000e8a576001945083601f1981161062000e70575b505050811b016004556200029f565b015160001960f88460031b161c1916905538808062000e61565b8181015183556020948501946001909301929091019062000e44565b600460005262000ef2907f8a35acfbc15ff81a39ae7d344fd709f28e8600b4aa8c65c6b64bfe7fe36bd19b601f850160051c810191602086106200073657601f0160051c019062001050565b3862000270565b600260005262000f3490601f0160051c7f405787fa12a823e0f2b7631cc41b3ba8828b3321ca811111fa75cd3aa3bb5ace9081019062001050565b3862000233565b600080fd5b83516001600160401b03811162000f3b57602080809462000f6c8794838c880191878901010162000fa1565b815201950194925050620001e7565b6040519190601f01601f191682016001600160401b038111838210176200074157604052565b919080601f8401121562000f3b5782516001600160401b038111620007415760209062000fd7601f8201601f1916830162000f7b565b9281845282828701011162000f3b5760005b81811062000fff57508260009394955001015290565b858101830151848201840152820162000fe9565b90600182811c9216801562001045575b60208310146200102f57565b634e487b7160e01b600052602260045260246000fd5b91607f169162001023565b8181106200105c575050565b600081556001016200105056fe608060408181526004918236101561001657600080fd5b60009260e08435811c9283631109fe1a146115185750826317d7de7c146114255782631865c57d1461135b5782631a0925411461129157826324db757f146111c757826328ec3777146110cc5782632b8cd7e1146110a65782633200e26d14610fdc578263370bc5be14610f86578263423646ac14610f51578263469266c814610ef5578263472b327514610e2b5782636a4d879114610dc65782636af1ef4414610d635782636bd4ffd314610d185782637cabb9d814610ce35782637e79e8ba14610c1957826382d7313414610be8578263872a720a1461098c578263893d20e81461094e57826389a86487146108f2578263967e6e651461082857826396c3d10b1461075e57826397c99e92146106ce5782639e0c3ead146105c9578263a254fcbc14610577578263a6f9dae114610508578263dcc601281461032957508163f079914f146102f0578163f38f23ca1461022e57508063f61e4fa6146101e25763f6f6ff121461018757600080fd5b346101de5760203660031901126101de576101406101d5826020946101aa61164b565b338252601387526101c060ff8484205416611752565b6001600160a01b0316815260128652206118d8565b01519051908152f35b5080fd5b50346101de5760203660031901126101de576101fc61164b565b6001546001600160a01b039190610216908316331461189a565b16825260136020528120805460ff1916600117905580f35b919050346102ec5760203660031901126102ec5760099061024d61164b565b338552601360205261026460ff8387205416611752565b6001600160a01b031684526012602052832060088082018054909181901c60ff16156102da575b505001805460001992918382019182116102c75755600f549182019182116102b45750600f5580f35b634e487b7160e01b835260119052602482fd5b634e487b7160e01b855260118352602485fd5b61ff001916610100179055388061028b565b8280fd5b5050346101de57816003193601126101de5761031a60ff8260209433815260138652205416611752565b60ff6006541690519015158152f35b8382863461050557806003193601126105055733815260206013815261035460ff8584205416611752565b6011549267ffffffffffffffff84116104f2575083519061037a818560051b01836116d9565b8382526011835280820193837f31ecc21a745e3968a04e9570e4425bc18fa8019c68028196b546d1669c200c68865b8383106104cd5750505050845194818601928287525180935280860190808460051b8801019594975b8489106103df5787870388f35b9091929394958480600192603f198b820301875289519061049661048661047361046061044d61042b61041b8851610160808a52890190611666565b898901518882038b8a0152611666565b8a8060a01b038d890151168d8801526060808901519088830390890152611666565b6080808801519087830390880152611666565b60a0808701519086830390870152611666565b60c0808601519085830390860152611666565b8784015183820389850152611666565b91610100808201511515908301526101208082015115159083015261014080910151910152980194019801979190949392946103d2565b600a856001926104e0859a98999a6118d8565b815201920192019190959493956103a9565b634e487b7160e01b835260419052602482fd5b80fd5b84346105055760203660031901126105055761052261164b565b8154906001600160a01b03903382841614801561056a575b6105439061189a565b61055160ff60035416611995565b16906bffffffffffffffffffffffff60a01b1617815580f35b506001548216331461053a565b505050346101de5760203660031901126101de5760ff8160209361059961164b565b338252601386526105ae848484205416611752565b6001600160a01b031681526013855220549151911615158152f35b505050346101de57816003193601126101de57338252602090601382526105f560ff8285205416611752565b805183819490600a54610607816117ba565b918285526001918783821691826000146106a757505060011461064b575b50505061064792916106389103856116d9565b51928284938452830190611666565b0390f35b9190869350600a83527fc65a7bb8d6351c1cf70c95a316cc6a92839c986682d98bc35f958f4883f9d2a85b82841061068f5750505082010181610638610647610625565b8054848a018601528895508794909301928101610676565b60ff19168782015293151560051b8601909301935084925061063891506106479050610625565b848285346102ec5760203660031901126102ec576009906106ed61164b565b338552601360205261070460ff8387205416611752565b6001600160a01b031684526012602052832060088101805460ff81161561074e57505001805460001992918382019182116102c75755600f549182019182116102b45750600f5580f35b60ff19166001179055848061028b565b505050346101de57816003193601126101de573382526020906013825261078a60ff8285205416611752565b805183819490600d5461079c816117ba565b918285526001918783821691826000146106a75750506001146107cc5750505061064792916106389103856116d9565b9190869350600d83527fd7b6990105719101dabeb77144f2a3385c8033acd3af97e9423a695e81ad1eb55b8284106108105750505082010181610638610647610625565b8054848a0186015288955087949093019281016107f7565b505050346101de57816003193601126101de573382526020906013825261085460ff8285205416611752565b805183819490600854610866816117ba565b918285526001918783821691826000146106a75750506001146108965750505061064792916106389103856116d9565b9190869350600883527ff3f7a9fe364faab93b216da50a3214154f22a0a2b415b23a84c8169e8b636ee35b8284106108da5750505082010181610638610647610625565b8054848a0186015288955087949093019281016108c1565b505050346101de5760203660031901126101de57602091816109448161091661164b565b933381526013875261092d60ff8383205416611752565b6001600160a01b03948516815260128752206118d8565b0151169051908152f35b505050346101de57816003193601126101de576020913381526013835261097a60ff8383205416611752565b5490516001600160a01b039091168152f35b84918434610be4576101009182600319360112610be05767ffffffffffffffff8582358281116101de576109c390369085016116fb565b946024358381116102ec576109db90369086016116fb565b926044359760018060a01b0391828a16809a03610be057606435818111610bdc57610a0990369089016116fb565b608435828111610bd857610a209036908a016116fb565b60a435838111610bd457610a379036908b016116fb565b9160c435848111610bd057610a4f9036908c016116fb565b9360e435908111610bd057610a6a610a7f9136908d016116fb565b96808a54163314908115610bc2575b5061189a565b610a8d60ff60035416611995565b8a5198610a998a6116a6565b8c8a5260208a01528c8b8a01526060890152608088015260a087015260c086015284015282015285610120820152606461014082015260115468010000000000000000811015610baf576001810180601155811015610b9c5790610b2981600a610b399460118b52027f31ecc21a745e3968a04e9570e4425bc18fa8019c68028196b546d1669c200c6801611a79565b8587526012602052838720611a79565b600f549060648201809211610b895750600f555160208082527f3f59d974cb323c784e37c2bf72b6b6f11983b4d23545adf73f81b553873a539c928291610b839190830190611666565b0390a280f35b634e487b7160e01b865260119052602485fd5b634e487b7160e01b875260328352602487fd5b634e487b7160e01b875260418352602487fd5b905060015416331438610a79565b8880fd5b8780fd5b8680fd5b8580fd5b8480fd5b8380fd5b505050346101de5760203660031901126101de57610120610c0e826020946101aa61164b565b015115159051908152f35b505050346101de57816003193601126101de5733825260209060138252610c4560ff8285205416611752565b805183819490600754610c57816117ba565b918285526001918783821691826000146106a7575050600114610c875750505061064792916106389103856116d9565b9190869350600783527fa66cc928b5edb82af9bd49922954155ab7b0942694bea4ce44661d9a8736c6885b828410610ccb5750505082010181610638610647610625565b8054848a018601528895508794909301928101610cb2565b505050346101de57816003193601126101de57610d0e60ff8260209433815260138652205416611752565b6010549051908152f35b505050346101de5760203660031901126101de57610d3461164b565b6001546001600160a01b039190610d4e908316331461189a565b16825260136020528120805460ff1916905580f35b83853461050557602090816003193601126105055781610db48461064793610d8961164b565b33825260138552610d9f60ff8484205416611752565b6001600160a01b0316815260128452206118d8565b01519251928284938452830190611666565b505050346101de5760203660031901126101de57610e178161064793610dea61164b565b3382526013602052610e0160ff8484205416611752565b6001600160a01b031681526012602052206118d8565b519051918291602083526020830190611666565b505050346101de57816003193601126101de5733825260209060138252610e5760ff8285205416611752565b805183819490600c54610e69816117ba565b918285526001918783821691826000146106a7575050600114610e995750505061064792916106389103856116d9565b9190869350600c83527fdf6966c971051c3d54ec59162606531493a51404a002842f56009d7e5cf4a8c75b828410610edd5750505082010181610638610647610625565b8054848a018601528895508794909301928101610ec4565b8434610505578060031936011261050557610f1b60018060a01b0360015416331461189a565b610f2e610f296002546117ba565b6119d1565b60186b139bdd0815995c9a599a595960a21b016002556003805460ff1916905580f35b505050346101de57816003193601126101de57610f7c60ff8260209433815260138652205416611752565b600f549051908152f35b8434610505578060031936011261050557610fac60018060a01b0360015416331461189a565b610fba610f296002546117ba565b60106715995c9a599a595960c21b016002556003805460ff1916600117905580f35b505050346101de57816003193601126101de573382526020906013825261100860ff8285205416611752565b80518381949060025461101a816117ba565b918285526001918783821691826000146106a757505060011461104a5750505061064792916106389103856116d9565b9190869350600283527f405787fa12a823e0f2b7631cc41b3ba8828b3321ca811111fa75cd3aa3bb5ace5b82841061108e5750505082010181610638610647610625565b8054848a018601528895508794909301928101611075565b505050346101de5760203660031901126101de57610100610c0e826020946101aa61164b565b8385346105055780600319360112610505576001916110f560018060a01b03845416331461189a565b8051918093600e5491611107836117ba565b8086529282811690811561119f5750600114611142575b505050611130826106479403836116d9565b51918291602083526020830190611666565b9450600e85527fbb7b4a454dc3493923482f07822329ed19e8244eff582cc204f8554c3620c3fd5b82861061118757505050611130826020610647958201019461111e565b8054602087870181019190915290950194810161116a565b61064797508693506020925061113094915060ff191682840152151560051b8201019461111e565b505050346101de57816003193601126101de57338252602090601382526111f360ff8285205416611752565b805183819490600954611205816117ba565b918285526001918783821691826000146106a75750506001146112355750505061064792916106389103856116d9565b9190869350600983527f6e1540171b6c0c960b71a7020d9f60077f6af931a8bbf590da0223dacf75c7af5b8284106112795750505082010181610638610647610625565b8054848a018601528895508794909301928101611260565b505050346101de57816003193601126101de57338252602090601382526112bd60ff8285205416611752565b8051838194906005546112cf816117ba565b918285526001918783821691826000146106a75750506001146112ff5750505061064792916106389103856116d9565b9190869350600583527f036b6384b5eca791c62761152d0c79bb0604c104a5fb6f4eb0703f3154bb3db05b8284106113435750505082010181610638610647610625565b8054848a01860152889550879490930192810161132a565b505050346101de57816003193601126101de573382526020906013825261138760ff8285205416611752565b805183819490600b54611399816117ba565b918285526001918783821691826000146106a75750506001146113c95750505061064792916106389103856116d9565b9190869350600b83527f0175b7a638427703f0dbe7bb9bbf987a2551717b34e79f33b5b1008d1fa01db95b82841061140d5750505082010181610638610647610625565b8054848a0186015288955087949093019281016113f4565b848285346102ec57826003193601126102ec573383526020916013835261145160ff8386205416611752565b815193849181815490611463826117ba565b928386526001928884821691826000146114ee575050600114611493575b858861064789610638848a03856116d9565b815286935091907f8a35acfbc15ff81a39ae7d344fd709f28e8600b4aa8c65c6b64bfe7fe36bd19b5b8284106114d6575050508201018161063861064788611481565b8054848a0186015288955087949093019281016114bc565b60ff19168882015294151560051b8701909401945085935061063892506106479150899050611481565b9184869234610be45760209485600319360112610be05761153761164b565b60a0908183019267ffffffffffffffff938181108582111761163857865288885b84811061162a575050503387526013885261157860ff8689205416611752565b6001600160a01b0316865260128752838620611593906118d8565b91845195828701918783109083111761161757508452606082015185526080820151878601528101518385015260c0810151606085015201516080830152519183830184845260c084019291945b600586106115ef5784840385f35b909192818061160a600193601f198982030187528751611666565b95019301950194906115e1565b634e487b7160e01b885260419052602487fd5b606081840152018990611558565b634e487b7160e01b895260418852602489fd5b600435906001600160a01b038216820361166157565b600080fd5b919082519283825260005b848110611692575050826000602080949584010152601f8019910116010190565b602081830181015184830182015201611671565b610160810190811067ffffffffffffffff8211176116c357604052565b634e487b7160e01b600052604160045260246000fd5b90601f8019910116810190811067ffffffffffffffff8211176116c357604052565b81601f820112156116615780359067ffffffffffffffff82116116c35760405192611730601f8401601f1916602001856116d9565b8284526020838301011161166157816000926020809301838601378301015290565b1561175957565b60405162461bcd60e51b815260206004820152603360248201527f596f7520617265206e6f7420617574686f72697a656420746f20706572666f7260448201527236903a3434b9903a3930b739b0b1ba34b7b71760691b6064820152608490fd5b90600182811c921680156117ea575b60208310146117d457565b634e487b7160e01b600052602260045260246000fd5b91607f16916117c9565b9060405191826000825492611808846117ba565b9081845260019485811690816000146118775750600114611834575b5050611832925003836116d9565b565b9093915060005260209081600020936000915b81831061185f57505061183293508201013880611824565b85548884018501529485019487945091830191611847565b91505061183294506020925060ff191682840152151560051b8201013880611824565b156118a157565b60405162461bcd60e51b815260206004820152600f60248201526e2737ba1020baba3437b934bd32b21760891b6044820152606490fd5b906040516118e5816116a6565b610140600982946118f5816117f4565b8452611903600182016117f4565b602085015260028101546001600160a01b03166040850152611927600382016117f4565b6060850152611938600482016117f4565b6080850152611949600582016117f4565b60a085015261195a600682016117f4565b60c085015261196b600782016117f4565b60e085015260ff6008820154818116151561010087015260081c1615156101208501520154910152565b1561199c57565b60405162461bcd60e51b815260206004820152600d60248201526c2737ba103b32b934b334b2b21760991b6044820152606490fd5b601f81116119dc5750565b600060028152601f7f405787fa12a823e0f2b7631cc41b3ba8828b3321ca811111fa75cd3aa3bb5ace920160051c8201915b828110611a1a57505050565b818155600101611a0e565b90601f8111611a3357505050565b600091825260208220906020601f850160051c83019410611a6f575b601f0160051c01915b828110611a6457505050565b818155600101611a58565b9092508290611a4f565b908051805167ffffffffffffffff908181116116c357611aa381611a9d87546117ba565b87611a25565b806020601f94858311600114611fa857600092611f9d575b50508160011b916000199060031b1c19161784555b600180850160208501518051908482116116c3578190611afa82611af486546117ba565b86611a25565b602090878311600114611f3a57600092611f2f575b5050600019600383901b1c191690831b1790555b6002850160018060a01b036040860151166bffffffffffffffffffffffff60a01b82541617905560039081860160608601518051908582116116c3578190611b6f82611af486546117ba565b602090888311600114611ecd57600092611ec2575b505060001982861b1c191690831b1790555b6004860160808601518051908582116116c3578190611bb982611af486546117ba565b602090888311600114611e6057600092611e55575b505060001982861b1c191690831b1790555b6005860160a08601518051908582116116c3578190611c0382611af486546117ba565b602090888311600114611df357600092611de8575b505060001982861b1c191690831b1790555b6006860160c08601518051908582116116c3578190611c4d82611af486546117ba565b602090888311600114611d8657600092611d7b575b505060001982861b1c191690831b1790555b600786019360e086015180519485116116c357611c9b85611c9588546117ba565b88611a25565b6020918511600114611d0a579284809360099896936101409896600095611cff575b50501b92600019911b1c19161790555b600884016101008201511515815460ff61ff00610120860151151560081b1692169061ffff1916171790550151910155565b015193503880611cbd565b91939290601f1984169286600052816000209360005b818110611d65575091859391610140989660099a98969410611d4b575b50505050811b019055611ccd565b01519060f884600019921b161c1916905538808080611d3d565b8284015186559487019460209384019301611d20565b015190503880611c62565b90859350601f1983169185600052816000209260005b818110611dd057508411611db8575b505050811b019055611c74565b015160001983881b60f8161c19169055388080611dab565b82840151855588969094019360209384019301611d9c565b015190503880611c18565b90859350601f1983169185600052816000209260005b818110611e3d57508411611e25575b505050811b019055611c2a565b015160001983881b60f8161c19169055388080611e18565b82840151855588969094019360209384019301611e09565b015190503880611bce565b90859350601f1983169185600052816000209260005b818110611eaa57508411611e92575b505050811b019055611be0565b015160001983881b60f8161c19169055388080611e85565b82840151855588969094019360209384019301611e76565b015190503880611b84565b90859350601f1983169185600052816000209260005b818110611f1757508411611eff575b505050811b019055611b96565b015160001983881b60f8161c19169055388080611ef2565b82840151855588969094019360209384019301611ee3565b015190503880611b0f565b90859350601f1983169185600052816000209260005b818110611f8557508411611f6c575b505050811b019055611b23565b015160001960f88460031b161c19169055388080611f5f565b82840151855588969094019360209384019301611f50565b015190503880611abb565b60008881528281209350601f198516905b818110611ff55750908460019594939210611fdc575b505050811b018455611ad0565b015160001960f88460031b161c19169055388080611fcf565b92936020600181928786015181550195019301611fb956fea264697066735822122050d3a1290bf63f6773bf3dadf229544766b8fdde5038d0a22a2bfe68b56fc9ee64736f6c63430008130033c65a7bb8d6351c1cf70c95a316cc6a92839c986682d98bc35f958f4883f9d2a8a66cc928b5edb82af9bd49922954155ab7b0942694bea4ce44661d9a8736c688f3f7a9fe364faab93b216da50a3214154f22a0a2b415b23a84c8169e8b636ee36e1540171b6c0c960b71a7020d9f60077f6af931a8bbf590da0223dacf75c7af",
  "linkReferences": {},
  "deployedLinkReferences": {}
}